{
  "_format": "hh-sol-artifact-1",
  "contractName": "WrapSell",
  "sourceName": "contracts/WrapSell.sol",
  "abi": [
    {
      "inputs": [
        {
          "internalType": "string",
          "name": "_name",
          "type": "string"
        },
        {
          "internalType": "string",
          "name": "_symbol",
          "type": "string"
        },
        {
          "internalType": "uint256",
          "name": "_cardId",
          "type": "uint256"
        },
        {
          "internalType": "string",
          "name": "_cardName",
          "type": "string"
        },
        {
          "internalType": "string",
          "name": "_rarity",
          "type": "string"
        },
        {
          "internalType": "uint256",
          "name": "_estimatedValuePerCard",
          "type": "uint256"
        }
      ],
      "stateMutability": "nonpayable",
      "type": "constructor"
    },
    {
      "anonymous": false,
      "inputs": [
        {
          "indexed": true,
          "internalType": "address",
          "name": "owner",
          "type": "address"
        },
        {
          "indexed": true,
          "internalType": "address",
          "name": "spender",
          "type": "address"
        },
        {
          "indexed": false,
          "internalType": "uint256",
          "name": "value",
          "type": "uint256"
        }
      ],
      "name": "Approval",
      "type": "event"
    },
    {
      "anonymous": false,
      "inputs": [
        {
          "indexed": false,
          "internalType": "string",
          "name": "cardName",
          "type": "string"
        },
        {
          "indexed": false,
          "internalType": "string",
          "name": "rarity",
          "type": "string"
        },
        {
          "indexed": false,
          "internalType": "uint256",
          "name": "estimatedValue",
          "type": "uint256"
        }
      ],
      "name": "CardInfoUpdated",
      "type": "event"
    },
    {
      "anonymous": false,
      "inputs": [
        {
          "indexed": true,
          "internalType": "address",
          "name": "user",
          "type": "address"
        },
        {
          "indexed": false,
          "internalType": "uint256",
          "name": "cardCount",
          "type": "uint256"
        },
        {
          "indexed": false,
          "internalType": "uint256",
          "name": "tokensIssued",
          "type": "uint256"
        }
      ],
      "name": "CardsDeposited",
      "type": "event"
    },
    {
      "anonymous": false,
      "inputs": [
        {
          "indexed": true,
          "internalType": "address",
          "name": "user",
          "type": "address"
        },
        {
          "indexed": false,
          "internalType": "uint256",
          "name": "cardCount",
          "type": "uint256"
        },
        {
          "indexed": false,
          "internalType": "uint256",
          "name": "tokensBurned",
          "type": "uint256"
        }
      ],
      "name": "CardsWithdrawn",
      "type": "event"
    },
    {
      "anonymous": false,
      "inputs": [
        {
          "indexed": true,
          "internalType": "address",
          "name": "from",
          "type": "address"
        },
        {
          "indexed": true,
          "internalType": "address",
          "name": "to",
          "type": "address"
        },
        {
          "indexed": false,
          "internalType": "uint256",
          "name": "value",
          "type": "uint256"
        }
      ],
      "name": "Transfer",
      "type": "event"
    },
    {
      "inputs": [
        {
          "internalType": "address",
          "name": "owner_",
          "type": "address"
        },
        {
          "internalType": "address",
          "name": "spender",
          "type": "address"
        }
      ],
      "name": "allowance",
      "outputs": [
        {
          "internalType": "uint256",
          "name": "",
          "type": "uint256"
        }
      ],
      "stateMutability": "view",
      "type": "function"
    },
    {
      "inputs": [
        {
          "internalType": "address",
          "name": "spender",
          "type": "address"
        },
        {
          "internalType": "uint256",
          "name": "amount",
          "type": "uint256"
        }
      ],
      "name": "approve",
      "outputs": [
        {
          "internalType": "bool",
          "name": "",
          "type": "bool"
        }
      ],
      "stateMutability": "nonpayable",
      "type": "function"
    },
    {
      "inputs": [
        {
          "internalType": "address",
          "name": "account",
          "type": "address"
        }
      ],
      "name": "balanceOf",
      "outputs": [
        {
          "internalType": "uint256",
          "name": "",
          "type": "uint256"
        }
      ],
      "stateMutability": "view",
      "type": "function"
    },
    {
      "inputs": [
        {
          "internalType": "address",
          "name": "",
          "type": "address"
        }
      ],
      "name": "cardDeposits",
      "outputs": [
        {
          "internalType": "uint256",
          "name": "",
          "type": "uint256"
        }
      ],
      "stateMutability": "view",
      "type": "function"
    },
    {
      "inputs": [],
      "name": "cardId",
      "outputs": [
        {
          "internalType": "uint256",
          "name": "",
          "type": "uint256"
        }
      ],
      "stateMutability": "view",
      "type": "function"
    },
    {
      "inputs": [],
      "name": "cardName",
      "outputs": [
        {
          "internalType": "string",
          "name": "",
          "type": "string"
        }
      ],
      "stateMutability": "view",
      "type": "function"
    },
    {
      "inputs": [],
      "name": "decimals",
      "outputs": [
        {
          "internalType": "uint8",
          "name": "",
          "type": "uint8"
        }
      ],
      "stateMutability": "view",
      "type": "function"
    },
    {
      "inputs": [
        {
          "internalType": "uint256",
          "name": "cardCount",
          "type": "uint256"
        }
      ],
      "name": "depositCards",
      "outputs": [],
      "stateMutability": "payable",
      "type": "function"
    },
    {
      "inputs": [
        {
          "internalType": "uint256",
          "name": "amount",
          "type": "uint256"
        }
      ],
      "name": "emergencyWithdraw",
      "outputs": [],
      "stateMutability": "nonpayable",
      "type": "function"
    },
    {
      "inputs": [],
      "name": "estimatedValuePerCard",
      "outputs": [
        {
          "internalType": "uint256",
          "name": "",
          "type": "uint256"
        }
      ],
      "stateMutability": "view",
      "type": "function"
    },
    {
      "inputs": [],
      "name": "getCardInfo",
      "outputs": [
        {
          "internalType": "uint256",
          "name": "_cardId",
          "type": "uint256"
        },
        {
          "internalType": "string",
          "name": "_cardName",
          "type": "string"
        },
        {
          "internalType": "string",
          "name": "_rarity",
          "type": "string"
        },
        {
          "internalType": "uint256",
          "name": "_estimatedValuePerCard",
          "type": "uint256"
        }
      ],
      "stateMutability": "view",
      "type": "function"
    },
    {
      "inputs": [],
      "name": "getCollateralInfo",
      "outputs": [
        {
          "internalType": "uint256",
          "name": "totalCards",
          "type": "uint256"
        },
        {
          "internalType": "uint256",
          "name": "totalValue",
          "type": "uint256"
        },
        {
          "internalType": "uint256",
          "name": "tokensIssued",
          "type": "uint256"
        },
        {
          "internalType": "uint256",
          "name": "collateralizationRatio",
          "type": "uint256"
        }
      ],
      "stateMutability": "view",
      "type": "function"
    },
    {
      "inputs": [],
      "name": "getContractBalance",
      "outputs": [
        {
          "internalType": "uint256",
          "name": "",
          "type": "uint256"
        }
      ],
      "stateMutability": "view",
      "type": "function"
    },
    {
      "inputs": [],
      "name": "getTotalCollateralValue",
      "outputs": [
        {
          "internalType": "uint256",
          "name": "",
          "type": "uint256"
        }
      ],
      "stateMutability": "view",
      "type": "function"
    },
    {
      "inputs": [
        {
          "internalType": "address",
          "name": "user",
          "type": "address"
        }
      ],
      "name": "getUserCardInfo",
      "outputs": [
        {
          "internalType": "uint256",
          "name": "cardsDeposited",
          "type": "uint256"
        },
        {
          "internalType": "uint256",
          "name": "tokenBalance",
          "type": "uint256"
        },
        {
          "internalType": "uint256",
          "name": "userCollateralValue",
          "type": "uint256"
        }
      ],
      "stateMutability": "view",
      "type": "function"
    },
    {
      "inputs": [
        {
          "internalType": "address",
          "name": "to",
          "type": "address"
        },
        {
          "internalType": "uint256",
          "name": "amount",
          "type": "uint256"
        }
      ],
      "name": "mint",
      "outputs": [],
      "stateMutability": "nonpayable",
      "type": "function"
    },
    {
      "inputs": [],
      "name": "name",
      "outputs": [
        {
          "internalType": "string",
          "name": "",
          "type": "string"
        }
      ],
      "stateMutability": "view",
      "type": "function"
    },
    {
      "inputs": [],
      "name": "owner",
      "outputs": [
        {
          "internalType": "address",
          "name": "",
          "type": "address"
        }
      ],
      "stateMutability": "view",
      "type": "function"
    },
    {
      "inputs": [],
      "name": "rarity",
      "outputs": [
        {
          "internalType": "string",
          "name": "",
          "type": "string"
        }
      ],
      "stateMutability": "view",
      "type": "function"
    },
    {
      "inputs": [
        {
          "internalType": "address",
          "name": "_wrapPool",
          "type": "address"
        }
      ],
      "name": "setWrapPool",
      "outputs": [],
      "stateMutability": "nonpayable",
      "type": "function"
    },
    {
      "inputs": [],
      "name": "symbol",
      "outputs": [
        {
          "internalType": "string",
          "name": "",
          "type": "string"
        }
      ],
      "stateMutability": "view",
      "type": "function"
    },
    {
      "inputs": [],
      "name": "totalCardsDeposited",
      "outputs": [
        {
          "internalType": "uint256",
          "name": "",
          "type": "uint256"
        }
      ],
      "stateMutability": "view",
      "type": "function"
    },
    {
      "inputs": [],
      "name": "totalSupply",
      "outputs": [
        {
          "internalType": "uint256",
          "name": "",
          "type": "uint256"
        }
      ],
      "stateMutability": "view",
      "type": "function"
    },
    {
      "inputs": [],
      "name": "totalTokensIssued",
      "outputs": [
        {
          "internalType": "uint256",
          "name": "",
          "type": "uint256"
        }
      ],
      "stateMutability": "view",
      "type": "function"
    },
    {
      "inputs": [
        {
          "internalType": "address",
          "name": "to",
          "type": "address"
        },
        {
          "internalType": "uint256",
          "name": "amount",
          "type": "uint256"
        }
      ],
      "name": "transfer",
      "outputs": [
        {
          "internalType": "bool",
          "name": "",
          "type": "bool"
        }
      ],
      "stateMutability": "nonpayable",
      "type": "function"
    },
    {
      "inputs": [
        {
          "internalType": "address",
          "name": "from",
          "type": "address"
        },
        {
          "internalType": "address",
          "name": "to",
          "type": "address"
        },
        {
          "internalType": "uint256",
          "name": "amount",
          "type": "uint256"
        }
      ],
      "name": "transferFrom",
      "outputs": [
        {
          "internalType": "bool",
          "name": "",
          "type": "bool"
        }
      ],
      "stateMutability": "nonpayable",
      "type": "function"
    },
    {
      "inputs": [
        {
          "internalType": "string",
          "name": "_cardName",
          "type": "string"
        },
        {
          "internalType": "string",
          "name": "_rarity",
          "type": "string"
        },
        {
          "internalType": "uint256",
          "name": "_estimatedValuePerCard",
          "type": "uint256"
        }
      ],
      "name": "updateCardInfo",
      "outputs": [],
      "stateMutability": "nonpayable",
      "type": "function"
    },
    {
      "inputs": [
        {
          "internalType": "uint256",
          "name": "cardCount",
          "type": "uint256"
        }
      ],
      "name": "withdrawCards",
      "outputs": [],
      "stateMutability": "nonpayable",
      "type": "function"
    },
    {
      "inputs": [],
      "name": "wrapPool",
      "outputs": [
        {
          "internalType": "address",
          "name": "",
          "type": "address"
        }
      ],
      "stateMutability": "view",
      "type": "function"
    }
  ],
  "bytecode": "0x608060405234801561001057600080fd5b506040516136e33803806136e3833981810160405281019061003291906102c8565b856000908161004191906105dc565b50846001908161005191906105dc565b5083600381905550826004908161006891906105dc565b50816005908161007891906105dc565b508060068190555033600760006101000a81548173ffffffffffffffffffffffffffffffffffffffff021916908373ffffffffffffffffffffffffffffffffffffffff16021790555033600860006101000a81548173ffffffffffffffffffffffffffffffffffffffff021916908373ffffffffffffffffffffffffffffffffffffffff1602179055506000600c819055506000600d819055505050505050506106ae565b6000604051905090565b600080fd5b600080fd5b600080fd5b600080fd5b6000601f19601f8301169050919050565b7f4e487b7100000000000000000000000000000000000000000000000000000000600052604160045260246000fd5b6101848261013b565b810181811067ffffffffffffffff821117156101a3576101a261014c565b5b80604052505050565b60006101b661011d565b90506101c2828261017b565b919050565b600067ffffffffffffffff8211156101e2576101e161014c565b5b6101eb8261013b565b9050602081019050919050565b60005b838110156102165780820151818401526020810190506101fb565b60008484015250505050565b6000610235610230846101c7565b6101ac565b90508281526020810184848401111561025157610250610136565b5b61025c8482856101f8565b509392505050565b600082601f83011261027957610278610131565b5b8151610289848260208601610222565b91505092915050565b6000819050919050565b6102a581610292565b81146102b057600080fd5b50565b6000815190506102c28161029c565b92915050565b60008060008060008060c087890312156102e5576102e4610127565b5b600087015167ffffffffffffffff8111156103035761030261012c565b5b61030f89828a01610264565b965050602087015167ffffffffffffffff8111156103305761032f61012c565b5b61033c89828a01610264565b955050604061034d89828a016102b3565b945050606087015167ffffffffffffffff81111561036e5761036d61012c565b5b61037a89828a01610264565b935050608087015167ffffffffffffffff81111561039b5761039a61012c565b5b6103a789828a01610264565b92505060a06103b889828a016102b3565b9150509295509295509295565b600081519050919050565b7f4e487b7100000000000000000000000000000000000000000000000000000000600052602260045260246000fd5b6000600282049050600182168061041757607f821691505b60208210810361042a576104296103d0565b5b50919050565b60008190508160005260206000209050919050565b60006020601f8301049050919050565b600082821b905092915050565b6000600883026104927fffffffffffffffffffffffffffffffffffffffffffffffffffffffffffffffff82610455565b61049c8683610455565b95508019841693508086168417925050509392505050565b6000819050919050565b60006104d96104d46104cf84610292565b6104b4565b610292565b9050919050565b6000819050919050565b6104f3836104be565b6105076104ff826104e0565b848454610462565b825550505050565b600090565b61051c61050f565b6105278184846104ea565b505050565b5b8181101561054b57610540600082610514565b60018101905061052d565b5050565b601f8211156105905761056181610430565b61056a84610445565b81016020851015610579578190505b61058d61058585610445565b83018261052c565b50505b505050565b600082821c905092915050565b60006105b360001984600802610595565b1980831691505092915050565b60006105cc83836105a2565b9150826002028217905092915050565b6105e5826103c5565b67ffffffffffffffff8111156105fe576105fd61014c565b5b61060882546103ff565b61061382828561054f565b600060209050601f8311600181146106465760008415610634578287015190505b61063e85826105c0565b8655506106a6565b601f19841661065486610430565b60005b8281101561067c57848901518255600182019150602085019450602081019050610657565b868310156106995784890151610695601f8916826105a2565b8355505b6001600288020188555050505b505050505050565b613026806106bd6000396000f3fe6080604052600436106101c25760003560e01c8063944360d4116100f7578063ccde54e611610095578063dd62ed3e11610064578063dd62ed3e14610652578063ed6493af1461068f578063fd907116146106ba578063fef21f0f146106e8576101c2565b8063ccde54e614610582578063cdf32d88146105ad578063d883f721146105ea578063da7309b314610629576101c2565b806399f7e5a4116100d157806399f7e5a4146104d3578063a9059cbb146104ef578063b44a84431461052c578063bda540c114610557576101c2565b8063944360d41461045257806395d89b411461047d57806399a9b29c146104a8576101c2565b806340c10f19116101645780636f9fb98a1161013e5780636f9fb98a1461039457806370a08231146103bf5780638da5cb5b146103fc5780639156a00314610427576101c2565b806340c10f19146103195780635312ea8e146103425780636387e7421461036b576101c2565b80631b2118ed116101a05780631b2118ed1461025a57806323b872dd146102835780632e0bcb43146102c0578063313ce567146102ee576101c2565b806306fdde03146101c7578063095ea7b3146101f257806318160ddd1461022f575b600080fd5b3480156101d357600080fd5b506101dc610713565b6040516101e99190611e34565b60405180910390f35b3480156101fe57600080fd5b5061021960048036038101906102149190611efe565b6107a1565b6040516102269190611f59565b60405180910390f35b34801561023b57600080fd5b506102446107b8565b6040516102519190611f83565b60405180910390f35b34801561026657600080fd5b50610281600480360381019061027c91906120d3565b6107be565b005b34801561028f57600080fd5b506102aa60048036038101906102a5919061215e565b6108b5565b6040516102b79190611f59565b60405180910390f35b3480156102cc57600080fd5b506102d56109a7565b6040516102e594939291906121b1565b60405180910390f35b3480156102fa57600080fd5b50610303610a00565b6040516103109190612212565b60405180910390f35b34801561032557600080fd5b50610340600480360381019061033b9190611efe565b610a05565b005b34801561034e57600080fd5b506103696004803603810190610364919061222d565b610c20565b005b34801561037757600080fd5b50610392600480360381019061038d919061222d565b610d5f565b005b3480156103a057600080fd5b506103a96110c3565b6040516103b69190611f83565b60405180910390f35b3480156103cb57600080fd5b506103e660048036038101906103e1919061225a565b6110cb565b6040516103f39190611f83565b60405180910390f35b34801561040857600080fd5b50610411611114565b60405161041e9190612296565b60405180910390f35b34801561043357600080fd5b5061043c61113a565b6040516104499190611f83565b60405180910390f35b34801561045e57600080fd5b50610467611140565b6040516104749190611f83565b60405180910390f35b34801561048957600080fd5b50610492611146565b60405161049f9190611e34565b60405180910390f35b3480156104b457600080fd5b506104bd6111d4565b6040516104ca9190611f83565b60405180910390f35b6104ed60048036038101906104e8919061222d565b6111da565b005b3480156104fb57600080fd5b5061051660048036038101906105119190611efe565b611436565b6040516105239190611f59565b60405180910390f35b34801561053857600080fd5b5061054161144d565b60405161054e9190612296565b60405180910390f35b34801561056357600080fd5b5061056c611473565b6040516105799190611f83565b60405180910390f35b34801561058e57600080fd5b50610597611479565b6040516105a49190611e34565b60405180910390f35b3480156105b957600080fd5b506105d460048036038101906105cf919061225a565b611507565b6040516105e19190611f83565b60405180910390f35b3480156105f657600080fd5b50610611600480360381019061060c919061225a565b61151f565b604051610620939291906122b1565b60405180910390f35b34801561063557600080fd5b50610650600480360381019061064b919061225a565b6115bf565b005b34801561065e57600080fd5b50610679600480360381019061067491906122e8565b611702565b6040516106869190611f83565b60405180910390f35b34801561069b57600080fd5b506106a4611789565b6040516106b19190611f83565b60405180910390f35b3480156106c657600080fd5b506106cf6117a0565b6040516106df9493929190612328565b60405180910390f35b3480156106f457600080fd5b506106fd6118d7565b60405161070a9190611e34565b60405180910390f35b60008054610720906123aa565b80601f016020809104026020016040519081016040528092919081815260200182805461074c906123aa565b80156107995780601f1061076e57610100808354040283529160200191610799565b820191906000526020600020905b81548152906001019060200180831161077c57829003601f168201915b505050505081565b60006107ae338484611965565b6001905092915050565b60025481565b600760009054906101000a900473ffffffffffffffffffffffffffffffffffffffff1673ffffffffffffffffffffffffffffffffffffffff163373ffffffffffffffffffffffffffffffffffffffff161461084e576040517f08c379a00000000000000000000000000000000000000000000000000000000081526004016108459061244d565b60405180910390fd5b826004908161085d9190612619565b50816005908161086d9190612619565b50806006819055507f142d762e9b36b2a3ed5042e19026b77943120bd20eadadab370666cfb9f424638383836040516108a8939291906126eb565b60405180910390a1505050565b600080600a60008673ffffffffffffffffffffffffffffffffffffffff1673ffffffffffffffffffffffffffffffffffffffff16815260200190815260200160002060003373ffffffffffffffffffffffffffffffffffffffff1673ffffffffffffffffffffffffffffffffffffffff1681526020019081526020016000205490508281101561097a576040517f08c379a0000000000000000000000000000000000000000000000000000000008152600401610971906127a2565b60405180910390fd5b610985858585611b2e565b61099b8533858461099691906127f1565b611965565b60019150509392505050565b600080600080600c549350600654600c546109c29190612825565b9250600d5491506000600d5411156109f557600d546064846109e49190612825565b6109ee9190612896565b90506109fa565b600090505b90919293565b601281565b600760009054906101000a900473ffffffffffffffffffffffffffffffffffffffff1673ffffffffffffffffffffffffffffffffffffffff163373ffffffffffffffffffffffffffffffffffffffff1614610a95576040517f08c379a0000000000000000000000000000000000000000000000000000000008152600401610a8c9061244d565b60405180910390fd5b600073ffffffffffffffffffffffffffffffffffffffff168273ffffffffffffffffffffffffffffffffffffffff1603610b04576040517f08c379a0000000000000000000000000000000000000000000000000000000008152600401610afb90612913565b60405180910390fd5b60008111610b47576040517f08c379a0000000000000000000000000000000000000000000000000000000008152600401610b3e906129a5565b60405180910390fd5b8060026000828254610b5991906129c5565b9250508190555080600960008473ffffffffffffffffffffffffffffffffffffffff1673ffffffffffffffffffffffffffffffffffffffff1681526020019081526020016000206000828254610baf91906129c5565b925050819055508173ffffffffffffffffffffffffffffffffffffffff16600073ffffffffffffffffffffffffffffffffffffffff167fddf252ad1be2c89b69c2b068fc378daa952ba7f163c4a11628f55a4df523b3ef83604051610c149190611f83565b60405180910390a35050565b600760009054906101000a900473ffffffffffffffffffffffffffffffffffffffff1673ffffffffffffffffffffffffffffffffffffffff163373ffffffffffffffffffffffffffffffffffffffff1614610cb0576040517f08c379a0000000000000000000000000000000000000000000000000000000008152600401610ca79061244d565b60405180910390fd5b47811115610cf3576040517f08c379a0000000000000000000000000000000000000000000000000000000008152600401610cea90612a45565b60405180910390fd5b600760009054906101000a900473ffffffffffffffffffffffffffffffffffffffff1673ffffffffffffffffffffffffffffffffffffffff166108fc829081150290604051600060405180830381858888f19350505050158015610d5b573d6000803e3d6000fd5b5050565b60008111610da2576040517f08c379a0000000000000000000000000000000000000000000000000000000008152600401610d9990612ab1565b60405180910390fd5b80600b60003373ffffffffffffffffffffffffffffffffffffffff1673ffffffffffffffffffffffffffffffffffffffff168152602001908152602001600020541015610e24576040517f08c379a0000000000000000000000000000000000000000000000000000000008152600401610e1b90612b1d565b60405180910390fd5b600060065482610e349190612825565b905080600960003373ffffffffffffffffffffffffffffffffffffffff1673ffffffffffffffffffffffffffffffffffffffff168152602001908152602001600020541015610eb8576040517f08c379a0000000000000000000000000000000000000000000000000000000008152600401610eaf90612b89565b60405180910390fd5b8060026000828254610eca91906127f1565b9250508190555080600960003373ffffffffffffffffffffffffffffffffffffffff1673ffffffffffffffffffffffffffffffffffffffff1681526020019081526020016000206000828254610f2091906127f1565b9250508190555081600b60003373ffffffffffffffffffffffffffffffffffffffff1673ffffffffffffffffffffffffffffffffffffffff1681526020019081526020016000206000828254610f7691906127f1565b9250508190555081600c6000828254610f8f91906127f1565b9250508190555080600d6000828254610fa891906127f1565b92505081905550600060065483610fbf9190612825565b90503373ffffffffffffffffffffffffffffffffffffffff166108fc829081150290604051600060405180830381858888f19350505050158015611007573d6000803e3d6000fd5b50600073ffffffffffffffffffffffffffffffffffffffff163373ffffffffffffffffffffffffffffffffffffffff167fddf252ad1be2c89b69c2b068fc378daa952ba7f163c4a11628f55a4df523b3ef846040516110669190611f83565b60405180910390a33373ffffffffffffffffffffffffffffffffffffffff167f066fdf6f9e08d9f7f4f19a0d6a14944cca979b9cb7d579014687e851e097ea6b84846040516110b6929190612ba9565b60405180910390a2505050565b600047905090565b6000600960008373ffffffffffffffffffffffffffffffffffffffff1673ffffffffffffffffffffffffffffffffffffffff168152602001908152602001600020549050919050565b600760009054906101000a900473ffffffffffffffffffffffffffffffffffffffff1681565b600d5481565b60065481565b60018054611153906123aa565b80601f016020809104026020016040519081016040528092919081815260200182805461117f906123aa565b80156111cc5780601f106111a1576101008083540402835291602001916111cc565b820191906000526020600020905b8154815290600101906020018083116111af57829003601f168201915b505050505081565b60035481565b6000811161121d576040517f08c379a000000000000000000000000000000000000000000000000000000000815260040161121490612c1e565b60405180910390fd5b60006006548261122d9190612825565b905080341015611272576040517f08c379a000000000000000000000000000000000000000000000000000000000815260040161126990612c8a565b60405180910390fd5b6000600654836112829190612825565b905082600b60003373ffffffffffffffffffffffffffffffffffffffff1673ffffffffffffffffffffffffffffffffffffffff16815260200190815260200160002060008282546112d391906129c5565b9250508190555082600c60008282546112ec91906129c5565b9250508190555080600d600082825461130591906129c5565b92505081905550806002600082825461131e91906129c5565b9250508190555080600960003373ffffffffffffffffffffffffffffffffffffffff1673ffffffffffffffffffffffffffffffffffffffff168152602001908152602001600020600082825461137491906129c5565b925050819055503373ffffffffffffffffffffffffffffffffffffffff16600073ffffffffffffffffffffffffffffffffffffffff167fddf252ad1be2c89b69c2b068fc378daa952ba7f163c4a11628f55a4df523b3ef836040516113d99190611f83565b60405180910390a33373ffffffffffffffffffffffffffffffffffffffff167fa0d6926f7ae6a79e5246a882f4a43ae00a309979a5861b0afe34228cbe8a17a78483604051611429929190612ba9565b60405180910390a2505050565b6000611443338484611b2e565b6001905092915050565b600860009054906101000a900473ffffffffffffffffffffffffffffffffffffffff1681565b600c5481565b60048054611486906123aa565b80601f01602080910402602001604051908101604052809291908181526020018280546114b2906123aa565b80156114ff5780601f106114d4576101008083540402835291602001916114ff565b820191906000526020600020905b8154815290600101906020018083116114e257829003601f168201915b505050505081565b600b6020528060005260406000206000915090505481565b6000806000600b60008573ffffffffffffffffffffffffffffffffffffffff1673ffffffffffffffffffffffffffffffffffffffff168152602001908152602001600020549250600960008573ffffffffffffffffffffffffffffffffffffffff1673ffffffffffffffffffffffffffffffffffffffff168152602001908152602001600020549150600654836115b69190612825565b90509193909250565b600760009054906101000a900473ffffffffffffffffffffffffffffffffffffffff1673ffffffffffffffffffffffffffffffffffffffff163373ffffffffffffffffffffffffffffffffffffffff161461164f576040517f08c379a00000000000000000000000000000000000000000000000000000000081526004016116469061244d565b60405180910390fd5b600073ffffffffffffffffffffffffffffffffffffffff168173ffffffffffffffffffffffffffffffffffffffff16036116be576040517f08c379a00000000000000000000000000000000000000000000000000000000081526004016116b590612cf6565b60405180910390fd5b80600860006101000a81548173ffffffffffffffffffffffffffffffffffffffff021916908373ffffffffffffffffffffffffffffffffffffffff16021790555050565b6000600a60008473ffffffffffffffffffffffffffffffffffffffff1673ffffffffffffffffffffffffffffffffffffffff16815260200190815260200160002060008373ffffffffffffffffffffffffffffffffffffffff1673ffffffffffffffffffffffffffffffffffffffff16815260200190815260200160002054905092915050565b6000600654600c5461179b9190612825565b905090565b60006060806000600354600460056006548280546117bd906123aa565b80601f01602080910402602001604051908101604052809291908181526020018280546117e9906123aa565b80156118365780601f1061180b57610100808354040283529160200191611836565b820191906000526020600020905b81548152906001019060200180831161181957829003601f168201915b50505050509250818054611849906123aa565b80601f0160208091040260200160405190810160405280929190818152602001828054611875906123aa565b80156118c25780601f10611897576101008083540402835291602001916118c2565b820191906000526020600020905b8154815290600101906020018083116118a557829003601f168201915b50505050509150935093509350935090919293565b600580546118e4906123aa565b80601f0160208091040260200160405190810160405280929190818152602001828054611910906123aa565b801561195d5780601f106119325761010080835404028352916020019161195d565b820191906000526020600020905b81548152906001019060200180831161194057829003601f168201915b505050505081565b600073ffffffffffffffffffffffffffffffffffffffff168373ffffffffffffffffffffffffffffffffffffffff16036119d4576040517f08c379a00000000000000000000000000000000000000000000000000000000081526004016119cb90612d88565b60405180910390fd5b600073ffffffffffffffffffffffffffffffffffffffff168273ffffffffffffffffffffffffffffffffffffffff1603611a43576040517f08c379a0000000000000000000000000000000000000000000000000000000008152600401611a3a90612e1a565b60405180910390fd5b80600a60008573ffffffffffffffffffffffffffffffffffffffff1673ffffffffffffffffffffffffffffffffffffffff16815260200190815260200160002060008473ffffffffffffffffffffffffffffffffffffffff1673ffffffffffffffffffffffffffffffffffffffff168152602001908152602001600020819055508173ffffffffffffffffffffffffffffffffffffffff168373ffffffffffffffffffffffffffffffffffffffff167f8c5be1e5ebec7d5bd14f71427d1e84f3dd0314c0f7b2291e5b200ac8c7c3b92583604051611b219190611f83565b60405180910390a3505050565b600073ffffffffffffffffffffffffffffffffffffffff168373ffffffffffffffffffffffffffffffffffffffff1603611b9d576040517f08c379a0000000000000000000000000000000000000000000000000000000008152600401611b9490612eac565b60405180910390fd5b600073ffffffffffffffffffffffffffffffffffffffff168273ffffffffffffffffffffffffffffffffffffffff1603611c0c576040517f08c379a0000000000000000000000000000000000000000000000000000000008152600401611c0390612f3e565b60405180910390fd5b80600960008573ffffffffffffffffffffffffffffffffffffffff1673ffffffffffffffffffffffffffffffffffffffff168152602001908152602001600020541015611c8e576040517f08c379a0000000000000000000000000000000000000000000000000000000008152600401611c8590612fd0565b60405180910390fd5b80600960008573ffffffffffffffffffffffffffffffffffffffff1673ffffffffffffffffffffffffffffffffffffffff1681526020019081526020016000206000828254611cdd91906127f1565b9250508190555080600960008473ffffffffffffffffffffffffffffffffffffffff1673ffffffffffffffffffffffffffffffffffffffff1681526020019081526020016000206000828254611d3391906129c5565b925050819055508173ffffffffffffffffffffffffffffffffffffffff168373ffffffffffffffffffffffffffffffffffffffff167fddf252ad1be2c89b69c2b068fc378daa952ba7f163c4a11628f55a4df523b3ef83604051611d979190611f83565b60405180910390a3505050565b600081519050919050565b600082825260208201905092915050565b60005b83811015611dde578082015181840152602081019050611dc3565b60008484015250505050565b6000601f19601f8301169050919050565b6000611e0682611da4565b611e108185611daf565b9350611e20818560208601611dc0565b611e2981611dea565b840191505092915050565b60006020820190508181036000830152611e4e8184611dfb565b905092915050565b6000604051905090565b600080fd5b600080fd5b600073ffffffffffffffffffffffffffffffffffffffff82169050919050565b6000611e9582611e6a565b9050919050565b611ea581611e8a565b8114611eb057600080fd5b50565b600081359050611ec281611e9c565b92915050565b6000819050919050565b611edb81611ec8565b8114611ee657600080fd5b50565b600081359050611ef881611ed2565b92915050565b60008060408385031215611f1557611f14611e60565b5b6000611f2385828601611eb3565b9250506020611f3485828601611ee9565b9150509250929050565b60008115159050919050565b611f5381611f3e565b82525050565b6000602082019050611f6e6000830184611f4a565b92915050565b611f7d81611ec8565b82525050565b6000602082019050611f986000830184611f74565b92915050565b600080fd5b600080fd5b7f4e487b7100000000000000000000000000000000000000000000000000000000600052604160045260246000fd5b611fe082611dea565b810181811067ffffffffffffffff82111715611fff57611ffe611fa8565b5b80604052505050565b6000612012611e56565b905061201e8282611fd7565b919050565b600067ffffffffffffffff82111561203e5761203d611fa8565b5b61204782611dea565b9050602081019050919050565b82818337600083830152505050565b600061207661207184612023565b612008565b90508281526020810184848401111561209257612091611fa3565b5b61209d848285612054565b509392505050565b600082601f8301126120ba576120b9611f9e565b5b81356120ca848260208601612063565b91505092915050565b6000806000606084860312156120ec576120eb611e60565b5b600084013567ffffffffffffffff81111561210a57612109611e65565b5b612116868287016120a5565b935050602084013567ffffffffffffffff81111561213757612136611e65565b5b612143868287016120a5565b925050604061215486828701611ee9565b9150509250925092565b60008060006060848603121561217757612176611e60565b5b600061218586828701611eb3565b935050602061219686828701611eb3565b92505060406121a786828701611ee9565b9150509250925092565b60006080820190506121c66000830187611f74565b6121d36020830186611f74565b6121e06040830185611f74565b6121ed6060830184611f74565b95945050505050565b600060ff82169050919050565b61220c816121f6565b82525050565b60006020820190506122276000830184612203565b92915050565b60006020828403121561224357612242611e60565b5b600061225184828501611ee9565b91505092915050565b6000602082840312156122705761226f611e60565b5b600061227e84828501611eb3565b91505092915050565b61229081611e8a565b82525050565b60006020820190506122ab6000830184612287565b92915050565b60006060820190506122c66000830186611f74565b6122d36020830185611f74565b6122e06040830184611f74565b949350505050565b600080604083850312156122ff576122fe611e60565b5b600061230d85828601611eb3565b925050602061231e85828601611eb3565b9150509250929050565b600060808201905061233d6000830187611f74565b818103602083015261234f8186611dfb565b905081810360408301526123638185611dfb565b90506123726060830184611f74565b95945050505050565b7f4e487b7100000000000000000000000000000000000000000000000000000000600052602260045260246000fd5b600060028204905060018216806123c257607f821691505b6020821081036123d5576123d461237b565b5b50919050565b7f4f6e6c79206f776e65722063616e2063616c6c20746869732066756e6374696f60008201527f6e00000000000000000000000000000000000000000000000000000000000000602082015250565b6000612437602183611daf565b9150612442826123db565b604082019050919050565b600060208201905081810360008301526124668161242a565b9050919050565b60008190508160005260206000209050919050565b60006020601f8301049050919050565b600082821b905092915050565b6000600883026124cf7fffffffffffffffffffffffffffffffffffffffffffffffffffffffffffffffff82612492565b6124d98683612492565b95508019841693508086168417925050509392505050565b6000819050919050565b600061251661251161250c84611ec8565b6124f1565b611ec8565b9050919050565b6000819050919050565b612530836124fb565b61254461253c8261251d565b84845461249f565b825550505050565b600090565b61255961254c565b612564818484612527565b505050565b5b818110156125885761257d600082612551565b60018101905061256a565b5050565b601f8211156125cd5761259e8161246d565b6125a784612482565b810160208510156125b6578190505b6125ca6125c285612482565b830182612569565b50505b505050565b600082821c905092915050565b60006125f0600019846008026125d2565b1980831691505092915050565b600061260983836125df565b9150826002028217905092915050565b61262282611da4565b67ffffffffffffffff81111561263b5761263a611fa8565b5b61264582546123aa565b61265082828561258c565b600060209050601f8311600181146126835760008415612671578287015190505b61267b85826125fd565b8655506126e3565b601f1984166126918661246d565b60005b828110156126b957848901518255600182019150602085019450602081019050612694565b868310156126d657848901516126d2601f8916826125df565b8355505b6001600288020188555050505b505050505050565b600060608201905081810360008301526127058186611dfb565b905081810360208301526127198185611dfb565b90506127286040830184611f74565b949350505050565b7f45524332303a207472616e7366657220616d6f756e742065786365656473206160008201527f6c6c6f77616e6365000000000000000000000000000000000000000000000000602082015250565b600061278c602883611daf565b915061279782612730565b604082019050919050565b600060208201905081810360008301526127bb8161277f565b9050919050565b7f4e487b7100000000000000000000000000000000000000000000000000000000600052601160045260246000fd5b60006127fc82611ec8565b915061280783611ec8565b925082820390508181111561281f5761281e6127c2565b5b92915050565b600061283082611ec8565b915061283b83611ec8565b925082820261284981611ec8565b915082820484148315176128605761285f6127c2565b5b5092915050565b7f4e487b7100000000000000000000000000000000000000000000000000000000600052601260045260246000fd5b60006128a182611ec8565b91506128ac83611ec8565b9250826128bc576128bb612867565b5b828204905092915050565b7f43616e6e6f74206d696e7420746f207a65726f20616464726573730000000000600082015250565b60006128fd601b83611daf565b9150612908826128c7565b602082019050919050565b6000602082019050818103600083015261292c816128f0565b9050919050565b7f4d696e7420616d6f756e74206d7573742062652067726561746572207468616e60008201527f207a65726f000000000000000000000000000000000000000000000000000000602082015250565b600061298f602583611daf565b915061299a82612933565b604082019050919050565b600060208201905081810360008301526129be81612982565b9050919050565b60006129d082611ec8565b91506129db83611ec8565b92508282019050808211156129f3576129f26127c2565b5b92915050565b7f496e73756666696369656e7420636f6e74726163742062616c616e6365000000600082015250565b6000612a2f601d83611daf565b9150612a3a826129f9565b602082019050919050565b60006020820190508181036000830152612a5e81612a22565b9050919050565b7f4d757374207769746864726177206174206c6561737420312063617264000000600082015250565b6000612a9b601d83611daf565b9150612aa682612a65565b602082019050919050565b60006020820190508181036000830152612aca81612a8e565b9050919050565b7f496e73756666696369656e742063617264206465706f73697473000000000000600082015250565b6000612b07601a83611daf565b9150612b1282612ad1565b602082019050919050565b60006020820190508181036000830152612b3681612afa565b9050919050565b7f496e73756666696369656e7420746f6b656e2062616c616e6365000000000000600082015250565b6000612b73601a83611daf565b9150612b7e82612b3d565b602082019050919050565b60006020820190508181036000830152612ba281612b66565b9050919050565b6000604082019050612bbe6000830185611f74565b612bcb6020830184611f74565b9392505050565b7f4d757374206465706f736974206174206c656173742031206361726400000000600082015250565b6000612c08601c83611daf565b9150612c1382612bd2565b602082019050919050565b60006020820190508181036000830152612c3781612bfb565b9050919050565b7f496e73756666696369656e74207061796d656e7420666f722063617264730000600082015250565b6000612c74601e83611daf565b9150612c7f82612c3e565b602082019050919050565b60006020820190508181036000830152612ca381612c67565b9050919050565b7f496e76616c69642057726170506f6f6c20616464726573730000000000000000600082015250565b6000612ce0601883611daf565b9150612ceb82612caa565b602082019050919050565b60006020820190508181036000830152612d0f81612cd3565b9050919050565b7f45524332303a20617070726f76652066726f6d20746865207a65726f2061646460008201527f7265737300000000000000000000000000000000000000000000000000000000602082015250565b6000612d72602483611daf565b9150612d7d82612d16565b604082019050919050565b60006020820190508181036000830152612da181612d65565b9050919050565b7f45524332303a20617070726f766520746f20746865207a65726f20616464726560008201527f7373000000000000000000000000000000000000000000000000000000000000602082015250565b6000612e04602283611daf565b9150612e0f82612da8565b604082019050919050565b60006020820190508181036000830152612e3381612df7565b9050919050565b7f45524332303a207472616e736665722066726f6d20746865207a65726f20616460008201527f6472657373000000000000000000000000000000000000000000000000000000602082015250565b6000612e96602583611daf565b9150612ea182612e3a565b604082019050919050565b60006020820190508181036000830152612ec581612e89565b9050919050565b7f45524332303a207472616e7366657220746f20746865207a65726f206164647260008201527f6573730000000000000000000000000000000000000000000000000000000000602082015250565b6000612f28602383611daf565b9150612f3382612ecc565b604082019050919050565b60006020820190508181036000830152612f5781612f1b565b9050919050565b7f45524332303a207472616e7366657220616d6f756e742065786365656473206260008201527f616c616e63650000000000000000000000000000000000000000000000000000602082015250565b6000612fba602683611daf565b9150612fc582612f5e565b604082019050919050565b60006020820190508181036000830152612fe981612fad565b905091905056fea2646970667358221220733b538e92b4c6fa0f3ba02e1496800dd49356e37f2eadde2ea5605c9d5109dd64736f6c634300081c0033",
  "linkReferences": {},
  "deployedLinkReferences": {}
}