{
  "_format": "hh-sol-artifact-1",
  "contractName": "WrapSellTest",
  "sourceName": "contracts/WrapSellTest.sol",
  "abi": [
    {
      "inputs": [
        {
          "internalType": "string",
          "name": "_name",
          "type": "string"
        },
        {
          "internalType": "string",
          "name": "_symbol",
          "type": "string"
        },
        {
          "internalType": "uint256",
          "name": "_cardId",
          "type": "uint256"
        },
        {
          "internalType": "string",
          "name": "_cardName",
          "type": "string"
        },
        {
          "internalType": "string",
          "name": "_rarity",
          "type": "string"
        },
        {
          "internalType": "address",
          "name": "_priceFeed",
          "type": "address"
        }
      ],
      "stateMutability": "nonpayable",
      "type": "constructor"
    },
    {
      "anonymous": false,
      "inputs": [
        {
          "indexed": true,
          "internalType": "address",
          "name": "owner",
          "type": "address"
        },
        {
          "indexed": true,
          "internalType": "address",
          "name": "spender",
          "type": "address"
        },
        {
          "indexed": false,
          "internalType": "uint256",
          "name": "value",
          "type": "uint256"
        }
      ],
      "name": "Approval",
      "type": "event"
    },
    {
      "anonymous": false,
      "inputs": [
        {
          "indexed": false,
          "internalType": "string",
          "name": "cardName",
          "type": "string"
        },
        {
          "indexed": false,
          "internalType": "string",
          "name": "rarity",
          "type": "string"
        }
      ],
      "name": "CardInfoUpdated",
      "type": "event"
    },
    {
      "anonymous": false,
      "inputs": [
        {
          "indexed": true,
          "internalType": "address",
          "name": "user",
          "type": "address"
        },
        {
          "indexed": false,
          "internalType": "uint256",
          "name": "cardCount",
          "type": "uint256"
        },
        {
          "indexed": false,
          "internalType": "uint256",
          "name": "tokensIssued",
          "type": "uint256"
        }
      ],
      "name": "CardsDeposited",
      "type": "event"
    },
    {
      "anonymous": false,
      "inputs": [
        {
          "indexed": true,
          "internalType": "address",
          "name": "user",
          "type": "address"
        },
        {
          "indexed": false,
          "internalType": "uint256",
          "name": "cardCount",
          "type": "uint256"
        },
        {
          "indexed": false,
          "internalType": "uint256",
          "name": "tokensBurned",
          "type": "uint256"
        }
      ],
      "name": "CardsWithdrawn",
      "type": "event"
    },
    {
      "anonymous": false,
      "inputs": [
        {
          "indexed": true,
          "internalType": "address",
          "name": "from",
          "type": "address"
        },
        {
          "indexed": true,
          "internalType": "address",
          "name": "to",
          "type": "address"
        },
        {
          "indexed": false,
          "internalType": "uint256",
          "name": "value",
          "type": "uint256"
        }
      ],
      "name": "Transfer",
      "type": "event"
    },
    {
      "inputs": [
        {
          "internalType": "address",
          "name": "owner_",
          "type": "address"
        },
        {
          "internalType": "address",
          "name": "spender",
          "type": "address"
        }
      ],
      "name": "allowance",
      "outputs": [
        {
          "internalType": "uint256",
          "name": "",
          "type": "uint256"
        }
      ],
      "stateMutability": "view",
      "type": "function"
    },
    {
      "inputs": [
        {
          "internalType": "address",
          "name": "spender",
          "type": "address"
        },
        {
          "internalType": "uint256",
          "name": "amount",
          "type": "uint256"
        }
      ],
      "name": "approve",
      "outputs": [
        {
          "internalType": "bool",
          "name": "",
          "type": "bool"
        }
      ],
      "stateMutability": "nonpayable",
      "type": "function"
    },
    {
      "inputs": [
        {
          "internalType": "address",
          "name": "account",
          "type": "address"
        }
      ],
      "name": "balanceOf",
      "outputs": [
        {
          "internalType": "uint256",
          "name": "",
          "type": "uint256"
        }
      ],
      "stateMutability": "view",
      "type": "function"
    },
    {
      "inputs": [
        {
          "internalType": "address",
          "name": "",
          "type": "address"
        }
      ],
      "name": "cardDeposits",
      "outputs": [
        {
          "internalType": "uint256",
          "name": "",
          "type": "uint256"
        }
      ],
      "stateMutability": "view",
      "type": "function"
    },
    {
      "inputs": [],
      "name": "cardId",
      "outputs": [
        {
          "internalType": "uint256",
          "name": "",
          "type": "uint256"
        }
      ],
      "stateMutability": "view",
      "type": "function"
    },
    {
      "inputs": [],
      "name": "cardName",
      "outputs": [
        {
          "internalType": "string",
          "name": "",
          "type": "string"
        }
      ],
      "stateMutability": "view",
      "type": "function"
    },
    {
      "inputs": [],
      "name": "decimals",
      "outputs": [
        {
          "internalType": "uint8",
          "name": "",
          "type": "uint8"
        }
      ],
      "stateMutability": "view",
      "type": "function"
    },
    {
      "inputs": [
        {
          "internalType": "uint256",
          "name": "cardCount",
          "type": "uint256"
        }
      ],
      "name": "depositCards",
      "outputs": [],
      "stateMutability": "payable",
      "type": "function"
    },
    {
      "inputs": [
        {
          "internalType": "uint256",
          "name": "amount",
          "type": "uint256"
        }
      ],
      "name": "emergencyWithdraw",
      "outputs": [],
      "stateMutability": "nonpayable",
      "type": "function"
    },
    {
      "inputs": [],
      "name": "getCardInfo",
      "outputs": [
        {
          "internalType": "uint256",
          "name": "_cardId",
          "type": "uint256"
        },
        {
          "internalType": "string",
          "name": "_cardName",
          "type": "string"
        },
        {
          "internalType": "string",
          "name": "_rarity",
          "type": "string"
        }
      ],
      "stateMutability": "view",
      "type": "function"
    },
    {
      "inputs": [],
      "name": "getCollateralInfo",
      "outputs": [
        {
          "internalType": "uint256",
          "name": "totalCards",
          "type": "uint256"
        },
        {
          "internalType": "uint256",
          "name": "totalValueUsd",
          "type": "uint256"
        },
        {
          "internalType": "uint256",
          "name": "tokensIssued",
          "type": "uint256"
        },
        {
          "internalType": "uint256",
          "name": "collateralizationRatio",
          "type": "uint256"
        }
      ],
      "stateMutability": "view",
      "type": "function"
    },
    {
      "inputs": [],
      "name": "getContractBalance",
      "outputs": [
        {
          "internalType": "uint256",
          "name": "",
          "type": "uint256"
        }
      ],
      "stateMutability": "view",
      "type": "function"
    },
    {
      "inputs": [],
      "name": "getLatestPrice",
      "outputs": [
        {
          "internalType": "uint256",
          "name": "",
          "type": "uint256"
        }
      ],
      "stateMutability": "view",
      "type": "function"
    },
    {
      "inputs": [],
      "name": "getTotalCollateralValue",
      "outputs": [
        {
          "internalType": "uint256",
          "name": "",
          "type": "uint256"
        }
      ],
      "stateMutability": "view",
      "type": "function"
    },
    {
      "inputs": [
        {
          "internalType": "address",
          "name": "user",
          "type": "address"
        }
      ],
      "name": "getUserCardInfo",
      "outputs": [
        {
          "internalType": "uint256",
          "name": "cardsDeposited_",
          "type": "uint256"
        },
        {
          "internalType": "uint256",
          "name": "tokenBalance",
          "type": "uint256"
        },
        {
          "internalType": "uint256",
          "name": "userCollateralValueUsd",
          "type": "uint256"
        }
      ],
      "stateMutability": "view",
      "type": "function"
    },
    {
      "inputs": [
        {
          "internalType": "address",
          "name": "to",
          "type": "address"
        },
        {
          "internalType": "uint256",
          "name": "amount",
          "type": "uint256"
        }
      ],
      "name": "mint",
      "outputs": [],
      "stateMutability": "nonpayable",
      "type": "function"
    },
    {
      "inputs": [],
      "name": "name",
      "outputs": [
        {
          "internalType": "string",
          "name": "",
          "type": "string"
        }
      ],
      "stateMutability": "view",
      "type": "function"
    },
    {
      "inputs": [],
      "name": "owner",
      "outputs": [
        {
          "internalType": "address",
          "name": "",
          "type": "address"
        }
      ],
      "stateMutability": "view",
      "type": "function"
    },
    {
      "inputs": [],
      "name": "priceFeed",
      "outputs": [
        {
          "internalType": "contract AggregatorV3Interface",
          "name": "",
          "type": "address"
        }
      ],
      "stateMutability": "view",
      "type": "function"
    },
    {
      "inputs": [],
      "name": "rarity",
      "outputs": [
        {
          "internalType": "string",
          "name": "",
          "type": "string"
        }
      ],
      "stateMutability": "view",
      "type": "function"
    },
    {
      "inputs": [
        {
          "internalType": "address",
          "name": "_wrapPool",
          "type": "address"
        }
      ],
      "name": "setWrapPool",
      "outputs": [],
      "stateMutability": "nonpayable",
      "type": "function"
    },
    {
      "inputs": [],
      "name": "symbol",
      "outputs": [
        {
          "internalType": "string",
          "name": "",
          "type": "string"
        }
      ],
      "stateMutability": "view",
      "type": "function"
    },
    {
      "inputs": [],
      "name": "totalCardsDeposited",
      "outputs": [
        {
          "internalType": "uint256",
          "name": "",
          "type": "uint256"
        }
      ],
      "stateMutability": "view",
      "type": "function"
    },
    {
      "inputs": [],
      "name": "totalSupply",
      "outputs": [
        {
          "internalType": "uint256",
          "name": "",
          "type": "uint256"
        }
      ],
      "stateMutability": "view",
      "type": "function"
    },
    {
      "inputs": [],
      "name": "totalTokensIssued",
      "outputs": [
        {
          "internalType": "uint256",
          "name": "",
          "type": "uint256"
        }
      ],
      "stateMutability": "view",
      "type": "function"
    },
    {
      "inputs": [
        {
          "internalType": "address",
          "name": "to",
          "type": "address"
        },
        {
          "internalType": "uint256",
          "name": "amount",
          "type": "uint256"
        }
      ],
      "name": "transfer",
      "outputs": [
        {
          "internalType": "bool",
          "name": "",
          "type": "bool"
        }
      ],
      "stateMutability": "nonpayable",
      "type": "function"
    },
    {
      "inputs": [
        {
          "internalType": "address",
          "name": "from",
          "type": "address"
        },
        {
          "internalType": "address",
          "name": "to",
          "type": "address"
        },
        {
          "internalType": "uint256",
          "name": "amount",
          "type": "uint256"
        }
      ],
      "name": "transferFrom",
      "outputs": [
        {
          "internalType": "bool",
          "name": "",
          "type": "bool"
        }
      ],
      "stateMutability": "nonpayable",
      "type": "function"
    },
    {
      "inputs": [
        {
          "internalType": "string",
          "name": "_cardName",
          "type": "string"
        },
        {
          "internalType": "string",
          "name": "_rarity",
          "type": "string"
        }
      ],
      "name": "updateCardInfo",
      "outputs": [],
      "stateMutability": "nonpayable",
      "type": "function"
    },
    {
      "inputs": [
        {
          "internalType": "uint256",
          "name": "cardCount",
          "type": "uint256"
        }
      ],
      "name": "withdrawCards",
      "outputs": [],
      "stateMutability": "nonpayable",
      "type": "function"
    },
    {
      "inputs": [],
      "name": "wrapPool",
      "outputs": [
        {
          "internalType": "address",
          "name": "",
          "type": "address"
        }
      ],
      "stateMutability": "view",
      "type": "function"
    }
  ],
  "bytecode": "0x608060405234801561001057600080fd5b50604051613b0a380380613b0a83398181016040528101906100329190610360565b85600090816100419190610674565b5084600190816100519190610674565b508360038190555082600490816100689190610674565b5081600590816100789190610674565b5033600660006101000a81548173ffffffffffffffffffffffffffffffffffffffff021916908373ffffffffffffffffffffffffffffffffffffffff16021790555033600760006101000a81548173ffffffffffffffffffffffffffffffffffffffff021916908373ffffffffffffffffffffffffffffffffffffffff16021790555080600d60006101000a81548173ffffffffffffffffffffffffffffffffffffffff021916908373ffffffffffffffffffffffffffffffffffffffff1602179055506000600b819055506000600c81905550505050505050610746565b6000604051905090565b600080fd5b600080fd5b600080fd5b600080fd5b6000601f19601f8301169050919050565b7f4e487b7100000000000000000000000000000000000000000000000000000000600052604160045260246000fd5b6101be82610175565b810181811067ffffffffffffffff821117156101dd576101dc610186565b5b80604052505050565b60006101f0610157565b90506101fc82826101b5565b919050565b600067ffffffffffffffff82111561021c5761021b610186565b5b61022582610175565b9050602081019050919050565b60005b83811015610250578082015181840152602081019050610235565b60008484015250505050565b600061026f61026a84610201565b6101e6565b90508281526020810184848401111561028b5761028a610170565b5b610296848285610232565b509392505050565b600082601f8301126102b3576102b261016b565b5b81516102c384826020860161025c565b91505092915050565b6000819050919050565b6102df816102cc565b81146102ea57600080fd5b50565b6000815190506102fc816102d6565b92915050565b600073ffffffffffffffffffffffffffffffffffffffff82169050919050565b600061032d82610302565b9050919050565b61033d81610322565b811461034857600080fd5b50565b60008151905061035a81610334565b92915050565b60008060008060008060c0878903121561037d5761037c610161565b5b600087015167ffffffffffffffff81111561039b5761039a610166565b5b6103a789828a0161029e565b965050602087015167ffffffffffffffff8111156103c8576103c7610166565b5b6103d489828a0161029e565b95505060406103e589828a016102ed565b945050606087015167ffffffffffffffff81111561040657610405610166565b5b61041289828a0161029e565b935050608087015167ffffffffffffffff81111561043357610432610166565b5b61043f89828a0161029e565b92505060a061045089828a0161034b565b9150509295509295509295565b600081519050919050565b7f4e487b7100000000000000000000000000000000000000000000000000000000600052602260045260246000fd5b600060028204905060018216806104af57607f821691505b6020821081036104c2576104c1610468565b5b50919050565b60008190508160005260206000209050919050565b60006020601f8301049050919050565b600082821b905092915050565b60006008830261052a7fffffffffffffffffffffffffffffffffffffffffffffffffffffffffffffffff826104ed565b61053486836104ed565b95508019841693508086168417925050509392505050565b6000819050919050565b600061057161056c610567846102cc565b61054c565b6102cc565b9050919050565b6000819050919050565b61058b83610556565b61059f61059782610578565b8484546104fa565b825550505050565b600090565b6105b46105a7565b6105bf818484610582565b505050565b5b818110156105e3576105d86000826105ac565b6001810190506105c5565b5050565b601f821115610628576105f9816104c8565b610602846104dd565b81016020851015610611578190505b61062561061d856104dd565b8301826105c4565b50505b505050565b600082821c905092915050565b600061064b6000198460080261062d565b1980831691505092915050565b6000610664838361063a565b9150826002028217905092915050565b61067d8261045d565b67ffffffffffffffff81111561069657610695610186565b5b6106a08254610497565b6106ab8282856105e7565b600060209050601f8311600181146106de57600084156106cc578287015190505b6106d68582610658565b86555061073e565b601f1984166106ec866104c8565b60005b82811015610714578489015182556001820191506020850194506020810190506106ef565b86831015610731578489015161072d601f89168261063a565b8355505b6001600288020188555050505b505050505050565b6133b5806107556000396000f3fe6080604052600436106101cd5760003560e01c80639156a003116100f7578063ccde54e611610095578063dd62ed3e11610064578063dd62ed3e14610688578063ed6493af146106c5578063fd907116146106f0578063fef21f0f1461071d576101cd565b8063ccde54e6146105b8578063cdf32d88146105e3578063d883f72114610620578063da7309b31461065f576101cd565b806399f7e5a4116100d157806399f7e5a414610509578063a9059cbb14610525578063b44a844314610562578063bda540c11461058d576101cd565b80639156a0031461048857806395d89b41146104b357806399a9b29c146104de576101cd565b80635312ea8e1161016f57806370a082311161013e57806370a08231146103ca578063741bef1a146104075780638da5cb5b146104325780638e15f4731461045d576101cd565b80635312ea8e146103245780636387e7421461034d5780636b2f9dea146103765780636f9fb98a1461039f576101cd565b806323b872dd116101ab57806323b872dd146102655780632e0bcb43146102a2578063313ce567146102d057806340c10f19146102fb576101cd565b806306fdde03146101d2578063095ea7b3146101fd57806318160ddd1461023a575b600080fd5b3480156101de57600080fd5b506101e7610748565b6040516101f4919061200e565b60405180910390f35b34801561020957600080fd5b50610224600480360381019061021f91906120d8565b6107d6565b6040516102319190612133565b60405180910390f35b34801561024657600080fd5b5061024f6107ed565b60405161025c919061215d565b60405180910390f35b34801561027157600080fd5b5061028c60048036038101906102879190612178565b6107f3565b6040516102999190612133565b60405180910390f35b3480156102ae57600080fd5b506102b76108e5565b6040516102c794939291906121cb565b60405180910390f35b3480156102dc57600080fd5b506102e5610949565b6040516102f2919061222c565b60405180910390f35b34801561030757600080fd5b50610322600480360381019061031d91906120d8565b61094e565b005b34801561033057600080fd5b5061034b60048036038101906103469190612247565b610b69565b005b34801561035957600080fd5b50610374600480360381019061036f9190612247565b610ca8565b005b34801561038257600080fd5b5061039d600480360381019061039891906123a9565b611056565b005b3480156103ab57600080fd5b506103b4611143565b6040516103c1919061215d565b60405180910390f35b3480156103d657600080fd5b506103f160048036038101906103ec9190612421565b61114b565b6040516103fe919061215d565b60405180910390f35b34801561041357600080fd5b5061041c611194565b60405161042991906124ad565b60405180910390f35b34801561043e57600080fd5b506104476111ba565b60405161045491906124d7565b60405180910390f35b34801561046957600080fd5b506104726111e0565b60405161047f919061215d565b60405180910390f35b34801561049457600080fd5b5061049d6112c4565b6040516104aa919061215d565b60405180910390f35b3480156104bf57600080fd5b506104c86112ca565b6040516104d5919061200e565b60405180910390f35b3480156104ea57600080fd5b506104f3611358565b604051610500919061215d565b60405180910390f35b610523600480360381019061051e9190612247565b61135e565b005b34801561053157600080fd5b5061054c600480360381019061054791906120d8565b611604565b6040516105599190612133565b60405180910390f35b34801561056e57600080fd5b5061057761161b565b60405161058491906124d7565b60405180910390f35b34801561059957600080fd5b506105a2611641565b6040516105af919061215d565b60405180910390f35b3480156105c457600080fd5b506105cd611647565b6040516105da919061200e565b60405180910390f35b3480156105ef57600080fd5b5061060a60048036038101906106059190612421565b6116d5565b604051610617919061215d565b60405180910390f35b34801561062c57600080fd5b5061064760048036038101906106429190612421565b6116ed565b604051610656939291906124f2565b60405180910390f35b34801561066b57600080fd5b5061068660048036038101906106819190612421565b611797565b005b34801561069457600080fd5b506106af60048036038101906106aa9190612529565b6118da565b6040516106bc919061215d565b60405180910390f35b3480156106d157600080fd5b506106da611961565b6040516106e7919061215d565b60405180910390f35b3480156106fc57600080fd5b50610705611982565b60405161071493929190612569565b60405180910390f35b34801561072957600080fd5b50610732611ab1565b60405161073f919061200e565b60405180910390f35b60008054610755906125dd565b80601f0160208091040260200160405190810160405280929190818152602001828054610781906125dd565b80156107ce5780601f106107a3576101008083540402835291602001916107ce565b820191906000526020600020905b8154815290600101906020018083116107b157829003601f168201915b505050505081565b60006107e3338484611b3f565b6001905092915050565b60025481565b600080600960008673ffffffffffffffffffffffffffffffffffffffff1673ffffffffffffffffffffffffffffffffffffffff16815260200190815260200160002060003373ffffffffffffffffffffffffffffffffffffffff1673ffffffffffffffffffffffffffffffffffffffff168152602001908152602001600020549050828110156108b8576040517f08c379a00000000000000000000000000000000000000000000000000000000081526004016108af90612680565b60405180910390fd5b6108c3858585611d08565b6108d9853385846108d491906126cf565b611b3f565b60019150509392505050565b60008060008060006108f56111e0565b9050600b54945080600b5461090a9190612703565b9350600c5492506000600c54111561093d57600c5460648561092c9190612703565b6109369190612774565b9150610942565b600091505b5090919293565b601281565b600660009054906101000a900473ffffffffffffffffffffffffffffffffffffffff1673ffffffffffffffffffffffffffffffffffffffff163373ffffffffffffffffffffffffffffffffffffffff16146109de576040517f08c379a00000000000000000000000000000000000000000000000000000000081526004016109d590612817565b60405180910390fd5b600073ffffffffffffffffffffffffffffffffffffffff168273ffffffffffffffffffffffffffffffffffffffff1603610a4d576040517f08c379a0000000000000000000000000000000000000000000000000000000008152600401610a4490612883565b60405180910390fd5b60008111610a90576040517f08c379a0000000000000000000000000000000000000000000000000000000008152600401610a8790612915565b60405180910390fd5b8060026000828254610aa29190612935565b9250508190555080600860008473ffffffffffffffffffffffffffffffffffffffff1673ffffffffffffffffffffffffffffffffffffffff1681526020019081526020016000206000828254610af89190612935565b925050819055508173ffffffffffffffffffffffffffffffffffffffff16600073ffffffffffffffffffffffffffffffffffffffff167fddf252ad1be2c89b69c2b068fc378daa952ba7f163c4a11628f55a4df523b3ef83604051610b5d919061215d565b60405180910390a35050565b600660009054906101000a900473ffffffffffffffffffffffffffffffffffffffff1673ffffffffffffffffffffffffffffffffffffffff163373ffffffffffffffffffffffffffffffffffffffff1614610bf9576040517f08c379a0000000000000000000000000000000000000000000000000000000008152600401610bf090612817565b60405180910390fd5b47811115610c3c576040517f08c379a0000000000000000000000000000000000000000000000000000000008152600401610c33906129b5565b60405180910390fd5b600660009054906101000a900473ffffffffffffffffffffffffffffffffffffffff1673ffffffffffffffffffffffffffffffffffffffff166108fc829081150290604051600060405180830381858888f19350505050158015610ca4573d6000803e3d6000fd5b5050565b60008111610ceb576040517f08c379a0000000000000000000000000000000000000000000000000000000008152600401610ce290612a21565b60405180910390fd5b80600a60003373ffffffffffffffffffffffffffffffffffffffff1673ffffffffffffffffffffffffffffffffffffffff168152602001908152602001600020541015610d6d576040517f08c379a0000000000000000000000000000000000000000000000000000000008152600401610d6490612a8d565b60405180910390fd5b6000610d776111e0565b905060006402540be4008284610d8d9190612703565b610d979190612703565b905080600860003373ffffffffffffffffffffffffffffffffffffffff1673ffffffffffffffffffffffffffffffffffffffff168152602001908152602001600020541015610e1b576040517f08c379a0000000000000000000000000000000000000000000000000000000008152600401610e1290612af9565b60405180910390fd5b8060026000828254610e2d91906126cf565b9250508190555080600860003373ffffffffffffffffffffffffffffffffffffffff1673ffffffffffffffffffffffffffffffffffffffff1681526020019081526020016000206000828254610e8391906126cf565b9250508190555082600a60003373ffffffffffffffffffffffffffffffffffffffff1673ffffffffffffffffffffffffffffffffffffffff1681526020019081526020016000206000828254610ed991906126cf565b9250508190555082600b6000828254610ef291906126cf565b9250508190555080600c6000828254610f0b91906126cf565b925050819055506000610f1c6111e0565b905060008385610f2c9190612703565b9050600082670de0b6b3a764000083610f459190612703565b610f4f9190612774565b90503373ffffffffffffffffffffffffffffffffffffffff166108fc829081150290604051600060405180830381858888f19350505050158015610f97573d6000803e3d6000fd5b50600073ffffffffffffffffffffffffffffffffffffffff163373ffffffffffffffffffffffffffffffffffffffff167fddf252ad1be2c89b69c2b068fc378daa952ba7f163c4a11628f55a4df523b3ef86604051610ff6919061215d565b60405180910390a33373ffffffffffffffffffffffffffffffffffffffff167f066fdf6f9e08d9f7f4f19a0d6a14944cca979b9cb7d579014687e851e097ea6b8786604051611046929190612b19565b60405180910390a2505050505050565b600660009054906101000a900473ffffffffffffffffffffffffffffffffffffffff1673ffffffffffffffffffffffffffffffffffffffff163373ffffffffffffffffffffffffffffffffffffffff16146110e6576040517f08c379a00000000000000000000000000000000000000000000000000000000081526004016110dd90612817565b60405180910390fd5b81600490816110f59190612ce4565b5080600590816111059190612ce4565b507fe4d0ecd2f79d0aeff192f8cea28d77c6468db3e5ca6d10442440a69a1a8756738282604051611137929190612db6565b60405180910390a15050565b600047905090565b6000600860008373ffffffffffffffffffffffffffffffffffffffff1673ffffffffffffffffffffffffffffffffffffffff168152602001908152602001600020549050919050565b600d60009054906101000a900473ffffffffffffffffffffffffffffffffffffffff1681565b600660009054906101000a900473ffffffffffffffffffffffffffffffffffffffff1681565b600080600d60009054906101000a900473ffffffffffffffffffffffffffffffffffffffff1673ffffffffffffffffffffffffffffffffffffffff1663feaf968c6040518163ffffffff1660e01b815260040160a060405180830381865afa158015611250573d6000803e3d6000fd5b505050506040513d601f19601f820116820180604052508101906112749190612e7a565b505050915050600081136112bd576040517f08c379a00000000000000000000000000000000000000000000000000000000081526004016112b490612f41565b60405180910390fd5b8091505090565b600c5481565b600180546112d7906125dd565b80601f0160208091040260200160405190810160405280929190818152602001828054611303906125dd565b80156113505780601f1061132557610100808354040283529160200191611350565b820191906000526020600020905b81548152906001019060200180831161133357829003601f168201915b505050505081565b60035481565b600081116113a1576040517f08c379a000000000000000000000000000000000000000000000000000000000815260040161139890612fad565b60405180910390fd5b60006113ab6111e0565b9050600081836113bb9190612703565b905060006113c76111e0565b9050600081670de0b6b3a7640000846113e09190612703565b6113ea9190612774565b90508034101561142f576040517f08c379a000000000000000000000000000000000000000000000000000000000815260040161142690613019565b60405180910390fd5b60006402540be40085876114439190612703565b61144d9190612703565b905085600a60003373ffffffffffffffffffffffffffffffffffffffff1673ffffffffffffffffffffffffffffffffffffffff168152602001908152602001600020600082825461149e9190612935565b9250508190555085600b60008282546114b79190612935565b9250508190555080600c60008282546114d09190612935565b9250508190555080600260008282546114e99190612935565b9250508190555080600860003373ffffffffffffffffffffffffffffffffffffffff1673ffffffffffffffffffffffffffffffffffffffff168152602001908152602001600020600082825461153f9190612935565b925050819055503373ffffffffffffffffffffffffffffffffffffffff16600073ffffffffffffffffffffffffffffffffffffffff167fddf252ad1be2c89b69c2b068fc378daa952ba7f163c4a11628f55a4df523b3ef836040516115a4919061215d565b60405180910390a33373ffffffffffffffffffffffffffffffffffffffff167fa0d6926f7ae6a79e5246a882f4a43ae00a309979a5861b0afe34228cbe8a17a787836040516115f4929190612b19565b60405180910390a2505050505050565b6000611611338484611d08565b6001905092915050565b600760009054906101000a900473ffffffffffffffffffffffffffffffffffffffff1681565b600b5481565b60048054611654906125dd565b80601f0160208091040260200160405190810160405280929190818152602001828054611680906125dd565b80156116cd5780601f106116a2576101008083540402835291602001916116cd565b820191906000526020600020905b8154815290600101906020018083116116b057829003601f168201915b505050505081565b600a6020528060005260406000206000915090505481565b6000806000806116fb6111e0565b9050600a60008673ffffffffffffffffffffffffffffffffffffffff1673ffffffffffffffffffffffffffffffffffffffff168152602001908152602001600020549350600860008673ffffffffffffffffffffffffffffffffffffffff1673ffffffffffffffffffffffffffffffffffffffff168152602001908152602001600020549250808461178d9190612703565b9150509193909250565b600660009054906101000a900473ffffffffffffffffffffffffffffffffffffffff1673ffffffffffffffffffffffffffffffffffffffff163373ffffffffffffffffffffffffffffffffffffffff1614611827576040517f08c379a000000000000000000000000000000000000000000000000000000000815260040161181e90612817565b60405180910390fd5b600073ffffffffffffffffffffffffffffffffffffffff168173ffffffffffffffffffffffffffffffffffffffff1603611896576040517f08c379a000000000000000000000000000000000000000000000000000000000815260040161188d90613085565b60405180910390fd5b80600760006101000a81548173ffffffffffffffffffffffffffffffffffffffff021916908373ffffffffffffffffffffffffffffffffffffffff16021790555050565b6000600960008473ffffffffffffffffffffffffffffffffffffffff1673ffffffffffffffffffffffffffffffffffffffff16815260200190815260200160002060008373ffffffffffffffffffffffffffffffffffffffff1673ffffffffffffffffffffffffffffffffffffffff16815260200190815260200160002054905092915050565b60008061196c6111e0565b905080600b5461197c9190612703565b91505090565b60006060806003546004600581805461199a906125dd565b80601f01602080910402602001604051908101604052809291908181526020018280546119c6906125dd565b8015611a135780601f106119e857610100808354040283529160200191611a13565b820191906000526020600020905b8154815290600101906020018083116119f657829003601f168201915b50505050509150808054611a26906125dd565b80601f0160208091040260200160405190810160405280929190818152602001828054611a52906125dd565b8015611a9f5780601f10611a7457610100808354040283529160200191611a9f565b820191906000526020600020905b815481529060010190602001808311611a8257829003601f168201915b50505050509050925092509250909192565b60058054611abe906125dd565b80601f0160208091040260200160405190810160405280929190818152602001828054611aea906125dd565b8015611b375780601f10611b0c57610100808354040283529160200191611b37565b820191906000526020600020905b815481529060010190602001808311611b1a57829003601f168201915b505050505081565b600073ffffffffffffffffffffffffffffffffffffffff168373ffffffffffffffffffffffffffffffffffffffff1603611bae576040517f08c379a0000000000000000000000000000000000000000000000000000000008152600401611ba590613117565b60405180910390fd5b600073ffffffffffffffffffffffffffffffffffffffff168273ffffffffffffffffffffffffffffffffffffffff1603611c1d576040517f08c379a0000000000000000000000000000000000000000000000000000000008152600401611c14906131a9565b60405180910390fd5b80600960008573ffffffffffffffffffffffffffffffffffffffff1673ffffffffffffffffffffffffffffffffffffffff16815260200190815260200160002060008473ffffffffffffffffffffffffffffffffffffffff1673ffffffffffffffffffffffffffffffffffffffff168152602001908152602001600020819055508173ffffffffffffffffffffffffffffffffffffffff168373ffffffffffffffffffffffffffffffffffffffff167f8c5be1e5ebec7d5bd14f71427d1e84f3dd0314c0f7b2291e5b200ac8c7c3b92583604051611cfb919061215d565b60405180910390a3505050565b600073ffffffffffffffffffffffffffffffffffffffff168373ffffffffffffffffffffffffffffffffffffffff1603611d77576040517f08c379a0000000000000000000000000000000000000000000000000000000008152600401611d6e9061323b565b60405180910390fd5b600073ffffffffffffffffffffffffffffffffffffffff168273ffffffffffffffffffffffffffffffffffffffff1603611de6576040517f08c379a0000000000000000000000000000000000000000000000000000000008152600401611ddd906132cd565b60405180910390fd5b80600860008573ffffffffffffffffffffffffffffffffffffffff1673ffffffffffffffffffffffffffffffffffffffff168152602001908152602001600020541015611e68576040517f08c379a0000000000000000000000000000000000000000000000000000000008152600401611e5f9061335f565b60405180910390fd5b80600860008573ffffffffffffffffffffffffffffffffffffffff1673ffffffffffffffffffffffffffffffffffffffff1681526020019081526020016000206000828254611eb791906126cf565b9250508190555080600860008473ffffffffffffffffffffffffffffffffffffffff1673ffffffffffffffffffffffffffffffffffffffff1681526020019081526020016000206000828254611f0d9190612935565b925050819055508173ffffffffffffffffffffffffffffffffffffffff168373ffffffffffffffffffffffffffffffffffffffff167fddf252ad1be2c89b69c2b068fc378daa952ba7f163c4a11628f55a4df523b3ef83604051611f71919061215d565b60405180910390a3505050565b600081519050919050565b600082825260208201905092915050565b60005b83811015611fb8578082015181840152602081019050611f9d565b60008484015250505050565b6000601f19601f8301169050919050565b6000611fe082611f7e565b611fea8185611f89565b9350611ffa818560208601611f9a565b61200381611fc4565b840191505092915050565b600060208201905081810360008301526120288184611fd5565b905092915050565b6000604051905090565b600080fd5b600080fd5b600073ffffffffffffffffffffffffffffffffffffffff82169050919050565b600061206f82612044565b9050919050565b61207f81612064565b811461208a57600080fd5b50565b60008135905061209c81612076565b92915050565b6000819050919050565b6120b5816120a2565b81146120c057600080fd5b50565b6000813590506120d2816120ac565b92915050565b600080604083850312156120ef576120ee61203a565b5b60006120fd8582860161208d565b925050602061210e858286016120c3565b9150509250929050565b60008115159050919050565b61212d81612118565b82525050565b60006020820190506121486000830184612124565b92915050565b612157816120a2565b82525050565b6000602082019050612172600083018461214e565b92915050565b6000806000606084860312156121915761219061203a565b5b600061219f8682870161208d565b93505060206121b08682870161208d565b92505060406121c1868287016120c3565b9150509250925092565b60006080820190506121e0600083018761214e565b6121ed602083018661214e565b6121fa604083018561214e565b612207606083018461214e565b95945050505050565b600060ff82169050919050565b61222681612210565b82525050565b6000602082019050612241600083018461221d565b92915050565b60006020828403121561225d5761225c61203a565b5b600061226b848285016120c3565b91505092915050565b600080fd5b600080fd5b7f4e487b7100000000000000000000000000000000000000000000000000000000600052604160045260246000fd5b6122b682611fc4565b810181811067ffffffffffffffff821117156122d5576122d461227e565b5b80604052505050565b60006122e8612030565b90506122f482826122ad565b919050565b600067ffffffffffffffff8211156123145761231361227e565b5b61231d82611fc4565b9050602081019050919050565b82818337600083830152505050565b600061234c612347846122f9565b6122de565b90508281526020810184848401111561236857612367612279565b5b61237384828561232a565b509392505050565b600082601f8301126123905761238f612274565b5b81356123a0848260208601612339565b91505092915050565b600080604083850312156123c0576123bf61203a565b5b600083013567ffffffffffffffff8111156123de576123dd61203f565b5b6123ea8582860161237b565b925050602083013567ffffffffffffffff81111561240b5761240a61203f565b5b6124178582860161237b565b9150509250929050565b6000602082840312156124375761243661203a565b5b60006124458482850161208d565b91505092915050565b6000819050919050565b600061247361246e61246984612044565b61244e565b612044565b9050919050565b600061248582612458565b9050919050565b60006124978261247a565b9050919050565b6124a78161248c565b82525050565b60006020820190506124c2600083018461249e565b92915050565b6124d181612064565b82525050565b60006020820190506124ec60008301846124c8565b92915050565b6000606082019050612507600083018661214e565b612514602083018561214e565b612521604083018461214e565b949350505050565b600080604083850312156125405761253f61203a565b5b600061254e8582860161208d565b925050602061255f8582860161208d565b9150509250929050565b600060608201905061257e600083018661214e565b81810360208301526125908185611fd5565b905081810360408301526125a48184611fd5565b9050949350505050565b7f4e487b7100000000000000000000000000000000000000000000000000000000600052602260045260246000fd5b600060028204905060018216806125f557607f821691505b602082108103612608576126076125ae565b5b50919050565b7f45524332303a207472616e7366657220616d6f756e742065786365656473206160008201527f6c6c6f77616e6365000000000000000000000000000000000000000000000000602082015250565b600061266a602883611f89565b91506126758261260e565b604082019050919050565b600060208201905081810360008301526126998161265d565b9050919050565b7f4e487b7100000000000000000000000000000000000000000000000000000000600052601160045260246000fd5b60006126da826120a2565b91506126e5836120a2565b92508282039050818111156126fd576126fc6126a0565b5b92915050565b600061270e826120a2565b9150612719836120a2565b9250828202612727816120a2565b9150828204841483151761273e5761273d6126a0565b5b5092915050565b7f4e487b7100000000000000000000000000000000000000000000000000000000600052601260045260246000fd5b600061277f826120a2565b915061278a836120a2565b92508261279a57612799612745565b5b828204905092915050565b7f4f6e6c79206f776e65722063616e2063616c6c20746869732066756e6374696f60008201527f6e00000000000000000000000000000000000000000000000000000000000000602082015250565b6000612801602183611f89565b915061280c826127a5565b604082019050919050565b60006020820190508181036000830152612830816127f4565b9050919050565b7f43616e6e6f74206d696e7420746f207a65726f20616464726573730000000000600082015250565b600061286d601b83611f89565b915061287882612837565b602082019050919050565b6000602082019050818103600083015261289c81612860565b9050919050565b7f4d696e7420616d6f756e74206d7573742062652067726561746572207468616e60008201527f207a65726f000000000000000000000000000000000000000000000000000000602082015250565b60006128ff602583611f89565b915061290a826128a3565b604082019050919050565b6000602082019050818103600083015261292e816128f2565b9050919050565b6000612940826120a2565b915061294b836120a2565b9250828201905080821115612963576129626126a0565b5b92915050565b7f496e73756666696369656e7420636f6e74726163742062616c616e6365000000600082015250565b600061299f601d83611f89565b91506129aa82612969565b602082019050919050565b600060208201905081810360008301526129ce81612992565b9050919050565b7f4d757374207769746864726177206174206c6561737420312063617264000000600082015250565b6000612a0b601d83611f89565b9150612a16826129d5565b602082019050919050565b60006020820190508181036000830152612a3a816129fe565b9050919050565b7f496e73756666696369656e742063617264206465706f73697473000000000000600082015250565b6000612a77601a83611f89565b9150612a8282612a41565b602082019050919050565b60006020820190508181036000830152612aa681612a6a565b9050919050565b7f496e73756666696369656e7420746f6b656e2062616c616e6365000000000000600082015250565b6000612ae3601a83611f89565b9150612aee82612aad565b602082019050919050565b60006020820190508181036000830152612b1281612ad6565b9050919050565b6000604082019050612b2e600083018561214e565b612b3b602083018461214e565b9392505050565b60008190508160005260206000209050919050565b60006020601f8301049050919050565b600082821b905092915050565b600060088302612ba47fffffffffffffffffffffffffffffffffffffffffffffffffffffffffffffffff82612b67565b612bae8683612b67565b95508019841693508086168417925050509392505050565b6000612be1612bdc612bd7846120a2565b61244e565b6120a2565b9050919050565b6000819050919050565b612bfb83612bc6565b612c0f612c0782612be8565b848454612b74565b825550505050565b600090565b612c24612c17565b612c2f818484612bf2565b505050565b5b81811015612c5357612c48600082612c1c565b600181019050612c35565b5050565b601f821115612c9857612c6981612b42565b612c7284612b57565b81016020851015612c81578190505b612c95612c8d85612b57565b830182612c34565b50505b505050565b600082821c905092915050565b6000612cbb60001984600802612c9d565b1980831691505092915050565b6000612cd48383612caa565b9150826002028217905092915050565b612ced82611f7e565b67ffffffffffffffff811115612d0657612d0561227e565b5b612d1082546125dd565b612d1b828285612c57565b600060209050601f831160018114612d4e5760008415612d3c578287015190505b612d468582612cc8565b865550612dae565b601f198416612d5c86612b42565b60005b82811015612d8457848901518255600182019150602085019450602081019050612d5f565b86831015612da15784890151612d9d601f891682612caa565b8355505b6001600288020188555050505b505050505050565b60006040820190508181036000830152612dd08185611fd5565b90508181036020830152612de48184611fd5565b90509392505050565b600069ffffffffffffffffffff82169050919050565b612e0c81612ded565b8114612e1757600080fd5b50565b600081519050612e2981612e03565b92915050565b6000819050919050565b612e4281612e2f565b8114612e4d57600080fd5b50565b600081519050612e5f81612e39565b92915050565b600081519050612e74816120ac565b92915050565b600080600080600060a08688031215612e9657612e9561203a565b5b6000612ea488828901612e1a565b9550506020612eb588828901612e50565b9450506040612ec688828901612e65565b9350506060612ed788828901612e65565b9250506080612ee888828901612e1a565b9150509295509295909350565b7f496e76616c696420707269636500000000000000000000000000000000000000600082015250565b6000612f2b600d83611f89565b9150612f3682612ef5565b602082019050919050565b60006020820190508181036000830152612f5a81612f1e565b9050919050565b7f4d757374206465706f736974206174206c656173742031206361726400000000600082015250565b6000612f97601c83611f89565b9150612fa282612f61565b602082019050919050565b60006020820190508181036000830152612fc681612f8a565b9050919050565b7f496e73756666696369656e74204554482073656e740000000000000000000000600082015250565b6000613003601583611f89565b915061300e82612fcd565b602082019050919050565b6000602082019050818103600083015261303281612ff6565b9050919050565b7f496e76616c69642057726170506f6f6c20616464726573730000000000000000600082015250565b600061306f601883611f89565b915061307a82613039565b602082019050919050565b6000602082019050818103600083015261309e81613062565b9050919050565b7f45524332303a20617070726f76652066726f6d20746865207a65726f2061646460008201527f7265737300000000000000000000000000000000000000000000000000000000602082015250565b6000613101602483611f89565b915061310c826130a5565b604082019050919050565b60006020820190508181036000830152613130816130f4565b9050919050565b7f45524332303a20617070726f766520746f20746865207a65726f20616464726560008201527f7373000000000000000000000000000000000000000000000000000000000000602082015250565b6000613193602283611f89565b915061319e82613137565b604082019050919050565b600060208201905081810360008301526131c281613186565b9050919050565b7f45524332303a207472616e736665722066726f6d20746865207a65726f20616460008201527f6472657373000000000000000000000000000000000000000000000000000000602082015250565b6000613225602583611f89565b9150613230826131c9565b604082019050919050565b6000602082019050818103600083015261325481613218565b9050919050565b7f45524332303a207472616e7366657220746f20746865207a65726f206164647260008201527f6573730000000000000000000000000000000000000000000000000000000000602082015250565b60006132b7602383611f89565b91506132c28261325b565b604082019050919050565b600060208201905081810360008301526132e6816132aa565b9050919050565b7f45524332303a207472616e7366657220616d6f756e742065786365656473206260008201527f616c616e63650000000000000000000000000000000000000000000000000000602082015250565b6000613349602683611f89565b9150613354826132ed565b604082019050919050565b600060208201905081810360008301526133788161333c565b905091905056fea2646970667358221220249987445cb83fd0298951f82b023c143496703ed8b8d72107fd347e075377cf64736f6c634300081c0033",
  "linkReferences": {},
  "deployedLinkReferences": {}
}