{
  "_format": "hh-sol-artifact-1",
  "contractName": "WrapPool",
  "sourceName": "contracts/WrapPool.sol",
  "abi": [
    {
      "inputs": [
        {
          "internalType": "string",
          "name": "name",
          "type": "string"
        },
        {
          "internalType": "string",
          "name": "symbol",
          "type": "string"
        }
      ],
      "stateMutability": "nonpayable",
      "type": "constructor"
    },
    {
      "inputs": [
        {
          "internalType": "address",
          "name": "spender",
          "type": "address"
        },
        {
          "internalType": "uint256",
          "name": "allowance",
          "type": "uint256"
        },
        {
          "internalType": "uint256",
          "name": "needed",
          "type": "uint256"
        }
      ],
      "name": "ERC20InsufficientAllowance",
      "type": "error"
    },
    {
      "inputs": [
        {
          "internalType": "address",
          "name": "sender",
          "type": "address"
        },
        {
          "internalType": "uint256",
          "name": "balance",
          "type": "uint256"
        },
        {
          "internalType": "uint256",
          "name": "needed",
          "type": "uint256"
        }
      ],
      "name": "ERC20InsufficientBalance",
      "type": "error"
    },
    {
      "inputs": [
        {
          "internalType": "address",
          "name": "approver",
          "type": "address"
        }
      ],
      "name": "ERC20InvalidApprover",
      "type": "error"
    },
    {
      "inputs": [
        {
          "internalType": "address",
          "name": "receiver",
          "type": "address"
        }
      ],
      "name": "ERC20InvalidReceiver",
      "type": "error"
    },
    {
      "inputs": [
        {
          "internalType": "address",
          "name": "sender",
          "type": "address"
        }
      ],
      "name": "ERC20InvalidSender",
      "type": "error"
    },
    {
      "inputs": [
        {
          "internalType": "address",
          "name": "spender",
          "type": "address"
        }
      ],
      "name": "ERC20InvalidSpender",
      "type": "error"
    },
    {
      "inputs": [
        {
          "internalType": "address",
          "name": "owner",
          "type": "address"
        }
      ],
      "name": "OwnableInvalidOwner",
      "type": "error"
    },
    {
      "inputs": [
        {
          "internalType": "address",
          "name": "account",
          "type": "address"
        }
      ],
      "name": "OwnableUnauthorizedAccount",
      "type": "error"
    },
    {
      "anonymous": false,
      "inputs": [
        {
          "indexed": true,
          "internalType": "address",
          "name": "owner",
          "type": "address"
        },
        {
          "indexed": true,
          "internalType": "address",
          "name": "spender",
          "type": "address"
        },
        {
          "indexed": false,
          "internalType": "uint256",
          "name": "value",
          "type": "uint256"
        }
      ],
      "name": "Approval",
      "type": "event"
    },
    {
      "anonymous": false,
      "inputs": [
        {
          "indexed": false,
          "internalType": "uint256",
          "name": "newRatio",
          "type": "uint256"
        }
      ],
      "name": "CollateralizationRatioUpdated",
      "type": "event"
    },
    {
      "anonymous": false,
      "inputs": [
        {
          "indexed": true,
          "internalType": "address",
          "name": "previousOwner",
          "type": "address"
        },
        {
          "indexed": true,
          "internalType": "address",
          "name": "newOwner",
          "type": "address"
        }
      ],
      "name": "OwnershipTransferred",
      "type": "event"
    },
    {
      "anonymous": false,
      "inputs": [
        {
          "indexed": true,
          "internalType": "address",
          "name": "user",
          "type": "address"
        },
        {
          "indexed": false,
          "internalType": "uint256",
          "name": "amount",
          "type": "uint256"
        }
      ],
      "name": "StablecoinBurned",
      "type": "event"
    },
    {
      "anonymous": false,
      "inputs": [
        {
          "indexed": true,
          "internalType": "address",
          "name": "user",
          "type": "address"
        },
        {
          "indexed": false,
          "internalType": "uint256",
          "name": "amount",
          "type": "uint256"
        },
        {
          "indexed": false,
          "internalType": "uint256",
          "name": "collateralValue",
          "type": "uint256"
        }
      ],
      "name": "StablecoinMinted",
      "type": "event"
    },
    {
      "anonymous": false,
      "inputs": [
        {
          "indexed": true,
          "internalType": "address",
          "name": "from",
          "type": "address"
        },
        {
          "indexed": true,
          "internalType": "address",
          "name": "to",
          "type": "address"
        },
        {
          "indexed": false,
          "internalType": "uint256",
          "name": "value",
          "type": "uint256"
        }
      ],
      "name": "Transfer",
      "type": "event"
    },
    {
      "anonymous": false,
      "inputs": [
        {
          "indexed": true,
          "internalType": "address",
          "name": "wrapSell",
          "type": "address"
        },
        {
          "indexed": false,
          "internalType": "uint256",
          "name": "weight",
          "type": "uint256"
        }
      ],
      "name": "WrapSellAdded",
      "type": "event"
    },
    {
      "anonymous": false,
      "inputs": [
        {
          "indexed": true,
          "internalType": "address",
          "name": "wrapSell",
          "type": "address"
        }
      ],
      "name": "WrapSellRemoved",
      "type": "event"
    },
    {
      "inputs": [],
      "name": "PRECISION",
      "outputs": [
        {
          "internalType": "uint256",
          "name": "",
          "type": "uint256"
        }
      ],
      "stateMutability": "view",
      "type": "function"
    },
    {
      "inputs": [
        {
          "internalType": "address",
          "name": "",
          "type": "address"
        }
      ],
      "name": "acceptedWrapSells",
      "outputs": [
        {
          "internalType": "bool",
          "name": "",
          "type": "bool"
        }
      ],
      "stateMutability": "view",
      "type": "function"
    },
    {
      "inputs": [
        {
          "internalType": "address",
          "name": "wrapSell",
          "type": "address"
        },
        {
          "internalType": "uint256",
          "name": "weight",
          "type": "uint256"
        }
      ],
      "name": "addWrapSell",
      "outputs": [],
      "stateMutability": "nonpayable",
      "type": "function"
    },
    {
      "inputs": [
        {
          "internalType": "address",
          "name": "owner",
          "type": "address"
        },
        {
          "internalType": "address",
          "name": "spender",
          "type": "address"
        }
      ],
      "name": "allowance",
      "outputs": [
        {
          "internalType": "uint256",
          "name": "",
          "type": "uint256"
        }
      ],
      "stateMutability": "view",
      "type": "function"
    },
    {
      "inputs": [
        {
          "internalType": "address",
          "name": "spender",
          "type": "address"
        },
        {
          "internalType": "uint256",
          "name": "value",
          "type": "uint256"
        }
      ],
      "name": "approve",
      "outputs": [
        {
          "internalType": "bool",
          "name": "",
          "type": "bool"
        }
      ],
      "stateMutability": "nonpayable",
      "type": "function"
    },
    {
      "inputs": [
        {
          "internalType": "address",
          "name": "account",
          "type": "address"
        }
      ],
      "name": "balanceOf",
      "outputs": [
        {
          "internalType": "uint256",
          "name": "",
          "type": "uint256"
        }
      ],
      "stateMutability": "view",
      "type": "function"
    },
    {
      "inputs": [
        {
          "internalType": "uint256",
          "name": "amount",
          "type": "uint256"
        }
      ],
      "name": "burn",
      "outputs": [],
      "stateMutability": "nonpayable",
      "type": "function"
    },
    {
      "inputs": [],
      "name": "collateralizationRatio",
      "outputs": [
        {
          "internalType": "uint256",
          "name": "",
          "type": "uint256"
        }
      ],
      "stateMutability": "view",
      "type": "function"
    },
    {
      "inputs": [],
      "name": "decimals",
      "outputs": [
        {
          "internalType": "uint8",
          "name": "",
          "type": "uint8"
        }
      ],
      "stateMutability": "view",
      "type": "function"
    },
    {
      "inputs": [],
      "name": "getAcceptedWrapSells",
      "outputs": [
        {
          "internalType": "address[]",
          "name": "",
          "type": "address[]"
        }
      ],
      "stateMutability": "view",
      "type": "function"
    },
    {
      "inputs": [],
      "name": "getCurrentCollateralizationRatio",
      "outputs": [
        {
          "internalType": "uint256",
          "name": "",
          "type": "uint256"
        }
      ],
      "stateMutability": "view",
      "type": "function"
    },
    {
      "inputs": [],
      "name": "getPoolInfo",
      "outputs": [
        {
          "internalType": "uint256",
          "name": "poolValue",
          "type": "uint256"
        },
        {
          "internalType": "uint256",
          "name": "stablecoinSupply",
          "type": "uint256"
        },
        {
          "internalType": "uint256",
          "name": "collateralizationRatio_",
          "type": "uint256"
        },
        {
          "internalType": "uint256",
          "name": "wrapSellCount",
          "type": "uint256"
        }
      ],
      "stateMutability": "view",
      "type": "function"
    },
    {
      "inputs": [],
      "name": "getTotalCollateralValue",
      "outputs": [
        {
          "internalType": "uint256",
          "name": "",
          "type": "uint256"
        }
      ],
      "stateMutability": "view",
      "type": "function"
    },
    {
      "inputs": [],
      "name": "isHealthy",
      "outputs": [
        {
          "internalType": "bool",
          "name": "",
          "type": "bool"
        }
      ],
      "stateMutability": "view",
      "type": "function"
    },
    {
      "inputs": [
        {
          "internalType": "uint256",
          "name": "amount",
          "type": "uint256"
        }
      ],
      "name": "mint",
      "outputs": [],
      "stateMutability": "nonpayable",
      "type": "function"
    },
    {
      "inputs": [],
      "name": "name",
      "outputs": [
        {
          "internalType": "string",
          "name": "",
          "type": "string"
        }
      ],
      "stateMutability": "view",
      "type": "function"
    },
    {
      "inputs": [],
      "name": "owner",
      "outputs": [
        {
          "internalType": "address",
          "name": "",
          "type": "address"
        }
      ],
      "stateMutability": "view",
      "type": "function"
    },
    {
      "inputs": [
        {
          "internalType": "address",
          "name": "wrapSell",
          "type": "address"
        }
      ],
      "name": "removeWrapSell",
      "outputs": [],
      "stateMutability": "nonpayable",
      "type": "function"
    },
    {
      "inputs": [],
      "name": "renounceOwnership",
      "outputs": [],
      "stateMutability": "nonpayable",
      "type": "function"
    },
    {
      "inputs": [
        {
          "internalType": "uint256",
          "name": "newRatio",
          "type": "uint256"
        }
      ],
      "name": "setCollateralizationRatio",
      "outputs": [],
      "stateMutability": "nonpayable",
      "type": "function"
    },
    {
      "inputs": [],
      "name": "symbol",
      "outputs": [
        {
          "internalType": "string",
          "name": "",
          "type": "string"
        }
      ],
      "stateMutability": "view",
      "type": "function"
    },
    {
      "inputs": [],
      "name": "totalSupply",
      "outputs": [
        {
          "internalType": "uint256",
          "name": "",
          "type": "uint256"
        }
      ],
      "stateMutability": "view",
      "type": "function"
    },
    {
      "inputs": [
        {
          "internalType": "address",
          "name": "to",
          "type": "address"
        },
        {
          "internalType": "uint256",
          "name": "value",
          "type": "uint256"
        }
      ],
      "name": "transfer",
      "outputs": [
        {
          "internalType": "bool",
          "name": "",
          "type": "bool"
        }
      ],
      "stateMutability": "nonpayable",
      "type": "function"
    },
    {
      "inputs": [
        {
          "internalType": "address",
          "name": "from",
          "type": "address"
        },
        {
          "internalType": "address",
          "name": "to",
          "type": "address"
        },
        {
          "internalType": "uint256",
          "name": "value",
          "type": "uint256"
        }
      ],
      "name": "transferFrom",
      "outputs": [
        {
          "internalType": "bool",
          "name": "",
          "type": "bool"
        }
      ],
      "stateMutability": "nonpayable",
      "type": "function"
    },
    {
      "inputs": [
        {
          "internalType": "address",
          "name": "newOwner",
          "type": "address"
        }
      ],
      "name": "transferOwnership",
      "outputs": [],
      "stateMutability": "nonpayable",
      "type": "function"
    },
    {
      "inputs": [
        {
          "internalType": "address",
          "name": "wrapSell",
          "type": "address"
        },
        {
          "internalType": "uint256",
          "name": "newWeight",
          "type": "uint256"
        }
      ],
      "name": "updateWrapSellWeight",
      "outputs": [],
      "stateMutability": "nonpayable",
      "type": "function"
    },
    {
      "inputs": [
        {
          "internalType": "uint256",
          "name": "",
          "type": "uint256"
        }
      ],
      "name": "wrapSellList",
      "outputs": [
        {
          "internalType": "address",
          "name": "",
          "type": "address"
        }
      ],
      "stateMutability": "view",
      "type": "function"
    },
    {
      "inputs": [
        {
          "internalType": "address",
          "name": "",
          "type": "address"
        }
      ],
      "name": "wrapSellWeights",
      "outputs": [
        {
          "internalType": "uint256",
          "name": "",
          "type": "uint256"
        }
      ],
      "stateMutability": "view",
      "type": "function"
    }
  ],
  "bytecode": "0x6080604052609660095534801561001557600080fd5b50604051612f67380380612f6783398181016040528101906100379190610320565b338282816003908161004991906105b9565b50806004908161005991906105b9565b505050600073ffffffffffffffffffffffffffffffffffffffff168173ffffffffffffffffffffffffffffffffffffffff16036100ce5760006040517f1e4fbdf70000000000000000000000000000000000000000000000000000000081526004016100c591906106cc565b60405180910390fd5b6100dd816100e560201b60201c565b5050506106e7565b6000600560009054906101000a900473ffffffffffffffffffffffffffffffffffffffff16905081600560006101000a81548173ffffffffffffffffffffffffffffffffffffffff021916908373ffffffffffffffffffffffffffffffffffffffff1602179055508173ffffffffffffffffffffffffffffffffffffffff168173ffffffffffffffffffffffffffffffffffffffff167f8be0079c531659141344cd1fd0a4f28419497f9722a3daafe3b4186f6b6457e060405160405180910390a35050565b6000604051905090565b600080fd5b600080fd5b600080fd5b600080fd5b6000601f19601f8301169050919050565b7f4e487b7100000000000000000000000000000000000000000000000000000000600052604160045260246000fd5b610212826101c9565b810181811067ffffffffffffffff82111715610231576102306101da565b5b80604052505050565b60006102446101ab565b90506102508282610209565b919050565b600067ffffffffffffffff8211156102705761026f6101da565b5b610279826101c9565b9050602081019050919050565b60005b838110156102a4578082015181840152602081019050610289565b60008484015250505050565b60006102c36102be84610255565b61023a565b9050828152602081018484840111156102df576102de6101c4565b5b6102ea848285610286565b509392505050565b600082601f830112610307576103066101bf565b5b81516103178482602086016102b0565b91505092915050565b60008060408385031215610337576103366101b5565b5b600083015167ffffffffffffffff811115610355576103546101ba565b5b610361858286016102f2565b925050602083015167ffffffffffffffff811115610382576103816101ba565b5b61038e858286016102f2565b9150509250929050565b600081519050919050565b7f4e487b7100000000000000000000000000000000000000000000000000000000600052602260045260246000fd5b600060028204905060018216806103ea57607f821691505b6020821081036103fd576103fc6103a3565b5b50919050565b60008190508160005260206000209050919050565b60006020601f8301049050919050565b600082821b905092915050565b6000600883026104657fffffffffffffffffffffffffffffffffffffffffffffffffffffffffffffffff82610428565b61046f8683610428565b95508019841693508086168417925050509392505050565b6000819050919050565b6000819050919050565b60006104b66104b16104ac84610487565b610491565b610487565b9050919050565b6000819050919050565b6104d08361049b565b6104e46104dc826104bd565b848454610435565b825550505050565b600090565b6104f96104ec565b6105048184846104c7565b505050565b5b818110156105285761051d6000826104f1565b60018101905061050a565b5050565b601f82111561056d5761053e81610403565b61054784610418565b81016020851015610556578190505b61056a61056285610418565b830182610509565b50505b505050565b600082821c905092915050565b600061059060001984600802610572565b1980831691505092915050565b60006105a9838361057f565b9150826002028217905092915050565b6105c282610398565b67ffffffffffffffff8111156105db576105da6101da565b5b6105e582546103d2565b6105f082828561052c565b600060209050601f8311600181146106235760008415610611578287015190505b61061b858261059d565b865550610683565b601f19841661063186610403565b60005b8281101561065957848901518255600182019150602085019450602081019050610634565b868310156106765784890151610672601f89168261057f565b8355505b6001600288020188555050505b505050505050565b600073ffffffffffffffffffffffffffffffffffffffff82169050919050565b60006106b68261068b565b9050919050565b6106c6816106ab565b82525050565b60006020820190506106e160008301846106bd565b92915050565b612871806106f66000396000f3fe608060405234801561001057600080fd5b50600436106101c45760003560e01c806395d89b41116100f9578063c2a4875811610097578063e402080411610071578063e40208041461050e578063e5829d201461052c578063ed6493af14610548578063f2fde38b14610566576101c4565b8063c2a48758146104a2578063dcaf9c44146104c0578063dd62ed3e146104de576101c4565b8063a0712d68116100d3578063a0712d6814610408578063a9059cbb14610424578063aaf5eb6814610454578063b50cbad914610472576101c4565b806395d89b411461039e57806396fad43a146103bc5780639b9b17f6146103ec576101c4565b8063313ce5671161016657806360246c881161014057806360246c881461032557806370a0823114610346578063715018a6146103765780638da5cb5b14610380576101c4565b8063313ce567146102cf57806339319448146102ed57806342966c6814610309576101c4565b806318160ddd116101a257806318160ddd146102335780631a59b19f1461025157806323b872dd1461026f57806324d43ba41461029f576101c4565b806306fdde03146101c9578063095ea7b3146101e757806310b4840114610217575b600080fd5b6101d1610582565b6040516101de9190611e08565b60405180910390f35b61020160048036038101906101fc9190611ec3565b610614565b60405161020e9190611f1e565b60405180910390f35b610231600480360381019061022c9190611ec3565b610637565b005b61023b6108cf565b6040516102489190611f48565b60405180910390f35b6102596108d9565b6040516102669190612021565b60405180910390f35b61028960048036038101906102849190612043565b610967565b6040516102969190611f1e565b60405180910390f35b6102b960048036038101906102b49190612096565b610996565b6040516102c69190611f1e565b60405180910390f35b6102d76109b6565b6040516102e491906120df565b60405180910390f35b61030760048036038101906103029190611ec3565b6109bf565b005b610323600480360381019061031e91906120fa565b610ade565b005b61032d610bc7565b60405161033d9493929190612127565b60405180910390f35b610360600480360381019061035b9190612096565b610bf9565b60405161036d9190611f48565b60405180910390f35b61037e610c41565b005b610388610c55565b604051610395919061217b565b60405180910390f35b6103a6610c7f565b6040516103b39190611e08565b60405180910390f35b6103d660048036038101906103d19190612096565b610d11565b6040516103e39190611f48565b60405180910390f35b61040660048036038101906104019190612096565b610d29565b005b610422600480360381019061041d91906120fa565b611027565b005b61043e60048036038101906104399190611ec3565b61114e565b60405161044b9190611f1e565b60405180910390f35b61045c611171565b6040516104699190611f48565b60405180910390f35b61048c600480360381019061048791906120fa565b61117d565b604051610499919061217b565b60405180910390f35b6104aa6111bc565b6040516104b79190611f48565b60405180910390f35b6104c8611226565b6040516104d59190611f48565b60405180910390f35b6104f860048036038101906104f39190612196565b61122c565b6040516105059190611f48565b60405180910390f35b6105166112b3565b6040516105239190611f1e565b60405180910390f35b610546600480360381019061054191906120fa565b6112c7565b005b610550611354565b60405161055d9190611f48565b60405180910390f35b610580600480360381019061057b9190612096565b611502565b005b60606003805461059190612205565b80601f01602080910402602001604051908101604052809291908181526020018280546105bd90612205565b801561060a5780601f106105df5761010080835404028352916020019161060a565b820191906000526020600020905b8154815290600101906020018083116105ed57829003601f168201915b5050505050905090565b60008061061f611588565b905061062c818585611590565b600191505092915050565b61063f6115a2565b600073ffffffffffffffffffffffffffffffffffffffff168273ffffffffffffffffffffffffffffffffffffffff16036106ae576040517f08c379a00000000000000000000000000000000000000000000000000000000081526004016106a590612282565b60405180910390fd5b600081116106f1576040517f08c379a00000000000000000000000000000000000000000000000000000000081526004016106e8906122ee565b60405180910390fd5b600660008373ffffffffffffffffffffffffffffffffffffffff1673ffffffffffffffffffffffffffffffffffffffff16815260200190815260200160002060009054906101000a900460ff161561077e576040517f08c379a00000000000000000000000000000000000000000000000000000000081526004016107759061235a565b60405180910390fd5b6001600660008473ffffffffffffffffffffffffffffffffffffffff1673ffffffffffffffffffffffffffffffffffffffff16815260200190815260200160002060006101000a81548160ff02191690831515021790555080600760008473ffffffffffffffffffffffffffffffffffffffff1673ffffffffffffffffffffffffffffffffffffffff168152602001908152602001600020819055506008829080600181540180825580915050600190039060005260206000200160009091909190916101000a81548173ffffffffffffffffffffffffffffffffffffffff021916908373ffffffffffffffffffffffffffffffffffffffff1602179055508173ffffffffffffffffffffffffffffffffffffffff167f70c239f201312bc58a74a09efc009eb8f0b8eeb84d565318925e59041492b344826040516108c39190611f48565b60405180910390a25050565b6000600254905090565b6060600880548060200260200160405190810160405280929190818152602001828054801561095d57602002820191906000526020600020905b8160009054906101000a900473ffffffffffffffffffffffffffffffffffffffff1673ffffffffffffffffffffffffffffffffffffffff1681526020019060010190808311610913575b5050505050905090565b600080610972611588565b905061097f858285611629565b61098a8585856116be565b60019150509392505050565b60066020528060005260406000206000915054906101000a900460ff1681565b60006012905090565b6109c76115a2565b600660008373ffffffffffffffffffffffffffffffffffffffff1673ffffffffffffffffffffffffffffffffffffffff16815260200190815260200160002060009054906101000a900460ff16610a53576040517f08c379a0000000000000000000000000000000000000000000000000000000008152600401610a4a906123c6565b60405180910390fd5b60008111610a96576040517f08c379a0000000000000000000000000000000000000000000000000000000008152600401610a8d906122ee565b60405180910390fd5b80600760008473ffffffffffffffffffffffffffffffffffffffff1673ffffffffffffffffffffffffffffffffffffffff168152602001908152602001600020819055505050565b60008111610b21576040517f08c379a0000000000000000000000000000000000000000000000000000000008152600401610b1890612432565b60405180910390fd5b80610b2b33610bf9565b1015610b6c576040517f08c379a0000000000000000000000000000000000000000000000000000000008152600401610b639061249e565b60405180910390fd5b610b7633826117b2565b3373ffffffffffffffffffffffffffffffffffffffff167fe7e268f551409231c20990b9b20fac42acd664f119a5d1e4184b6f6cd87d97bb82604051610bbc9190611f48565b60405180910390a250565b600080600080610bd5611354565b9350610bdf6108cf565b9250610be96111bc565b9150600880549050905090919293565b60008060008373ffffffffffffffffffffffffffffffffffffffff1673ffffffffffffffffffffffffffffffffffffffff168152602001908152602001600020549050919050565b610c496115a2565b610c536000611834565b565b6000600560009054906101000a900473ffffffffffffffffffffffffffffffffffffffff16905090565b606060048054610c8e90612205565b80601f0160208091040260200160405190810160405280929190818152602001828054610cba90612205565b8015610d075780601f10610cdc57610100808354040283529160200191610d07565b820191906000526020600020905b815481529060010190602001808311610cea57829003601f168201915b5050505050905090565b60076020528060005260406000206000915090505481565b610d316115a2565b600660008273ffffffffffffffffffffffffffffffffffffffff1673ffffffffffffffffffffffffffffffffffffffff16815260200190815260200160002060009054906101000a900460ff16610dbd576040517f08c379a0000000000000000000000000000000000000000000000000000000008152600401610db49061250a565b60405180910390fd5b6000600660008373ffffffffffffffffffffffffffffffffffffffff1673ffffffffffffffffffffffffffffffffffffffff16815260200190815260200160002060006101000a81548160ff0219169083151502179055506000600760008373ffffffffffffffffffffffffffffffffffffffff1673ffffffffffffffffffffffffffffffffffffffff1681526020019081526020016000208190555060005b600880549050811015610fe0578173ffffffffffffffffffffffffffffffffffffffff1660088281548110610e9557610e9461252a565b5b9060005260206000200160009054906101000a900473ffffffffffffffffffffffffffffffffffffffff1673ffffffffffffffffffffffffffffffffffffffff1603610fd35760086001600880549050610eef9190612588565b81548110610f0057610eff61252a565b5b9060005260206000200160009054906101000a900473ffffffffffffffffffffffffffffffffffffffff1660088281548110610f3f57610f3e61252a565b5b9060005260206000200160006101000a81548173ffffffffffffffffffffffffffffffffffffffff021916908373ffffffffffffffffffffffffffffffffffffffff1602179055506008805480610f9957610f986125bc565b5b6001900381819060005260206000200160006101000a81549073ffffffffffffffffffffffffffffffffffffffff02191690559055610fe0565b8080600101915050610e5d565b508073ffffffffffffffffffffffffffffffffffffffff167fbbf7c799193741c362cb484226147c8c0ccd6970da411ede885575f687f66dfe60405160405180910390a250565b6000811161106a576040517f08c379a000000000000000000000000000000000000000000000000000000000815260040161106190612432565b60405180910390fd5b6000611074611354565b90506000826110816108cf565b61108b91906125eb565b905060008160648461109d919061261f565b6110a79190612690565b90506009548110156110ee576040517f08c379a00000000000000000000000000000000000000000000000000000000081526004016110e59061270d565b60405180910390fd5b6110f833856118fa565b3373ffffffffffffffffffffffffffffffffffffffff167fb47b2ebc8d5d64533b2aaf82137a748e758247212bcc05398e01ca98c729a6a5858560405161114092919061272d565b60405180910390a250505050565b600080611159611588565b90506111668185856116be565b600191505092915050565b670de0b6b3a764000081565b6008818154811061118d57600080fd5b906000526020600020016000915054906101000a900473ffffffffffffffffffffffffffffffffffffffff1681565b6000806111c76108cf565b9050600081036111fa577fffffffffffffffffffffffffffffffffffffffffffffffffffffffffffffffff915050611223565b6000611204611354565b905081606482611214919061261f565b61121e9190612690565b925050505b90565b60095481565b6000600160008473ffffffffffffffffffffffffffffffffffffffff1673ffffffffffffffffffffffffffffffffffffffff16815260200190815260200160002060008373ffffffffffffffffffffffffffffffffffffffff1673ffffffffffffffffffffffffffffffffffffffff16815260200190815260200160002054905092915050565b60006009546112c06111bc565b1015905090565b6112cf6115a2565b6064811015611313576040517f08c379a000000000000000000000000000000000000000000000000000000000815260040161130a906127a2565b60405180910390fd5b806009819055507ffb0ebe8c7316e6a251494c38876d13d9a3a029273fce7964c12aa2ce07869530816040516113499190611f48565b60405180910390a150565b6000806000905060005b6008805490508110156114fa576000600882815481106113815761138061252a565b5b9060005260206000200160009054906101000a900473ffffffffffffffffffffffffffffffffffffffff169050600660008273ffffffffffffffffffffffffffffffffffffffff1673ffffffffffffffffffffffffffffffffffffffff16815260200190815260200160002060009054906101000a900460ff16156114ec57600081905060008173ffffffffffffffffffffffffffffffffffffffff1663ed6493af6040518163ffffffff1660e01b8152600401602060405180830381865afa158015611452573d6000803e3d6000fd5b505050506040513d601f19601f8201168201806040525081019061147691906127d7565b90506000600760008573ffffffffffffffffffffffffffffffffffffffff1673ffffffffffffffffffffffffffffffffffffffff168152602001908152602001600020549050670de0b6b3a764000081836114d1919061261f565b6114db9190612690565b866114e691906125eb565b95505050505b50808060010191505061135e565b508091505090565b61150a6115a2565b600073ffffffffffffffffffffffffffffffffffffffff168173ffffffffffffffffffffffffffffffffffffffff160361157c5760006040517f1e4fbdf7000000000000000000000000000000000000000000000000000000008152600401611573919061217b565b60405180910390fd5b61158581611834565b50565b600033905090565b61159d838383600161197c565b505050565b6115aa611588565b73ffffffffffffffffffffffffffffffffffffffff166115c8610c55565b73ffffffffffffffffffffffffffffffffffffffff1614611627576115eb611588565b6040517f118cdaa700000000000000000000000000000000000000000000000000000000815260040161161e919061217b565b60405180910390fd5b565b6000611635848461122c565b90507fffffffffffffffffffffffffffffffffffffffffffffffffffffffffffffffff8110156116b857818110156116a8578281836040517ffb8f41b200000000000000000000000000000000000000000000000000000000815260040161169f93929190612804565b60405180910390fd5b6116b78484848403600061197c565b5b50505050565b600073ffffffffffffffffffffffffffffffffffffffff168373ffffffffffffffffffffffffffffffffffffffff16036117305760006040517f96c6fd1e000000000000000000000000000000000000000000000000000000008152600401611727919061217b565b60405180910390fd5b600073ffffffffffffffffffffffffffffffffffffffff168273ffffffffffffffffffffffffffffffffffffffff16036117a25760006040517fec442f05000000000000000000000000000000000000000000000000000000008152600401611799919061217b565b60405180910390fd5b6117ad838383611b53565b505050565b600073ffffffffffffffffffffffffffffffffffffffff168273ffffffffffffffffffffffffffffffffffffffff16036118245760006040517f96c6fd1e00000000000000000000000000000000000000000000000000000000815260040161181b919061217b565b60405180910390fd5b61183082600083611b53565b5050565b6000600560009054906101000a900473ffffffffffffffffffffffffffffffffffffffff16905081600560006101000a81548173ffffffffffffffffffffffffffffffffffffffff021916908373ffffffffffffffffffffffffffffffffffffffff1602179055508173ffffffffffffffffffffffffffffffffffffffff168173ffffffffffffffffffffffffffffffffffffffff167f8be0079c531659141344cd1fd0a4f28419497f9722a3daafe3b4186f6b6457e060405160405180910390a35050565b600073ffffffffffffffffffffffffffffffffffffffff168273ffffffffffffffffffffffffffffffffffffffff160361196c5760006040517fec442f05000000000000000000000000000000000000000000000000000000008152600401611963919061217b565b60405180910390fd5b61197860008383611b53565b5050565b600073ffffffffffffffffffffffffffffffffffffffff168473ffffffffffffffffffffffffffffffffffffffff16036119ee5760006040517fe602df050000000000000000000000000000000000000000000000000000000081526004016119e5919061217b565b60405180910390fd5b600073ffffffffffffffffffffffffffffffffffffffff168373ffffffffffffffffffffffffffffffffffffffff1603611a605760006040517f94280d62000000000000000000000000000000000000000000000000000000008152600401611a57919061217b565b60405180910390fd5b81600160008673ffffffffffffffffffffffffffffffffffffffff1673ffffffffffffffffffffffffffffffffffffffff16815260200190815260200160002060008573ffffffffffffffffffffffffffffffffffffffff1673ffffffffffffffffffffffffffffffffffffffff168152602001908152602001600020819055508015611b4d578273ffffffffffffffffffffffffffffffffffffffff168473ffffffffffffffffffffffffffffffffffffffff167f8c5be1e5ebec7d5bd14f71427d1e84f3dd0314c0f7b2291e5b200ac8c7c3b92584604051611b449190611f48565b60405180910390a35b50505050565b600073ffffffffffffffffffffffffffffffffffffffff168373ffffffffffffffffffffffffffffffffffffffff1603611ba5578060026000828254611b9991906125eb565b92505081905550611c78565b60008060008573ffffffffffffffffffffffffffffffffffffffff1673ffffffffffffffffffffffffffffffffffffffff16815260200190815260200160002054905081811015611c31578381836040517fe450d38c000000000000000000000000000000000000000000000000000000008152600401611c2893929190612804565b60405180910390fd5b8181036000808673ffffffffffffffffffffffffffffffffffffffff1673ffffffffffffffffffffffffffffffffffffffff16815260200190815260200160002081905550505b600073ffffffffffffffffffffffffffffffffffffffff168273ffffffffffffffffffffffffffffffffffffffff1603611cc15780600260008282540392505081905550611d0e565b806000808473ffffffffffffffffffffffffffffffffffffffff1673ffffffffffffffffffffffffffffffffffffffff168152602001908152602001600020600082825401925050819055505b8173ffffffffffffffffffffffffffffffffffffffff168373ffffffffffffffffffffffffffffffffffffffff167fddf252ad1be2c89b69c2b068fc378daa952ba7f163c4a11628f55a4df523b3ef83604051611d6b9190611f48565b60405180910390a3505050565b600081519050919050565b600082825260208201905092915050565b60005b83811015611db2578082015181840152602081019050611d97565b60008484015250505050565b6000601f19601f8301169050919050565b6000611dda82611d78565b611de48185611d83565b9350611df4818560208601611d94565b611dfd81611dbe565b840191505092915050565b60006020820190508181036000830152611e228184611dcf565b905092915050565b600080fd5b600073ffffffffffffffffffffffffffffffffffffffff82169050919050565b6000611e5a82611e2f565b9050919050565b611e6a81611e4f565b8114611e7557600080fd5b50565b600081359050611e8781611e61565b92915050565b6000819050919050565b611ea081611e8d565b8114611eab57600080fd5b50565b600081359050611ebd81611e97565b92915050565b60008060408385031215611eda57611ed9611e2a565b5b6000611ee885828601611e78565b9250506020611ef985828601611eae565b9150509250929050565b60008115159050919050565b611f1881611f03565b82525050565b6000602082019050611f336000830184611f0f565b92915050565b611f4281611e8d565b82525050565b6000602082019050611f5d6000830184611f39565b92915050565b600081519050919050565b600082825260208201905092915050565b6000819050602082019050919050565b611f9881611e4f565b82525050565b6000611faa8383611f8f565b60208301905092915050565b6000602082019050919050565b6000611fce82611f63565b611fd88185611f6e565b9350611fe383611f7f565b8060005b83811015612014578151611ffb8882611f9e565b975061200683611fb6565b925050600181019050611fe7565b5085935050505092915050565b6000602082019050818103600083015261203b8184611fc3565b905092915050565b60008060006060848603121561205c5761205b611e2a565b5b600061206a86828701611e78565b935050602061207b86828701611e78565b925050604061208c86828701611eae565b9150509250925092565b6000602082840312156120ac576120ab611e2a565b5b60006120ba84828501611e78565b91505092915050565b600060ff82169050919050565b6120d9816120c3565b82525050565b60006020820190506120f460008301846120d0565b92915050565b6000602082840312156121105761210f611e2a565b5b600061211e84828501611eae565b91505092915050565b600060808201905061213c6000830187611f39565b6121496020830186611f39565b6121566040830185611f39565b6121636060830184611f39565b95945050505050565b61217581611e4f565b82525050565b6000602082019050612190600083018461216c565b92915050565b600080604083850312156121ad576121ac611e2a565b5b60006121bb85828601611e78565b92505060206121cc85828601611e78565b9150509250929050565b7f4e487b7100000000000000000000000000000000000000000000000000000000600052602260045260246000fd5b6000600282049050600182168061221d57607f821691505b6020821081036122305761222f6121d6565b5b50919050565b7f496e76616c6964205772617053656c6c20616464726573730000000000000000600082015250565b600061226c601883611d83565b915061227782612236565b602082019050919050565b6000602082019050818103600083015261229b8161225f565b9050919050565b7f576569676874206d7573742062652067726561746572207468616e2030000000600082015250565b60006122d8601d83611d83565b91506122e3826122a2565b602082019050919050565b60006020820190508181036000830152612307816122cb565b9050919050565b7f5772617053656c6c20616c726561647920616464656400000000000000000000600082015250565b6000612344601683611d83565b915061234f8261230e565b602082019050919050565b6000602082019050818103600083015261237381612337565b9050919050565b7f5772617053656c6c206e6f742061636365707465640000000000000000000000600082015250565b60006123b0601583611d83565b91506123bb8261237a565b602082019050919050565b600060208201905081810360008301526123df816123a3565b9050919050565b7f416d6f756e74206d7573742062652067726561746572207468616e2030000000600082015250565b600061241c601d83611d83565b9150612427826123e6565b602082019050919050565b6000602082019050818103600083015261244b8161240f565b9050919050565b7f496e73756666696369656e742062616c616e6365000000000000000000000000600082015250565b6000612488601483611d83565b915061249382612452565b602082019050919050565b600060208201905081810360008301526124b78161247b565b9050919050565b7f5772617053656c6c206e6f7420666f756e640000000000000000000000000000600082015250565b60006124f4601283611d83565b91506124ff826124be565b602082019050919050565b60006020820190508181036000830152612523816124e7565b9050919050565b7f4e487b7100000000000000000000000000000000000000000000000000000000600052603260045260246000fd5b7f4e487b7100000000000000000000000000000000000000000000000000000000600052601160045260246000fd5b600061259382611e8d565b915061259e83611e8d565b92508282039050818111156125b6576125b5612559565b5b92915050565b7f4e487b7100000000000000000000000000000000000000000000000000000000600052603160045260246000fd5b60006125f682611e8d565b915061260183611e8d565b925082820190508082111561261957612618612559565b5b92915050565b600061262a82611e8d565b915061263583611e8d565b925082820261264381611e8d565b9150828204841483151761265a57612659612559565b5b5092915050565b7f4e487b7100000000000000000000000000000000000000000000000000000000600052601260045260246000fd5b600061269b82611e8d565b91506126a683611e8d565b9250826126b6576126b5612661565b5b828204905092915050565b7f496e73756666696369656e7420636f6c6c61746572616c697a6174696f6e0000600082015250565b60006126f7601e83611d83565b9150612702826126c1565b602082019050919050565b60006020820190508181036000830152612726816126ea565b9050919050565b60006040820190506127426000830185611f39565b61274f6020830184611f39565b9392505050565b7f526174696f206d757374206265206174206c6561737420313030250000000000600082015250565b600061278c601b83611d83565b915061279782612756565b602082019050919050565b600060208201905081810360008301526127bb8161277f565b9050919050565b6000815190506127d181611e97565b92915050565b6000602082840312156127ed576127ec611e2a565b5b60006127fb848285016127c2565b91505092915050565b6000606082019050612819600083018661216c565b6128266020830185611f39565b6128336040830184611f39565b94935050505056fea2646970667358221220fe0aad6827cd39ed7b079bcddf61019afaa2cdf06133a9cf69c4b3afd1e60a9264736f6c634300081c0033",
  "linkReferences": {},
  "deployedLinkReferences": {}
}