{
  "_format": "hh-sol-artifact-1",
  "contractName": "WrapPool",
  "sourceName": "contracts/WrapPool.sol",
  "abi": [
    {
      "inputs": [
        {
          "internalType": "string",
          "name": "name",
          "type": "string"
        },
        {
          "internalType": "string",
          "name": "symbol",
          "type": "string"
        }
      ],
      "stateMutability": "nonpayable",
      "type": "constructor"
    },
    {
      "inputs": [
        {
          "internalType": "address",
          "name": "spender",
          "type": "address"
        },
        {
          "internalType": "uint256",
          "name": "allowance",
          "type": "uint256"
        },
        {
          "internalType": "uint256",
          "name": "needed",
          "type": "uint256"
        }
      ],
      "name": "ERC20InsufficientAllowance",
      "type": "error"
    },
    {
      "inputs": [
        {
          "internalType": "address",
          "name": "sender",
          "type": "address"
        },
        {
          "internalType": "uint256",
          "name": "balance",
          "type": "uint256"
        },
        {
          "internalType": "uint256",
          "name": "needed",
          "type": "uint256"
        }
      ],
      "name": "ERC20InsufficientBalance",
      "type": "error"
    },
    {
      "inputs": [
        {
          "internalType": "address",
          "name": "approver",
          "type": "address"
        }
      ],
      "name": "ERC20InvalidApprover",
      "type": "error"
    },
    {
      "inputs": [
        {
          "internalType": "address",
          "name": "receiver",
          "type": "address"
        }
      ],
      "name": "ERC20InvalidReceiver",
      "type": "error"
    },
    {
      "inputs": [
        {
          "internalType": "address",
          "name": "sender",
          "type": "address"
        }
      ],
      "name": "ERC20InvalidSender",
      "type": "error"
    },
    {
      "inputs": [
        {
          "internalType": "address",
          "name": "spender",
          "type": "address"
        }
      ],
      "name": "ERC20InvalidSpender",
      "type": "error"
    },
    {
      "inputs": [
        {
          "internalType": "address",
          "name": "owner",
          "type": "address"
        }
      ],
      "name": "OwnableInvalidOwner",
      "type": "error"
    },
    {
      "inputs": [
        {
          "internalType": "address",
          "name": "account",
          "type": "address"
        }
      ],
      "name": "OwnableUnauthorizedAccount",
      "type": "error"
    },
    {
      "anonymous": false,
      "inputs": [
        {
          "indexed": true,
          "internalType": "address",
          "name": "owner",
          "type": "address"
        },
        {
          "indexed": true,
          "internalType": "address",
          "name": "spender",
          "type": "address"
        },
        {
          "indexed": false,
          "internalType": "uint256",
          "name": "value",
          "type": "uint256"
        }
      ],
      "name": "Approval",
      "type": "event"
    },
    {
      "anonymous": false,
      "inputs": [
        {
          "indexed": false,
          "internalType": "uint256",
          "name": "newRatio",
          "type": "uint256"
        }
      ],
      "name": "CollateralizationRatioUpdated",
      "type": "event"
    },
    {
      "anonymous": false,
      "inputs": [
        {
          "indexed": true,
          "internalType": "address",
          "name": "previousOwner",
          "type": "address"
        },
        {
          "indexed": true,
          "internalType": "address",
          "name": "newOwner",
          "type": "address"
        }
      ],
      "name": "OwnershipTransferred",
      "type": "event"
    },
    {
      "anonymous": false,
      "inputs": [
        {
          "indexed": true,
          "internalType": "address",
          "name": "user",
          "type": "address"
        },
        {
          "indexed": false,
          "internalType": "uint256",
          "name": "amount",
          "type": "uint256"
        }
      ],
      "name": "StablecoinBurned",
      "type": "event"
    },
    {
      "anonymous": false,
      "inputs": [
        {
          "indexed": true,
          "internalType": "address",
          "name": "user",
          "type": "address"
        },
        {
          "indexed": false,
          "internalType": "uint256",
          "name": "amount",
          "type": "uint256"
        },
        {
          "indexed": false,
          "internalType": "uint256",
          "name": "collateralValue",
          "type": "uint256"
        }
      ],
      "name": "StablecoinMinted",
      "type": "event"
    },
    {
      "anonymous": false,
      "inputs": [
        {
          "indexed": true,
          "internalType": "address",
          "name": "from",
          "type": "address"
        },
        {
          "indexed": true,
          "internalType": "address",
          "name": "to",
          "type": "address"
        },
        {
          "indexed": false,
          "internalType": "uint256",
          "name": "value",
          "type": "uint256"
        }
      ],
      "name": "Transfer",
      "type": "event"
    },
    {
      "anonymous": false,
      "inputs": [
        {
          "indexed": true,
          "internalType": "address",
          "name": "wrapSell",
          "type": "address"
        },
        {
          "indexed": false,
          "internalType": "uint256",
          "name": "weight",
          "type": "uint256"
        }
      ],
      "name": "WrapSellAdded",
      "type": "event"
    },
    {
      "anonymous": false,
      "inputs": [
        {
          "indexed": true,
          "internalType": "address",
          "name": "wrapSell",
          "type": "address"
        }
      ],
      "name": "WrapSellRemoved",
      "type": "event"
    },
    {
      "inputs": [],
      "name": "PRECISION",
      "outputs": [
        {
          "internalType": "uint256",
          "name": "",
          "type": "uint256"
        }
      ],
      "stateMutability": "view",
      "type": "function"
    },
    {
      "inputs": [
        {
          "internalType": "address",
          "name": "",
          "type": "address"
        }
      ],
      "name": "acceptedWrapSells",
      "outputs": [
        {
          "internalType": "bool",
          "name": "",
          "type": "bool"
        }
      ],
      "stateMutability": "view",
      "type": "function"
    },
    {
      "inputs": [
        {
          "internalType": "address",
          "name": "wrapSell",
          "type": "address"
        },
        {
          "internalType": "uint256",
          "name": "weight",
          "type": "uint256"
        }
      ],
      "name": "addWrapSell",
      "outputs": [],
      "stateMutability": "nonpayable",
      "type": "function"
    },
    {
      "inputs": [
        {
          "internalType": "address",
          "name": "owner",
          "type": "address"
        },
        {
          "internalType": "address",
          "name": "spender",
          "type": "address"
        }
      ],
      "name": "allowance",
      "outputs": [
        {
          "internalType": "uint256",
          "name": "",
          "type": "uint256"
        }
      ],
      "stateMutability": "view",
      "type": "function"
    },
    {
      "inputs": [
        {
          "internalType": "address",
          "name": "spender",
          "type": "address"
        },
        {
          "internalType": "uint256",
          "name": "value",
          "type": "uint256"
        }
      ],
      "name": "approve",
      "outputs": [
        {
          "internalType": "bool",
          "name": "",
          "type": "bool"
        }
      ],
      "stateMutability": "nonpayable",
      "type": "function"
    },
    {
      "inputs": [
        {
          "internalType": "address",
          "name": "account",
          "type": "address"
        }
      ],
      "name": "balanceOf",
      "outputs": [
        {
          "internalType": "uint256",
          "name": "",
          "type": "uint256"
        }
      ],
      "stateMutability": "view",
      "type": "function"
    },
    {
      "inputs": [
        {
          "internalType": "uint256",
          "name": "amount",
          "type": "uint256"
        }
      ],
      "name": "burn",
      "outputs": [],
      "stateMutability": "nonpayable",
      "type": "function"
    },
    {
      "inputs": [],
      "name": "collateralizationRatio",
      "outputs": [
        {
          "internalType": "uint256",
          "name": "",
          "type": "uint256"
        }
      ],
      "stateMutability": "view",
      "type": "function"
    },
    {
      "inputs": [],
      "name": "decimals",
      "outputs": [
        {
          "internalType": "uint8",
          "name": "",
          "type": "uint8"
        }
      ],
      "stateMutability": "view",
      "type": "function"
    },
    {
      "inputs": [],
      "name": "getAcceptedWrapSells",
      "outputs": [
        {
          "internalType": "address[]",
          "name": "",
          "type": "address[]"
        }
      ],
      "stateMutability": "view",
      "type": "function"
    },
    {
      "inputs": [],
      "name": "getCurrentCollateralizationRatio",
      "outputs": [
        {
          "internalType": "uint256",
          "name": "",
          "type": "uint256"
        }
      ],
      "stateMutability": "view",
      "type": "function"
    },
    {
      "inputs": [],
      "name": "getPoolInfo",
      "outputs": [
        {
          "internalType": "uint256",
          "name": "poolValue",
          "type": "uint256"
        },
        {
          "internalType": "uint256",
          "name": "stablecoinSupply",
          "type": "uint256"
        },
        {
          "internalType": "uint256",
          "name": "collateralizationRatio_",
          "type": "uint256"
        },
        {
          "internalType": "uint256",
          "name": "wrapSellCount",
          "type": "uint256"
        }
      ],
      "stateMutability": "view",
      "type": "function"
    },
    {
      "inputs": [],
      "name": "getTotalCollateralValue",
      "outputs": [
        {
          "internalType": "uint256",
          "name": "",
          "type": "uint256"
        }
      ],
      "stateMutability": "view",
      "type": "function"
    },
    {
      "inputs": [],
      "name": "isHealthy",
      "outputs": [
        {
          "internalType": "bool",
          "name": "",
          "type": "bool"
        }
      ],
      "stateMutability": "view",
      "type": "function"
    },
    {
      "inputs": [
        {
          "internalType": "uint256",
          "name": "amount",
          "type": "uint256"
        }
      ],
      "name": "mint",
      "outputs": [],
      "stateMutability": "nonpayable",
      "type": "function"
    },
    {
      "inputs": [
        {
          "internalType": "address",
          "name": "wrapSell",
          "type": "address"
        },
        {
          "internalType": "address",
          "name": "to",
          "type": "address"
        },
        {
          "internalType": "uint256",
          "name": "amount",
          "type": "uint256"
        }
      ],
      "name": "mintWrapSellToken",
      "outputs": [],
      "stateMutability": "nonpayable",
      "type": "function"
    },
    {
      "inputs": [],
      "name": "name",
      "outputs": [
        {
          "internalType": "string",
          "name": "",
          "type": "string"
        }
      ],
      "stateMutability": "view",
      "type": "function"
    },
    {
      "inputs": [],
      "name": "owner",
      "outputs": [
        {
          "internalType": "address",
          "name": "",
          "type": "address"
        }
      ],
      "stateMutability": "view",
      "type": "function"
    },
    {
      "inputs": [
        {
          "internalType": "address",
          "name": "wrapSell",
          "type": "address"
        }
      ],
      "name": "removeWrapSell",
      "outputs": [],
      "stateMutability": "nonpayable",
      "type": "function"
    },
    {
      "inputs": [],
      "name": "renounceOwnership",
      "outputs": [],
      "stateMutability": "nonpayable",
      "type": "function"
    },
    {
      "inputs": [
        {
          "internalType": "uint256",
          "name": "newRatio",
          "type": "uint256"
        }
      ],
      "name": "setCollateralizationRatio",
      "outputs": [],
      "stateMutability": "nonpayable",
      "type": "function"
    },
    {
      "inputs": [],
      "name": "symbol",
      "outputs": [
        {
          "internalType": "string",
          "name": "",
          "type": "string"
        }
      ],
      "stateMutability": "view",
      "type": "function"
    },
    {
      "inputs": [],
      "name": "totalSupply",
      "outputs": [
        {
          "internalType": "uint256",
          "name": "",
          "type": "uint256"
        }
      ],
      "stateMutability": "view",
      "type": "function"
    },
    {
      "inputs": [
        {
          "internalType": "address",
          "name": "to",
          "type": "address"
        },
        {
          "internalType": "uint256",
          "name": "value",
          "type": "uint256"
        }
      ],
      "name": "transfer",
      "outputs": [
        {
          "internalType": "bool",
          "name": "",
          "type": "bool"
        }
      ],
      "stateMutability": "nonpayable",
      "type": "function"
    },
    {
      "inputs": [
        {
          "internalType": "address",
          "name": "from",
          "type": "address"
        },
        {
          "internalType": "address",
          "name": "to",
          "type": "address"
        },
        {
          "internalType": "uint256",
          "name": "value",
          "type": "uint256"
        }
      ],
      "name": "transferFrom",
      "outputs": [
        {
          "internalType": "bool",
          "name": "",
          "type": "bool"
        }
      ],
      "stateMutability": "nonpayable",
      "type": "function"
    },
    {
      "inputs": [
        {
          "internalType": "address",
          "name": "newOwner",
          "type": "address"
        }
      ],
      "name": "transferOwnership",
      "outputs": [],
      "stateMutability": "nonpayable",
      "type": "function"
    },
    {
      "inputs": [
        {
          "internalType": "address",
          "name": "wrapSell",
          "type": "address"
        },
        {
          "internalType": "uint256",
          "name": "newWeight",
          "type": "uint256"
        }
      ],
      "name": "updateWrapSellWeight",
      "outputs": [],
      "stateMutability": "nonpayable",
      "type": "function"
    },
    {
      "inputs": [
        {
          "internalType": "uint256",
          "name": "",
          "type": "uint256"
        }
      ],
      "name": "wrapSellList",
      "outputs": [
        {
          "internalType": "address",
          "name": "",
          "type": "address"
        }
      ],
      "stateMutability": "view",
      "type": "function"
    },
    {
      "inputs": [
        {
          "internalType": "address",
          "name": "",
          "type": "address"
        }
      ],
      "name": "wrapSellWeights",
      "outputs": [
        {
          "internalType": "uint256",
          "name": "",
          "type": "uint256"
        }
      ],
      "stateMutability": "view",
      "type": "function"
    }
  ],
  "bytecode": "0x6080604052609660095534801561001557600080fd5b506040516132b33803806132b383398181016040528101906100379190610320565b338282816003908161004991906105b9565b50806004908161005991906105b9565b505050600073ffffffffffffffffffffffffffffffffffffffff168173ffffffffffffffffffffffffffffffffffffffff16036100ce5760006040517f1e4fbdf70000000000000000000000000000000000000000000000000000000081526004016100c591906106cc565b60405180910390fd5b6100dd816100e560201b60201c565b5050506106e7565b6000600560009054906101000a900473ffffffffffffffffffffffffffffffffffffffff16905081600560006101000a81548173ffffffffffffffffffffffffffffffffffffffff021916908373ffffffffffffffffffffffffffffffffffffffff1602179055508173ffffffffffffffffffffffffffffffffffffffff168173ffffffffffffffffffffffffffffffffffffffff167f8be0079c531659141344cd1fd0a4f28419497f9722a3daafe3b4186f6b6457e060405160405180910390a35050565b6000604051905090565b600080fd5b600080fd5b600080fd5b600080fd5b6000601f19601f8301169050919050565b7f4e487b7100000000000000000000000000000000000000000000000000000000600052604160045260246000fd5b610212826101c9565b810181811067ffffffffffffffff82111715610231576102306101da565b5b80604052505050565b60006102446101ab565b90506102508282610209565b919050565b600067ffffffffffffffff8211156102705761026f6101da565b5b610279826101c9565b9050602081019050919050565b60005b838110156102a4578082015181840152602081019050610289565b60008484015250505050565b60006102c36102be84610255565b61023a565b9050828152602081018484840111156102df576102de6101c4565b5b6102ea848285610286565b509392505050565b600082601f830112610307576103066101bf565b5b81516103178482602086016102b0565b91505092915050565b60008060408385031215610337576103366101b5565b5b600083015167ffffffffffffffff811115610355576103546101ba565b5b610361858286016102f2565b925050602083015167ffffffffffffffff811115610382576103816101ba565b5b61038e858286016102f2565b9150509250929050565b600081519050919050565b7f4e487b7100000000000000000000000000000000000000000000000000000000600052602260045260246000fd5b600060028204905060018216806103ea57607f821691505b6020821081036103fd576103fc6103a3565b5b50919050565b60008190508160005260206000209050919050565b60006020601f8301049050919050565b600082821b905092915050565b6000600883026104657fffffffffffffffffffffffffffffffffffffffffffffffffffffffffffffffff82610428565b61046f8683610428565b95508019841693508086168417925050509392505050565b6000819050919050565b6000819050919050565b60006104b66104b16104ac84610487565b610491565b610487565b9050919050565b6000819050919050565b6104d08361049b565b6104e46104dc826104bd565b848454610435565b825550505050565b600090565b6104f96104ec565b6105048184846104c7565b505050565b5b818110156105285761051d6000826104f1565b60018101905061050a565b5050565b601f82111561056d5761053e81610403565b61054784610418565b81016020851015610556578190505b61056a61056285610418565b830182610509565b50505b505050565b600082821c905092915050565b600061059060001984600802610572565b1980831691505092915050565b60006105a9838361057f565b9150826002028217905092915050565b6105c282610398565b67ffffffffffffffff8111156105db576105da6101da565b5b6105e582546103d2565b6105f082828561052c565b600060209050601f8311600181146106235760008415610611578287015190505b61061b858261059d565b865550610683565b601f19841661063186610403565b60005b8281101561065957848901518255600182019150602085019450602081019050610634565b868310156106765784890151610672601f89168261057f565b8355505b6001600288020188555050505b505050505050565b600073ffffffffffffffffffffffffffffffffffffffff82169050919050565b60006106b68261068b565b9050919050565b6106c6816106ab565b82525050565b60006020820190506106e160008301846106bd565b92915050565b612bbd806106f66000396000f3fe608060405234801561001057600080fd5b50600436106101cf5760003560e01c80638da5cb5b11610104578063b50cbad9116100a2578063e402080411610071578063e402080414610535578063e5829d2014610553578063ed6493af1461056f578063f2fde38b1461058d576101cf565b8063b50cbad914610499578063c2a48758146104c9578063dcaf9c44146104e7578063dd62ed3e14610505576101cf565b80639b9b17f6116100de5780639b9b17f614610413578063a0712d681461042f578063a9059cbb1461044b578063aaf5eb681461047b576101cf565b80638da5cb5b146103a757806395d89b41146103c557806396fad43a146103e3576101cf565b8063313ce5671161017157806359bbaee11161014b57806359bbaee11461033057806360246c881461034c57806370a082311461036d578063715018a61461039d576101cf565b8063313ce567146102da57806339319448146102f857806342966c6814610314576101cf565b806318160ddd116101ad57806318160ddd1461023e5780631a59b19f1461025c57806323b872dd1461027a57806324d43ba4146102aa576101cf565b806306fdde03146101d4578063095ea7b3146101f257806310b4840114610222575b600080fd5b6101dc6105a9565b6040516101e99190611fe7565b60405180910390f35b61020c600480360381019061020791906120a2565b61063b565b60405161021991906120fd565b60405180910390f35b61023c600480360381019061023791906120a2565b61065e565b005b6102466108f6565b6040516102539190612127565b60405180910390f35b610264610900565b6040516102719190612200565b60405180910390f35b610294600480360381019061028f9190612222565b61098e565b6040516102a191906120fd565b60405180910390f35b6102c460048036038101906102bf9190612275565b6109bd565b6040516102d191906120fd565b60405180910390f35b6102e26109dd565b6040516102ef91906122be565b60405180910390f35b610312600480360381019061030d91906120a2565b6109e6565b005b61032e600480360381019061032991906122d9565b610b05565b005b61034a60048036038101906103459190612222565b610bee565b005b610354610da6565b6040516103649493929190612306565b60405180910390f35b61038760048036038101906103829190612275565b610dd8565b6040516103949190612127565b60405180910390f35b6103a5610e20565b005b6103af610e34565b6040516103bc919061235a565b60405180910390f35b6103cd610e5e565b6040516103da9190611fe7565b60405180910390f35b6103fd60048036038101906103f89190612275565b610ef0565b60405161040a9190612127565b60405180910390f35b61042d60048036038101906104289190612275565b610f08565b005b610449600480360381019061044491906122d9565b611206565b005b610465600480360381019061046091906120a2565b61132d565b60405161047291906120fd565b60405180910390f35b610483611350565b6040516104909190612127565b60405180910390f35b6104b360048036038101906104ae91906122d9565b61135c565b6040516104c0919061235a565b60405180910390f35b6104d161139b565b6040516104de9190612127565b60405180910390f35b6104ef611405565b6040516104fc9190612127565b60405180910390f35b61051f600480360381019061051a9190612375565b61140b565b60405161052c9190612127565b60405180910390f35b61053d611492565b60405161054a91906120fd565b60405180910390f35b61056d600480360381019061056891906122d9565b6114a6565b005b610577611533565b6040516105849190612127565b60405180910390f35b6105a760048036038101906105a29190612275565b6116e1565b005b6060600380546105b8906123e4565b80601f01602080910402602001604051908101604052809291908181526020018280546105e4906123e4565b80156106315780601f1061060657610100808354040283529160200191610631565b820191906000526020600020905b81548152906001019060200180831161061457829003601f168201915b5050505050905090565b600080610646611767565b905061065381858561176f565b600191505092915050565b610666611781565b600073ffffffffffffffffffffffffffffffffffffffff168273ffffffffffffffffffffffffffffffffffffffff16036106d5576040517f08c379a00000000000000000000000000000000000000000000000000000000081526004016106cc90612461565b60405180910390fd5b60008111610718576040517f08c379a000000000000000000000000000000000000000000000000000000000815260040161070f906124cd565b60405180910390fd5b600660008373ffffffffffffffffffffffffffffffffffffffff1673ffffffffffffffffffffffffffffffffffffffff16815260200190815260200160002060009054906101000a900460ff16156107a5576040517f08c379a000000000000000000000000000000000000000000000000000000000815260040161079c90612539565b60405180910390fd5b6001600660008473ffffffffffffffffffffffffffffffffffffffff1673ffffffffffffffffffffffffffffffffffffffff16815260200190815260200160002060006101000a81548160ff02191690831515021790555080600760008473ffffffffffffffffffffffffffffffffffffffff1673ffffffffffffffffffffffffffffffffffffffff168152602001908152602001600020819055506008829080600181540180825580915050600190039060005260206000200160009091909190916101000a81548173ffffffffffffffffffffffffffffffffffffffff021916908373ffffffffffffffffffffffffffffffffffffffff1602179055508173ffffffffffffffffffffffffffffffffffffffff167f70c239f201312bc58a74a09efc009eb8f0b8eeb84d565318925e59041492b344826040516108ea9190612127565b60405180910390a25050565b6000600254905090565b6060600880548060200260200160405190810160405280929190818152602001828054801561098457602002820191906000526020600020905b8160009054906101000a900473ffffffffffffffffffffffffffffffffffffffff1673ffffffffffffffffffffffffffffffffffffffff168152602001906001019080831161093a575b5050505050905090565b600080610999611767565b90506109a6858285611808565b6109b185858561189d565b60019150509392505050565b60066020528060005260406000206000915054906101000a900460ff1681565b60006012905090565b6109ee611781565b600660008373ffffffffffffffffffffffffffffffffffffffff1673ffffffffffffffffffffffffffffffffffffffff16815260200190815260200160002060009054906101000a900460ff16610a7a576040517f08c379a0000000000000000000000000000000000000000000000000000000008152600401610a71906125a5565b60405180910390fd5b60008111610abd576040517f08c379a0000000000000000000000000000000000000000000000000000000008152600401610ab4906124cd565b60405180910390fd5b80600760008473ffffffffffffffffffffffffffffffffffffffff1673ffffffffffffffffffffffffffffffffffffffff168152602001908152602001600020819055505050565b60008111610b48576040517f08c379a0000000000000000000000000000000000000000000000000000000008152600401610b3f90612611565b60405180910390fd5b80610b5233610dd8565b1015610b93576040517f08c379a0000000000000000000000000000000000000000000000000000000008152600401610b8a9061267d565b60405180910390fd5b610b9d3382611991565b3373ffffffffffffffffffffffffffffffffffffffff167fe7e268f551409231c20990b9b20fac42acd664f119a5d1e4184b6f6cd87d97bb82604051610be39190612127565b60405180910390a250565b610bf6611781565b600660008473ffffffffffffffffffffffffffffffffffffffff1673ffffffffffffffffffffffffffffffffffffffff16815260200190815260200160002060009054906101000a900460ff16610c82576040517f08c379a0000000000000000000000000000000000000000000000000000000008152600401610c79906126e9565b60405180910390fd5b600073ffffffffffffffffffffffffffffffffffffffff168273ffffffffffffffffffffffffffffffffffffffff1603610cf1576040517f08c379a0000000000000000000000000000000000000000000000000000000008152600401610ce890612755565b60405180910390fd5b60008111610d34576040517f08c379a0000000000000000000000000000000000000000000000000000000008152600401610d2b906127c1565b60405180910390fd5b8273ffffffffffffffffffffffffffffffffffffffff166340c10f1983836040518363ffffffff1660e01b8152600401610d6f9291906127e1565b600060405180830381600087803b158015610d8957600080fd5b505af1158015610d9d573d6000803e3d6000fd5b50505050505050565b600080600080610db4611533565b9350610dbe6108f6565b9250610dc861139b565b9150600880549050905090919293565b60008060008373ffffffffffffffffffffffffffffffffffffffff1673ffffffffffffffffffffffffffffffffffffffff168152602001908152602001600020549050919050565b610e28611781565b610e326000611a13565b565b6000600560009054906101000a900473ffffffffffffffffffffffffffffffffffffffff16905090565b606060048054610e6d906123e4565b80601f0160208091040260200160405190810160405280929190818152602001828054610e99906123e4565b8015610ee65780601f10610ebb57610100808354040283529160200191610ee6565b820191906000526020600020905b815481529060010190602001808311610ec957829003601f168201915b5050505050905090565b60076020528060005260406000206000915090505481565b610f10611781565b600660008273ffffffffffffffffffffffffffffffffffffffff1673ffffffffffffffffffffffffffffffffffffffff16815260200190815260200160002060009054906101000a900460ff16610f9c576040517f08c379a0000000000000000000000000000000000000000000000000000000008152600401610f9390612856565b60405180910390fd5b6000600660008373ffffffffffffffffffffffffffffffffffffffff1673ffffffffffffffffffffffffffffffffffffffff16815260200190815260200160002060006101000a81548160ff0219169083151502179055506000600760008373ffffffffffffffffffffffffffffffffffffffff1673ffffffffffffffffffffffffffffffffffffffff1681526020019081526020016000208190555060005b6008805490508110156111bf578173ffffffffffffffffffffffffffffffffffffffff166008828154811061107457611073612876565b5b9060005260206000200160009054906101000a900473ffffffffffffffffffffffffffffffffffffffff1673ffffffffffffffffffffffffffffffffffffffff16036111b257600860016008805490506110ce91906128d4565b815481106110df576110de612876565b5b9060005260206000200160009054906101000a900473ffffffffffffffffffffffffffffffffffffffff166008828154811061111e5761111d612876565b5b9060005260206000200160006101000a81548173ffffffffffffffffffffffffffffffffffffffff021916908373ffffffffffffffffffffffffffffffffffffffff160217905550600880548061117857611177612908565b5b6001900381819060005260206000200160006101000a81549073ffffffffffffffffffffffffffffffffffffffff021916905590556111bf565b808060010191505061103c565b508073ffffffffffffffffffffffffffffffffffffffff167fbbf7c799193741c362cb484226147c8c0ccd6970da411ede885575f687f66dfe60405160405180910390a250565b60008111611249576040517f08c379a000000000000000000000000000000000000000000000000000000000815260040161124090612611565b60405180910390fd5b6000611253611533565b90506000826112606108f6565b61126a9190612937565b905060008160648461127c919061296b565b61128691906129dc565b90506009548110156112cd576040517f08c379a00000000000000000000000000000000000000000000000000000000081526004016112c490612a59565b60405180910390fd5b6112d73385611ad9565b3373ffffffffffffffffffffffffffffffffffffffff167fb47b2ebc8d5d64533b2aaf82137a748e758247212bcc05398e01ca98c729a6a5858560405161131f929190612a79565b60405180910390a250505050565b600080611338611767565b905061134581858561189d565b600191505092915050565b670de0b6b3a764000081565b6008818154811061136c57600080fd5b906000526020600020016000915054906101000a900473ffffffffffffffffffffffffffffffffffffffff1681565b6000806113a66108f6565b9050600081036113d9577fffffffffffffffffffffffffffffffffffffffffffffffffffffffffffffffff915050611402565b60006113e3611533565b9050816064826113f3919061296b565b6113fd91906129dc565b925050505b90565b60095481565b6000600160008473ffffffffffffffffffffffffffffffffffffffff1673ffffffffffffffffffffffffffffffffffffffff16815260200190815260200160002060008373ffffffffffffffffffffffffffffffffffffffff1673ffffffffffffffffffffffffffffffffffffffff16815260200190815260200160002054905092915050565b600060095461149f61139b565b1015905090565b6114ae611781565b60648110156114f2576040517f08c379a00000000000000000000000000000000000000000000000000000000081526004016114e990612aee565b60405180910390fd5b806009819055507ffb0ebe8c7316e6a251494c38876d13d9a3a029273fce7964c12aa2ce07869530816040516115289190612127565b60405180910390a150565b6000806000905060005b6008805490508110156116d9576000600882815481106115605761155f612876565b5b9060005260206000200160009054906101000a900473ffffffffffffffffffffffffffffffffffffffff169050600660008273ffffffffffffffffffffffffffffffffffffffff1673ffffffffffffffffffffffffffffffffffffffff16815260200190815260200160002060009054906101000a900460ff16156116cb57600081905060008173ffffffffffffffffffffffffffffffffffffffff1663ed6493af6040518163ffffffff1660e01b8152600401602060405180830381865afa158015611631573d6000803e3d6000fd5b505050506040513d601f19601f820116820180604052508101906116559190612b23565b90506000600760008573ffffffffffffffffffffffffffffffffffffffff1673ffffffffffffffffffffffffffffffffffffffff168152602001908152602001600020549050670de0b6b3a764000081836116b0919061296b565b6116ba91906129dc565b866116c59190612937565b95505050505b50808060010191505061153d565b508091505090565b6116e9611781565b600073ffffffffffffffffffffffffffffffffffffffff168173ffffffffffffffffffffffffffffffffffffffff160361175b5760006040517f1e4fbdf7000000000000000000000000000000000000000000000000000000008152600401611752919061235a565b60405180910390fd5b61176481611a13565b50565b600033905090565b61177c8383836001611b5b565b505050565b611789611767565b73ffffffffffffffffffffffffffffffffffffffff166117a7610e34565b73ffffffffffffffffffffffffffffffffffffffff1614611806576117ca611767565b6040517f118cdaa70000000000000000000000000000000000000000000000000000000081526004016117fd919061235a565b60405180910390fd5b565b6000611814848461140b565b90507fffffffffffffffffffffffffffffffffffffffffffffffffffffffffffffffff8110156118975781811015611887578281836040517ffb8f41b200000000000000000000000000000000000000000000000000000000815260040161187e93929190612b50565b60405180910390fd5b61189684848484036000611b5b565b5b50505050565b600073ffffffffffffffffffffffffffffffffffffffff168373ffffffffffffffffffffffffffffffffffffffff160361190f5760006040517f96c6fd1e000000000000000000000000000000000000000000000000000000008152600401611906919061235a565b60405180910390fd5b600073ffffffffffffffffffffffffffffffffffffffff168273ffffffffffffffffffffffffffffffffffffffff16036119815760006040517fec442f05000000000000000000000000000000000000000000000000000000008152600401611978919061235a565b60405180910390fd5b61198c838383611d32565b505050565b600073ffffffffffffffffffffffffffffffffffffffff168273ffffffffffffffffffffffffffffffffffffffff1603611a035760006040517f96c6fd1e0000000000000000000000000000000000000000000000000000000081526004016119fa919061235a565b60405180910390fd5b611a0f82600083611d32565b5050565b6000600560009054906101000a900473ffffffffffffffffffffffffffffffffffffffff16905081600560006101000a81548173ffffffffffffffffffffffffffffffffffffffff021916908373ffffffffffffffffffffffffffffffffffffffff1602179055508173ffffffffffffffffffffffffffffffffffffffff168173ffffffffffffffffffffffffffffffffffffffff167f8be0079c531659141344cd1fd0a4f28419497f9722a3daafe3b4186f6b6457e060405160405180910390a35050565b600073ffffffffffffffffffffffffffffffffffffffff168273ffffffffffffffffffffffffffffffffffffffff1603611b4b5760006040517fec442f05000000000000000000000000000000000000000000000000000000008152600401611b42919061235a565b60405180910390fd5b611b5760008383611d32565b5050565b600073ffffffffffffffffffffffffffffffffffffffff168473ffffffffffffffffffffffffffffffffffffffff1603611bcd5760006040517fe602df05000000000000000000000000000000000000000000000000000000008152600401611bc4919061235a565b60405180910390fd5b600073ffffffffffffffffffffffffffffffffffffffff168373ffffffffffffffffffffffffffffffffffffffff1603611c3f5760006040517f94280d62000000000000000000000000000000000000000000000000000000008152600401611c36919061235a565b60405180910390fd5b81600160008673ffffffffffffffffffffffffffffffffffffffff1673ffffffffffffffffffffffffffffffffffffffff16815260200190815260200160002060008573ffffffffffffffffffffffffffffffffffffffff1673ffffffffffffffffffffffffffffffffffffffff168152602001908152602001600020819055508015611d2c578273ffffffffffffffffffffffffffffffffffffffff168473ffffffffffffffffffffffffffffffffffffffff167f8c5be1e5ebec7d5bd14f71427d1e84f3dd0314c0f7b2291e5b200ac8c7c3b92584604051611d239190612127565b60405180910390a35b50505050565b600073ffffffffffffffffffffffffffffffffffffffff168373ffffffffffffffffffffffffffffffffffffffff1603611d84578060026000828254611d789190612937565b92505081905550611e57565b60008060008573ffffffffffffffffffffffffffffffffffffffff1673ffffffffffffffffffffffffffffffffffffffff16815260200190815260200160002054905081811015611e10578381836040517fe450d38c000000000000000000000000000000000000000000000000000000008152600401611e0793929190612b50565b60405180910390fd5b8181036000808673ffffffffffffffffffffffffffffffffffffffff1673ffffffffffffffffffffffffffffffffffffffff16815260200190815260200160002081905550505b600073ffffffffffffffffffffffffffffffffffffffff168273ffffffffffffffffffffffffffffffffffffffff1603611ea05780600260008282540392505081905550611eed565b806000808473ffffffffffffffffffffffffffffffffffffffff1673ffffffffffffffffffffffffffffffffffffffff168152602001908152602001600020600082825401925050819055505b8173ffffffffffffffffffffffffffffffffffffffff168373ffffffffffffffffffffffffffffffffffffffff167fddf252ad1be2c89b69c2b068fc378daa952ba7f163c4a11628f55a4df523b3ef83604051611f4a9190612127565b60405180910390a3505050565b600081519050919050565b600082825260208201905092915050565b60005b83811015611f91578082015181840152602081019050611f76565b60008484015250505050565b6000601f19601f8301169050919050565b6000611fb982611f57565b611fc38185611f62565b9350611fd3818560208601611f73565b611fdc81611f9d565b840191505092915050565b600060208201905081810360008301526120018184611fae565b905092915050565b600080fd5b600073ffffffffffffffffffffffffffffffffffffffff82169050919050565b60006120398261200e565b9050919050565b6120498161202e565b811461205457600080fd5b50565b60008135905061206681612040565b92915050565b6000819050919050565b61207f8161206c565b811461208a57600080fd5b50565b60008135905061209c81612076565b92915050565b600080604083850312156120b9576120b8612009565b5b60006120c785828601612057565b92505060206120d88582860161208d565b9150509250929050565b60008115159050919050565b6120f7816120e2565b82525050565b600060208201905061211260008301846120ee565b92915050565b6121218161206c565b82525050565b600060208201905061213c6000830184612118565b92915050565b600081519050919050565b600082825260208201905092915050565b6000819050602082019050919050565b6121778161202e565b82525050565b6000612189838361216e565b60208301905092915050565b6000602082019050919050565b60006121ad82612142565b6121b7818561214d565b93506121c28361215e565b8060005b838110156121f35781516121da888261217d565b97506121e583612195565b9250506001810190506121c6565b5085935050505092915050565b6000602082019050818103600083015261221a81846121a2565b905092915050565b60008060006060848603121561223b5761223a612009565b5b600061224986828701612057565b935050602061225a86828701612057565b925050604061226b8682870161208d565b9150509250925092565b60006020828403121561228b5761228a612009565b5b600061229984828501612057565b91505092915050565b600060ff82169050919050565b6122b8816122a2565b82525050565b60006020820190506122d360008301846122af565b92915050565b6000602082840312156122ef576122ee612009565b5b60006122fd8482850161208d565b91505092915050565b600060808201905061231b6000830187612118565b6123286020830186612118565b6123356040830185612118565b6123426060830184612118565b95945050505050565b6123548161202e565b82525050565b600060208201905061236f600083018461234b565b92915050565b6000806040838503121561238c5761238b612009565b5b600061239a85828601612057565b92505060206123ab85828601612057565b9150509250929050565b7f4e487b7100000000000000000000000000000000000000000000000000000000600052602260045260246000fd5b600060028204905060018216806123fc57607f821691505b60208210810361240f5761240e6123b5565b5b50919050565b7f496e76616c6964205772617053656c6c20616464726573730000000000000000600082015250565b600061244b601883611f62565b915061245682612415565b602082019050919050565b6000602082019050818103600083015261247a8161243e565b9050919050565b7f576569676874206d7573742062652067726561746572207468616e2030000000600082015250565b60006124b7601d83611f62565b91506124c282612481565b602082019050919050565b600060208201905081810360008301526124e6816124aa565b9050919050565b7f5772617053656c6c20616c726561647920616464656400000000000000000000600082015250565b6000612523601683611f62565b915061252e826124ed565b602082019050919050565b6000602082019050818103600083015261255281612516565b9050919050565b7f5772617053656c6c206e6f742061636365707465640000000000000000000000600082015250565b600061258f601583611f62565b915061259a82612559565b602082019050919050565b600060208201905081810360008301526125be81612582565b9050919050565b7f416d6f756e74206d7573742062652067726561746572207468616e2030000000600082015250565b60006125fb601d83611f62565b9150612606826125c5565b602082019050919050565b6000602082019050818103600083015261262a816125ee565b9050919050565b7f496e73756666696369656e742062616c616e6365000000000000000000000000600082015250565b6000612667601483611f62565b915061267282612631565b602082019050919050565b600060208201905081810360008301526126968161265a565b9050919050565b7f5772617053656c6c206e6f20616365707461646f000000000000000000000000600082015250565b60006126d3601483611f62565b91506126de8261269d565b602082019050919050565b60006020820190508181036000830152612702816126c6565b9050919050565b7f4e6f207365207075656465206d696e7465617220612061646472657373203000600082015250565b600061273f601f83611f62565b915061274a82612709565b602082019050919050565b6000602082019050818103600083015261276e81612732565b9050919050565b7f43616e7469646164206465626520736572206d61796f72206120300000000000600082015250565b60006127ab601b83611f62565b91506127b682612775565b602082019050919050565b600060208201905081810360008301526127da8161279e565b9050919050565b60006040820190506127f6600083018561234b565b6128036020830184612118565b9392505050565b7f5772617053656c6c206e6f7420666f756e640000000000000000000000000000600082015250565b6000612840601283611f62565b915061284b8261280a565b602082019050919050565b6000602082019050818103600083015261286f81612833565b9050919050565b7f4e487b7100000000000000000000000000000000000000000000000000000000600052603260045260246000fd5b7f4e487b7100000000000000000000000000000000000000000000000000000000600052601160045260246000fd5b60006128df8261206c565b91506128ea8361206c565b9250828203905081811115612902576129016128a5565b5b92915050565b7f4e487b7100000000000000000000000000000000000000000000000000000000600052603160045260246000fd5b60006129428261206c565b915061294d8361206c565b9250828201905080821115612965576129646128a5565b5b92915050565b60006129768261206c565b91506129818361206c565b925082820261298f8161206c565b915082820484148315176129a6576129a56128a5565b5b5092915050565b7f4e487b7100000000000000000000000000000000000000000000000000000000600052601260045260246000fd5b60006129e78261206c565b91506129f28361206c565b925082612a0257612a016129ad565b5b828204905092915050565b7f496e73756666696369656e7420636f6c6c61746572616c697a6174696f6e0000600082015250565b6000612a43601e83611f62565b9150612a4e82612a0d565b602082019050919050565b60006020820190508181036000830152612a7281612a36565b9050919050565b6000604082019050612a8e6000830185612118565b612a9b6020830184612118565b9392505050565b7f526174696f206d757374206265206174206c6561737420313030250000000000600082015250565b6000612ad8601b83611f62565b9150612ae382612aa2565b602082019050919050565b60006020820190508181036000830152612b0781612acb565b9050919050565b600081519050612b1d81612076565b92915050565b600060208284031215612b3957612b38612009565b5b6000612b4784828501612b0e565b91505092915050565b6000606082019050612b65600083018661234b565b612b726020830185612118565b612b7f6040830184612118565b94935050505056fea2646970667358221220337eb12ac56720300736109e77144ade1a4f61d9522941471e34934aa06d091764736f6c634300081c0033",
  "linkReferences": {},
  "deployedLinkReferences": {}
}