{
  "_format": "hh-sol-artifact-1",
  "contractName": "WrapSell",
  "sourceName": "contracts/WrapSellTest.sol",
  "abi": [
    {
      "inputs": [
        {
          "internalType": "string",
          "name": "_name",
          "type": "string"
        },
        {
          "internalType": "string",
          "name": "_symbol",
          "type": "string"
        },
        {
          "internalType": "uint256",
          "name": "_cardId",
          "type": "uint256"
        },
        {
          "internalType": "string",
          "name": "_cardName",
          "type": "string"
        },
        {
          "internalType": "string",
          "name": "_rarity",
          "type": "string"
        },
        {
          "internalType": "address",
          "name": "_priceFeed",
          "type": "address"
        }
      ],
      "stateMutability": "nonpayable",
      "type": "constructor"
    },
    {
      "anonymous": false,
      "inputs": [
        {
          "indexed": true,
          "internalType": "address",
          "name": "owner",
          "type": "address"
        },
        {
          "indexed": true,
          "internalType": "address",
          "name": "spender",
          "type": "address"
        },
        {
          "indexed": false,
          "internalType": "uint256",
          "name": "value",
          "type": "uint256"
        }
      ],
      "name": "Approval",
      "type": "event"
    },
    {
      "anonymous": false,
      "inputs": [
        {
          "indexed": false,
          "internalType": "string",
          "name": "cardName",
          "type": "string"
        },
        {
          "indexed": false,
          "internalType": "string",
          "name": "rarity",
          "type": "string"
        }
      ],
      "name": "CardInfoUpdated",
      "type": "event"
    },
    {
      "anonymous": false,
      "inputs": [
        {
          "indexed": true,
          "internalType": "address",
          "name": "user",
          "type": "address"
        },
        {
          "indexed": false,
          "internalType": "uint256",
          "name": "cardCount",
          "type": "uint256"
        },
        {
          "indexed": false,
          "internalType": "uint256",
          "name": "tokensIssued",
          "type": "uint256"
        }
      ],
      "name": "CardsDeposited",
      "type": "event"
    },
    {
      "anonymous": false,
      "inputs": [
        {
          "indexed": true,
          "internalType": "address",
          "name": "user",
          "type": "address"
        },
        {
          "indexed": false,
          "internalType": "uint256",
          "name": "cardCount",
          "type": "uint256"
        },
        {
          "indexed": false,
          "internalType": "uint256",
          "name": "tokensBurned",
          "type": "uint256"
        }
      ],
      "name": "CardsWithdrawn",
      "type": "event"
    },
    {
      "anonymous": false,
      "inputs": [
        {
          "indexed": true,
          "internalType": "address",
          "name": "from",
          "type": "address"
        },
        {
          "indexed": true,
          "internalType": "address",
          "name": "to",
          "type": "address"
        },
        {
          "indexed": false,
          "internalType": "uint256",
          "name": "value",
          "type": "uint256"
        }
      ],
      "name": "Transfer",
      "type": "event"
    },
    {
      "inputs": [
        {
          "internalType": "address",
          "name": "owner_",
          "type": "address"
        },
        {
          "internalType": "address",
          "name": "spender",
          "type": "address"
        }
      ],
      "name": "allowance",
      "outputs": [
        {
          "internalType": "uint256",
          "name": "",
          "type": "uint256"
        }
      ],
      "stateMutability": "view",
      "type": "function"
    },
    {
      "inputs": [
        {
          "internalType": "address",
          "name": "spender",
          "type": "address"
        },
        {
          "internalType": "uint256",
          "name": "amount",
          "type": "uint256"
        }
      ],
      "name": "approve",
      "outputs": [
        {
          "internalType": "bool",
          "name": "",
          "type": "bool"
        }
      ],
      "stateMutability": "nonpayable",
      "type": "function"
    },
    {
      "inputs": [
        {
          "internalType": "address",
          "name": "account",
          "type": "address"
        }
      ],
      "name": "balanceOf",
      "outputs": [
        {
          "internalType": "uint256",
          "name": "",
          "type": "uint256"
        }
      ],
      "stateMutability": "view",
      "type": "function"
    },
    {
      "inputs": [
        {
          "internalType": "address",
          "name": "",
          "type": "address"
        }
      ],
      "name": "cardDeposits",
      "outputs": [
        {
          "internalType": "uint256",
          "name": "",
          "type": "uint256"
        }
      ],
      "stateMutability": "view",
      "type": "function"
    },
    {
      "inputs": [],
      "name": "cardId",
      "outputs": [
        {
          "internalType": "uint256",
          "name": "",
          "type": "uint256"
        }
      ],
      "stateMutability": "view",
      "type": "function"
    },
    {
      "inputs": [],
      "name": "cardName",
      "outputs": [
        {
          "internalType": "string",
          "name": "",
          "type": "string"
        }
      ],
      "stateMutability": "view",
      "type": "function"
    },
    {
      "inputs": [],
      "name": "decimals",
      "outputs": [
        {
          "internalType": "uint8",
          "name": "",
          "type": "uint8"
        }
      ],
      "stateMutability": "view",
      "type": "function"
    },
    {
      "inputs": [
        {
          "internalType": "uint256",
          "name": "cardCount",
          "type": "uint256"
        }
      ],
      "name": "depositCards",
      "outputs": [],
      "stateMutability": "payable",
      "type": "function"
    },
    {
      "inputs": [
        {
          "internalType": "uint256",
          "name": "amount",
          "type": "uint256"
        }
      ],
      "name": "emergencyWithdraw",
      "outputs": [],
      "stateMutability": "nonpayable",
      "type": "function"
    },
    {
      "inputs": [],
      "name": "getCardInfo",
      "outputs": [
        {
          "internalType": "uint256",
          "name": "_cardId",
          "type": "uint256"
        },
        {
          "internalType": "string",
          "name": "_cardName",
          "type": "string"
        },
        {
          "internalType": "string",
          "name": "_rarity",
          "type": "string"
        }
      ],
      "stateMutability": "view",
      "type": "function"
    },
    {
      "inputs": [],
      "name": "getCollateralInfo",
      "outputs": [
        {
          "internalType": "uint256",
          "name": "totalCards",
          "type": "uint256"
        },
        {
          "internalType": "uint256",
          "name": "totalValueUsd",
          "type": "uint256"
        },
        {
          "internalType": "uint256",
          "name": "tokensIssued",
          "type": "uint256"
        },
        {
          "internalType": "uint256",
          "name": "collateralizationRatio",
          "type": "uint256"
        }
      ],
      "stateMutability": "view",
      "type": "function"
    },
    {
      "inputs": [],
      "name": "getContractBalance",
      "outputs": [
        {
          "internalType": "uint256",
          "name": "",
          "type": "uint256"
        }
      ],
      "stateMutability": "view",
      "type": "function"
    },
    {
      "inputs": [],
      "name": "getLatestPrice",
      "outputs": [
        {
          "internalType": "uint256",
          "name": "",
          "type": "uint256"
        }
      ],
      "stateMutability": "view",
      "type": "function"
    },
    {
      "inputs": [],
      "name": "getTotalCollateralValue",
      "outputs": [
        {
          "internalType": "uint256",
          "name": "",
          "type": "uint256"
        }
      ],
      "stateMutability": "view",
      "type": "function"
    },
    {
      "inputs": [
        {
          "internalType": "address",
          "name": "user",
          "type": "address"
        }
      ],
      "name": "getUserCardInfo",
      "outputs": [
        {
          "internalType": "uint256",
          "name": "cardsDeposited_",
          "type": "uint256"
        },
        {
          "internalType": "uint256",
          "name": "tokenBalance",
          "type": "uint256"
        },
        {
          "internalType": "uint256",
          "name": "userCollateralValueUsd",
          "type": "uint256"
        }
      ],
      "stateMutability": "view",
      "type": "function"
    },
    {
      "inputs": [],
      "name": "name",
      "outputs": [
        {
          "internalType": "string",
          "name": "",
          "type": "string"
        }
      ],
      "stateMutability": "view",
      "type": "function"
    },
    {
      "inputs": [],
      "name": "owner",
      "outputs": [
        {
          "internalType": "address",
          "name": "",
          "type": "address"
        }
      ],
      "stateMutability": "view",
      "type": "function"
    },
    {
      "inputs": [],
      "name": "priceFeed",
      "outputs": [
        {
          "internalType": "contract AggregatorV3Interface",
          "name": "",
          "type": "address"
        }
      ],
      "stateMutability": "view",
      "type": "function"
    },
    {
      "inputs": [],
      "name": "rarity",
      "outputs": [
        {
          "internalType": "string",
          "name": "",
          "type": "string"
        }
      ],
      "stateMutability": "view",
      "type": "function"
    },
    {
      "inputs": [
        {
          "internalType": "address",
          "name": "_wrapPool",
          "type": "address"
        }
      ],
      "name": "setWrapPool",
      "outputs": [],
      "stateMutability": "nonpayable",
      "type": "function"
    },
    {
      "inputs": [],
      "name": "symbol",
      "outputs": [
        {
          "internalType": "string",
          "name": "",
          "type": "string"
        }
      ],
      "stateMutability": "view",
      "type": "function"
    },
    {
      "inputs": [],
      "name": "totalCardsDeposited",
      "outputs": [
        {
          "internalType": "uint256",
          "name": "",
          "type": "uint256"
        }
      ],
      "stateMutability": "view",
      "type": "function"
    },
    {
      "inputs": [],
      "name": "totalSupply",
      "outputs": [
        {
          "internalType": "uint256",
          "name": "",
          "type": "uint256"
        }
      ],
      "stateMutability": "view",
      "type": "function"
    },
    {
      "inputs": [],
      "name": "totalTokensIssued",
      "outputs": [
        {
          "internalType": "uint256",
          "name": "",
          "type": "uint256"
        }
      ],
      "stateMutability": "view",
      "type": "function"
    },
    {
      "inputs": [
        {
          "internalType": "address",
          "name": "to",
          "type": "address"
        },
        {
          "internalType": "uint256",
          "name": "amount",
          "type": "uint256"
        }
      ],
      "name": "transfer",
      "outputs": [
        {
          "internalType": "bool",
          "name": "",
          "type": "bool"
        }
      ],
      "stateMutability": "nonpayable",
      "type": "function"
    },
    {
      "inputs": [
        {
          "internalType": "address",
          "name": "from",
          "type": "address"
        },
        {
          "internalType": "address",
          "name": "to",
          "type": "address"
        },
        {
          "internalType": "uint256",
          "name": "amount",
          "type": "uint256"
        }
      ],
      "name": "transferFrom",
      "outputs": [
        {
          "internalType": "bool",
          "name": "",
          "type": "bool"
        }
      ],
      "stateMutability": "nonpayable",
      "type": "function"
    },
    {
      "inputs": [
        {
          "internalType": "string",
          "name": "_cardName",
          "type": "string"
        },
        {
          "internalType": "string",
          "name": "_rarity",
          "type": "string"
        }
      ],
      "name": "updateCardInfo",
      "outputs": [],
      "stateMutability": "nonpayable",
      "type": "function"
    },
    {
      "inputs": [
        {
          "internalType": "uint256",
          "name": "cardCount",
          "type": "uint256"
        }
      ],
      "name": "withdrawCards",
      "outputs": [],
      "stateMutability": "nonpayable",
      "type": "function"
    },
    {
      "inputs": [],
      "name": "wrapPool",
      "outputs": [
        {
          "internalType": "address",
          "name": "",
          "type": "address"
        }
      ],
      "stateMutability": "view",
      "type": "function"
    }
  ],
  "bytecode": "0x608060405234801561001057600080fd5b506040516137bd3803806137bd83398181016040528101906100329190610360565b85600090816100419190610674565b5084600190816100519190610674565b508360038190555082600490816100689190610674565b5081600590816100789190610674565b5033600660006101000a81548173ffffffffffffffffffffffffffffffffffffffff021916908373ffffffffffffffffffffffffffffffffffffffff16021790555033600760006101000a81548173ffffffffffffffffffffffffffffffffffffffff021916908373ffffffffffffffffffffffffffffffffffffffff16021790555080600d60006101000a81548173ffffffffffffffffffffffffffffffffffffffff021916908373ffffffffffffffffffffffffffffffffffffffff1602179055506000600b819055506000600c81905550505050505050610746565b6000604051905090565b600080fd5b600080fd5b600080fd5b600080fd5b6000601f19601f8301169050919050565b7f4e487b7100000000000000000000000000000000000000000000000000000000600052604160045260246000fd5b6101be82610175565b810181811067ffffffffffffffff821117156101dd576101dc610186565b5b80604052505050565b60006101f0610157565b90506101fc82826101b5565b919050565b600067ffffffffffffffff82111561021c5761021b610186565b5b61022582610175565b9050602081019050919050565b60005b83811015610250578082015181840152602081019050610235565b60008484015250505050565b600061026f61026a84610201565b6101e6565b90508281526020810184848401111561028b5761028a610170565b5b610296848285610232565b509392505050565b600082601f8301126102b3576102b261016b565b5b81516102c384826020860161025c565b91505092915050565b6000819050919050565b6102df816102cc565b81146102ea57600080fd5b50565b6000815190506102fc816102d6565b92915050565b600073ffffffffffffffffffffffffffffffffffffffff82169050919050565b600061032d82610302565b9050919050565b61033d81610322565b811461034857600080fd5b50565b60008151905061035a81610334565b92915050565b60008060008060008060c0878903121561037d5761037c610161565b5b600087015167ffffffffffffffff81111561039b5761039a610166565b5b6103a789828a0161029e565b965050602087015167ffffffffffffffff8111156103c8576103c7610166565b5b6103d489828a0161029e565b95505060406103e589828a016102ed565b945050606087015167ffffffffffffffff81111561040657610405610166565b5b61041289828a0161029e565b935050608087015167ffffffffffffffff81111561043357610432610166565b5b61043f89828a0161029e565b92505060a061045089828a0161034b565b9150509295509295509295565b600081519050919050565b7f4e487b7100000000000000000000000000000000000000000000000000000000600052602260045260246000fd5b600060028204905060018216806104af57607f821691505b6020821081036104c2576104c1610468565b5b50919050565b60008190508160005260206000209050919050565b60006020601f8301049050919050565b600082821b905092915050565b60006008830261052a7fffffffffffffffffffffffffffffffffffffffffffffffffffffffffffffffff826104ed565b61053486836104ed565b95508019841693508086168417925050509392505050565b6000819050919050565b600061057161056c610567846102cc565b61054c565b6102cc565b9050919050565b6000819050919050565b61058b83610556565b61059f61059782610578565b8484546104fa565b825550505050565b600090565b6105b46105a7565b6105bf818484610582565b505050565b5b818110156105e3576105d86000826105ac565b6001810190506105c5565b5050565b601f821115610628576105f9816104c8565b610602846104dd565b81016020851015610611578190505b61062561061d856104dd565b8301826105c4565b50505b505050565b600082821c905092915050565b600061064b6000198460080261062d565b1980831691505092915050565b6000610664838361063a565b9150826002028217905092915050565b61067d8261045d565b67ffffffffffffffff81111561069657610695610186565b5b6106a08254610497565b6106ab8282856105e7565b600060209050601f8311600181146106de57600084156106cc578287015190505b6106d68582610658565b86555061073e565b601f1984166106ec866104c8565b60005b82811015610714578489015182556001820191506020850194506020810190506106ef565b86831015610731578489015161072d601f89168261063a565b8355505b6001600288020188555050505b505050505050565b613068806107556000396000f3fe6080604052600436106101c25760003560e01c80639156a003116100f7578063ccde54e611610095578063dd62ed3e11610064578063dd62ed3e14610654578063ed6493af14610691578063fd907116146106bc578063fef21f0f146106e9576101c2565b8063ccde54e614610584578063cdf32d88146105af578063d883f721146105ec578063da7309b31461062b576101c2565b806399f7e5a4116100d157806399f7e5a4146104d5578063a9059cbb146104f1578063b44a84431461052e578063bda540c114610559576101c2565b80639156a0031461045457806395d89b411461047f57806399a9b29c146104aa576101c2565b80636387e7421161016457806370a082311161013e57806370a0823114610396578063741bef1a146103d35780638da5cb5b146103fe5780638e15f47314610429576101c2565b80636387e742146103195780636b2f9dea146103425780636f9fb98a1461036b576101c2565b806323b872dd116101a057806323b872dd1461025a5780632e0bcb4314610297578063313ce567146102c55780635312ea8e146102f0576101c2565b806306fdde03146101c7578063095ea7b3146101f257806318160ddd1461022f575b600080fd5b3480156101d357600080fd5b506101dc610714565b6040516101e99190611dbf565b60405180910390f35b3480156101fe57600080fd5b5061021960048036038101906102149190611e89565b6107a2565b6040516102269190611ee4565b60405180910390f35b34801561023b57600080fd5b506102446107b9565b6040516102519190611f0e565b60405180910390f35b34801561026657600080fd5b50610281600480360381019061027c9190611f29565b6107bf565b60405161028e9190611ee4565b60405180910390f35b3480156102a357600080fd5b506102ac6108b1565b6040516102bc9493929190611f7c565b60405180910390f35b3480156102d157600080fd5b506102da610915565b6040516102e79190611fdd565b60405180910390f35b3480156102fc57600080fd5b5061031760048036038101906103129190611ff8565b61091a565b005b34801561032557600080fd5b50610340600480360381019061033b9190611ff8565b610a59565b005b34801561034e57600080fd5b506103696004803603810190610364919061215a565b610e07565b005b34801561037757600080fd5b50610380610ef4565b60405161038d9190611f0e565b60405180910390f35b3480156103a257600080fd5b506103bd60048036038101906103b891906121d2565b610efc565b6040516103ca9190611f0e565b60405180910390f35b3480156103df57600080fd5b506103e8610f45565b6040516103f5919061225e565b60405180910390f35b34801561040a57600080fd5b50610413610f6b565b6040516104209190612288565b60405180910390f35b34801561043557600080fd5b5061043e610f91565b60405161044b9190611f0e565b60405180910390f35b34801561046057600080fd5b50610469611075565b6040516104769190611f0e565b60405180910390f35b34801561048b57600080fd5b5061049461107b565b6040516104a19190611dbf565b60405180910390f35b3480156104b657600080fd5b506104bf611109565b6040516104cc9190611f0e565b60405180910390f35b6104ef60048036038101906104ea9190611ff8565b61110f565b005b3480156104fd57600080fd5b5061051860048036038101906105139190611e89565b6113b5565b6040516105259190611ee4565b60405180910390f35b34801561053a57600080fd5b506105436113cc565b6040516105509190612288565b60405180910390f35b34801561056557600080fd5b5061056e6113f2565b60405161057b9190611f0e565b60405180910390f35b34801561059057600080fd5b506105996113f8565b6040516105a69190611dbf565b60405180910390f35b3480156105bb57600080fd5b506105d660048036038101906105d191906121d2565b611486565b6040516105e39190611f0e565b60405180910390f35b3480156105f857600080fd5b50610613600480360381019061060e91906121d2565b61149e565b604051610622939291906122a3565b60405180910390f35b34801561063757600080fd5b50610652600480360381019061064d91906121d2565b611548565b005b34801561066057600080fd5b5061067b600480360381019061067691906122da565b61168b565b6040516106889190611f0e565b60405180910390f35b34801561069d57600080fd5b506106a6611712565b6040516106b39190611f0e565b60405180910390f35b3480156106c857600080fd5b506106d1611733565b6040516106e09392919061231a565b60405180910390f35b3480156106f557600080fd5b506106fe611862565b60405161070b9190611dbf565b60405180910390f35b600080546107219061238e565b80601f016020809104026020016040519081016040528092919081815260200182805461074d9061238e565b801561079a5780601f1061076f5761010080835404028352916020019161079a565b820191906000526020600020905b81548152906001019060200180831161077d57829003601f168201915b505050505081565b60006107af3384846118f0565b6001905092915050565b60025481565b600080600960008673ffffffffffffffffffffffffffffffffffffffff1673ffffffffffffffffffffffffffffffffffffffff16815260200190815260200160002060003373ffffffffffffffffffffffffffffffffffffffff1673ffffffffffffffffffffffffffffffffffffffff16815260200190815260200160002054905082811015610884576040517f08c379a000000000000000000000000000000000000000000000000000000000815260040161087b90612431565b60405180910390fd5b61088f858585611ab9565b6108a5853385846108a09190612480565b6118f0565b60019150509392505050565b60008060008060006108c1610f91565b9050600b54945080600b546108d691906124b4565b9350600c5492506000600c54111561090957600c546064856108f891906124b4565b6109029190612525565b915061090e565b600091505b5090919293565b601281565b600660009054906101000a900473ffffffffffffffffffffffffffffffffffffffff1673ffffffffffffffffffffffffffffffffffffffff163373ffffffffffffffffffffffffffffffffffffffff16146109aa576040517f08c379a00000000000000000000000000000000000000000000000000000000081526004016109a1906125c8565b60405180910390fd5b478111156109ed576040517f08c379a00000000000000000000000000000000000000000000000000000000081526004016109e490612634565b60405180910390fd5b600660009054906101000a900473ffffffffffffffffffffffffffffffffffffffff1673ffffffffffffffffffffffffffffffffffffffff166108fc829081150290604051600060405180830381858888f19350505050158015610a55573d6000803e3d6000fd5b5050565b60008111610a9c576040517f08c379a0000000000000000000000000000000000000000000000000000000008152600401610a93906126a0565b60405180910390fd5b80600a60003373ffffffffffffffffffffffffffffffffffffffff1673ffffffffffffffffffffffffffffffffffffffff168152602001908152602001600020541015610b1e576040517f08c379a0000000000000000000000000000000000000000000000000000000008152600401610b159061270c565b60405180910390fd5b6000610b28610f91565b905060006402540be4008284610b3e91906124b4565b610b4891906124b4565b905080600860003373ffffffffffffffffffffffffffffffffffffffff1673ffffffffffffffffffffffffffffffffffffffff168152602001908152602001600020541015610bcc576040517f08c379a0000000000000000000000000000000000000000000000000000000008152600401610bc390612778565b60405180910390fd5b8060026000828254610bde9190612480565b9250508190555080600860003373ffffffffffffffffffffffffffffffffffffffff1673ffffffffffffffffffffffffffffffffffffffff1681526020019081526020016000206000828254610c349190612480565b9250508190555082600a60003373ffffffffffffffffffffffffffffffffffffffff1673ffffffffffffffffffffffffffffffffffffffff1681526020019081526020016000206000828254610c8a9190612480565b9250508190555082600b6000828254610ca39190612480565b9250508190555080600c6000828254610cbc9190612480565b925050819055506000610ccd610f91565b905060008385610cdd91906124b4565b9050600082670de0b6b3a764000083610cf691906124b4565b610d009190612525565b90503373ffffffffffffffffffffffffffffffffffffffff166108fc829081150290604051600060405180830381858888f19350505050158015610d48573d6000803e3d6000fd5b50600073ffffffffffffffffffffffffffffffffffffffff163373ffffffffffffffffffffffffffffffffffffffff167fddf252ad1be2c89b69c2b068fc378daa952ba7f163c4a11628f55a4df523b3ef86604051610da79190611f0e565b60405180910390a33373ffffffffffffffffffffffffffffffffffffffff167f066fdf6f9e08d9f7f4f19a0d6a14944cca979b9cb7d579014687e851e097ea6b8786604051610df7929190612798565b60405180910390a2505050505050565b600660009054906101000a900473ffffffffffffffffffffffffffffffffffffffff1673ffffffffffffffffffffffffffffffffffffffff163373ffffffffffffffffffffffffffffffffffffffff1614610e97576040517f08c379a0000000000000000000000000000000000000000000000000000000008152600401610e8e906125c8565b60405180910390fd5b8160049081610ea69190612963565b508060059081610eb69190612963565b507fe4d0ecd2f79d0aeff192f8cea28d77c6468db3e5ca6d10442440a69a1a8756738282604051610ee8929190612a35565b60405180910390a15050565b600047905090565b6000600860008373ffffffffffffffffffffffffffffffffffffffff1673ffffffffffffffffffffffffffffffffffffffff168152602001908152602001600020549050919050565b600d60009054906101000a900473ffffffffffffffffffffffffffffffffffffffff1681565b600660009054906101000a900473ffffffffffffffffffffffffffffffffffffffff1681565b600080600d60009054906101000a900473ffffffffffffffffffffffffffffffffffffffff1673ffffffffffffffffffffffffffffffffffffffff1663feaf968c6040518163ffffffff1660e01b815260040160a060405180830381865afa158015611001573d6000803e3d6000fd5b505050506040513d601f19601f820116820180604052508101906110259190612af9565b5050509150506000811361106e576040517f08c379a000000000000000000000000000000000000000000000000000000000815260040161106590612bc0565b60405180910390fd5b8091505090565b600c5481565b600180546110889061238e565b80601f01602080910402602001604051908101604052809291908181526020018280546110b49061238e565b80156111015780601f106110d657610100808354040283529160200191611101565b820191906000526020600020905b8154815290600101906020018083116110e457829003601f168201915b505050505081565b60035481565b60008111611152576040517f08c379a000000000000000000000000000000000000000000000000000000000815260040161114990612c2c565b60405180910390fd5b600061115c610f91565b90506000818361116c91906124b4565b90506000611178610f91565b9050600081670de0b6b3a76400008461119191906124b4565b61119b9190612525565b9050803410156111e0576040517f08c379a00000000000000000000000000000000000000000000000000000000081526004016111d790612c98565b60405180910390fd5b60006402540be40085876111f491906124b4565b6111fe91906124b4565b905085600a60003373ffffffffffffffffffffffffffffffffffffffff1673ffffffffffffffffffffffffffffffffffffffff168152602001908152602001600020600082825461124f9190612cb8565b9250508190555085600b60008282546112689190612cb8565b9250508190555080600c60008282546112819190612cb8565b92505081905550806002600082825461129a9190612cb8565b9250508190555080600860003373ffffffffffffffffffffffffffffffffffffffff1673ffffffffffffffffffffffffffffffffffffffff16815260200190815260200160002060008282546112f09190612cb8565b925050819055503373ffffffffffffffffffffffffffffffffffffffff16600073ffffffffffffffffffffffffffffffffffffffff167fddf252ad1be2c89b69c2b068fc378daa952ba7f163c4a11628f55a4df523b3ef836040516113559190611f0e565b60405180910390a33373ffffffffffffffffffffffffffffffffffffffff167fa0d6926f7ae6a79e5246a882f4a43ae00a309979a5861b0afe34228cbe8a17a787836040516113a5929190612798565b60405180910390a2505050505050565b60006113c2338484611ab9565b6001905092915050565b600760009054906101000a900473ffffffffffffffffffffffffffffffffffffffff1681565b600b5481565b600480546114059061238e565b80601f01602080910402602001604051908101604052809291908181526020018280546114319061238e565b801561147e5780601f106114535761010080835404028352916020019161147e565b820191906000526020600020905b81548152906001019060200180831161146157829003601f168201915b505050505081565b600a6020528060005260406000206000915090505481565b6000806000806114ac610f91565b9050600a60008673ffffffffffffffffffffffffffffffffffffffff1673ffffffffffffffffffffffffffffffffffffffff168152602001908152602001600020549350600860008673ffffffffffffffffffffffffffffffffffffffff1673ffffffffffffffffffffffffffffffffffffffff168152602001908152602001600020549250808461153e91906124b4565b9150509193909250565b600660009054906101000a900473ffffffffffffffffffffffffffffffffffffffff1673ffffffffffffffffffffffffffffffffffffffff163373ffffffffffffffffffffffffffffffffffffffff16146115d8576040517f08c379a00000000000000000000000000000000000000000000000000000000081526004016115cf906125c8565b60405180910390fd5b600073ffffffffffffffffffffffffffffffffffffffff168173ffffffffffffffffffffffffffffffffffffffff1603611647576040517f08c379a000000000000000000000000000000000000000000000000000000000815260040161163e90612d38565b60405180910390fd5b80600760006101000a81548173ffffffffffffffffffffffffffffffffffffffff021916908373ffffffffffffffffffffffffffffffffffffffff16021790555050565b6000600960008473ffffffffffffffffffffffffffffffffffffffff1673ffffffffffffffffffffffffffffffffffffffff16815260200190815260200160002060008373ffffffffffffffffffffffffffffffffffffffff1673ffffffffffffffffffffffffffffffffffffffff16815260200190815260200160002054905092915050565b60008061171d610f91565b905080600b5461172d91906124b4565b91505090565b60006060806003546004600581805461174b9061238e565b80601f01602080910402602001604051908101604052809291908181526020018280546117779061238e565b80156117c45780601f10611799576101008083540402835291602001916117c4565b820191906000526020600020905b8154815290600101906020018083116117a757829003601f168201915b505050505091508080546117d79061238e565b80601f01602080910402602001604051908101604052809291908181526020018280546118039061238e565b80156118505780601f1061182557610100808354040283529160200191611850565b820191906000526020600020905b81548152906001019060200180831161183357829003601f168201915b50505050509050925092509250909192565b6005805461186f9061238e565b80601f016020809104026020016040519081016040528092919081815260200182805461189b9061238e565b80156118e85780601f106118bd576101008083540402835291602001916118e8565b820191906000526020600020905b8154815290600101906020018083116118cb57829003601f168201915b505050505081565b600073ffffffffffffffffffffffffffffffffffffffff168373ffffffffffffffffffffffffffffffffffffffff160361195f576040517f08c379a000000000000000000000000000000000000000000000000000000000815260040161195690612dca565b60405180910390fd5b600073ffffffffffffffffffffffffffffffffffffffff168273ffffffffffffffffffffffffffffffffffffffff16036119ce576040517f08c379a00000000000000000000000000000000000000000000000000000000081526004016119c590612e5c565b60405180910390fd5b80600960008573ffffffffffffffffffffffffffffffffffffffff1673ffffffffffffffffffffffffffffffffffffffff16815260200190815260200160002060008473ffffffffffffffffffffffffffffffffffffffff1673ffffffffffffffffffffffffffffffffffffffff168152602001908152602001600020819055508173ffffffffffffffffffffffffffffffffffffffff168373ffffffffffffffffffffffffffffffffffffffff167f8c5be1e5ebec7d5bd14f71427d1e84f3dd0314c0f7b2291e5b200ac8c7c3b92583604051611aac9190611f0e565b60405180910390a3505050565b600073ffffffffffffffffffffffffffffffffffffffff168373ffffffffffffffffffffffffffffffffffffffff1603611b28576040517f08c379a0000000000000000000000000000000000000000000000000000000008152600401611b1f90612eee565b60405180910390fd5b600073ffffffffffffffffffffffffffffffffffffffff168273ffffffffffffffffffffffffffffffffffffffff1603611b97576040517f08c379a0000000000000000000000000000000000000000000000000000000008152600401611b8e90612f80565b60405180910390fd5b80600860008573ffffffffffffffffffffffffffffffffffffffff1673ffffffffffffffffffffffffffffffffffffffff168152602001908152602001600020541015611c19576040517f08c379a0000000000000000000000000000000000000000000000000000000008152600401611c1090613012565b60405180910390fd5b80600860008573ffffffffffffffffffffffffffffffffffffffff1673ffffffffffffffffffffffffffffffffffffffff1681526020019081526020016000206000828254611c689190612480565b9250508190555080600860008473ffffffffffffffffffffffffffffffffffffffff1673ffffffffffffffffffffffffffffffffffffffff1681526020019081526020016000206000828254611cbe9190612cb8565b925050819055508173ffffffffffffffffffffffffffffffffffffffff168373ffffffffffffffffffffffffffffffffffffffff167fddf252ad1be2c89b69c2b068fc378daa952ba7f163c4a11628f55a4df523b3ef83604051611d229190611f0e565b60405180910390a3505050565b600081519050919050565b600082825260208201905092915050565b60005b83811015611d69578082015181840152602081019050611d4e565b60008484015250505050565b6000601f19601f8301169050919050565b6000611d9182611d2f565b611d9b8185611d3a565b9350611dab818560208601611d4b565b611db481611d75565b840191505092915050565b60006020820190508181036000830152611dd98184611d86565b905092915050565b6000604051905090565b600080fd5b600080fd5b600073ffffffffffffffffffffffffffffffffffffffff82169050919050565b6000611e2082611df5565b9050919050565b611e3081611e15565b8114611e3b57600080fd5b50565b600081359050611e4d81611e27565b92915050565b6000819050919050565b611e6681611e53565b8114611e7157600080fd5b50565b600081359050611e8381611e5d565b92915050565b60008060408385031215611ea057611e9f611deb565b5b6000611eae85828601611e3e565b9250506020611ebf85828601611e74565b9150509250929050565b60008115159050919050565b611ede81611ec9565b82525050565b6000602082019050611ef96000830184611ed5565b92915050565b611f0881611e53565b82525050565b6000602082019050611f236000830184611eff565b92915050565b600080600060608486031215611f4257611f41611deb565b5b6000611f5086828701611e3e565b9350506020611f6186828701611e3e565b9250506040611f7286828701611e74565b9150509250925092565b6000608082019050611f916000830187611eff565b611f9e6020830186611eff565b611fab6040830185611eff565b611fb86060830184611eff565b95945050505050565b600060ff82169050919050565b611fd781611fc1565b82525050565b6000602082019050611ff26000830184611fce565b92915050565b60006020828403121561200e5761200d611deb565b5b600061201c84828501611e74565b91505092915050565b600080fd5b600080fd5b7f4e487b7100000000000000000000000000000000000000000000000000000000600052604160045260246000fd5b61206782611d75565b810181811067ffffffffffffffff821117156120865761208561202f565b5b80604052505050565b6000612099611de1565b90506120a5828261205e565b919050565b600067ffffffffffffffff8211156120c5576120c461202f565b5b6120ce82611d75565b9050602081019050919050565b82818337600083830152505050565b60006120fd6120f8846120aa565b61208f565b9050828152602081018484840111156121195761211861202a565b5b6121248482856120db565b509392505050565b600082601f83011261214157612140612025565b5b81356121518482602086016120ea565b91505092915050565b6000806040838503121561217157612170611deb565b5b600083013567ffffffffffffffff81111561218f5761218e611df0565b5b61219b8582860161212c565b925050602083013567ffffffffffffffff8111156121bc576121bb611df0565b5b6121c88582860161212c565b9150509250929050565b6000602082840312156121e8576121e7611deb565b5b60006121f684828501611e3e565b91505092915050565b6000819050919050565b600061222461221f61221a84611df5565b6121ff565b611df5565b9050919050565b600061223682612209565b9050919050565b60006122488261222b565b9050919050565b6122588161223d565b82525050565b6000602082019050612273600083018461224f565b92915050565b61228281611e15565b82525050565b600060208201905061229d6000830184612279565b92915050565b60006060820190506122b86000830186611eff565b6122c56020830185611eff565b6122d26040830184611eff565b949350505050565b600080604083850312156122f1576122f0611deb565b5b60006122ff85828601611e3e565b925050602061231085828601611e3e565b9150509250929050565b600060608201905061232f6000830186611eff565b81810360208301526123418185611d86565b905081810360408301526123558184611d86565b9050949350505050565b7f4e487b7100000000000000000000000000000000000000000000000000000000600052602260045260246000fd5b600060028204905060018216806123a657607f821691505b6020821081036123b9576123b861235f565b5b50919050565b7f45524332303a207472616e7366657220616d6f756e742065786365656473206160008201527f6c6c6f77616e6365000000000000000000000000000000000000000000000000602082015250565b600061241b602883611d3a565b9150612426826123bf565b604082019050919050565b6000602082019050818103600083015261244a8161240e565b9050919050565b7f4e487b7100000000000000000000000000000000000000000000000000000000600052601160045260246000fd5b600061248b82611e53565b915061249683611e53565b92508282039050818111156124ae576124ad612451565b5b92915050565b60006124bf82611e53565b91506124ca83611e53565b92508282026124d881611e53565b915082820484148315176124ef576124ee612451565b5b5092915050565b7f4e487b7100000000000000000000000000000000000000000000000000000000600052601260045260246000fd5b600061253082611e53565b915061253b83611e53565b92508261254b5761254a6124f6565b5b828204905092915050565b7f4f6e6c79206f776e65722063616e2063616c6c20746869732066756e6374696f60008201527f6e00000000000000000000000000000000000000000000000000000000000000602082015250565b60006125b2602183611d3a565b91506125bd82612556565b604082019050919050565b600060208201905081810360008301526125e1816125a5565b9050919050565b7f496e73756666696369656e7420636f6e74726163742062616c616e6365000000600082015250565b600061261e601d83611d3a565b9150612629826125e8565b602082019050919050565b6000602082019050818103600083015261264d81612611565b9050919050565b7f4d757374207769746864726177206174206c6561737420312063617264000000600082015250565b600061268a601d83611d3a565b915061269582612654565b602082019050919050565b600060208201905081810360008301526126b98161267d565b9050919050565b7f496e73756666696369656e742063617264206465706f73697473000000000000600082015250565b60006126f6601a83611d3a565b9150612701826126c0565b602082019050919050565b60006020820190508181036000830152612725816126e9565b9050919050565b7f496e73756666696369656e7420746f6b656e2062616c616e6365000000000000600082015250565b6000612762601a83611d3a565b915061276d8261272c565b602082019050919050565b6000602082019050818103600083015261279181612755565b9050919050565b60006040820190506127ad6000830185611eff565b6127ba6020830184611eff565b9392505050565b60008190508160005260206000209050919050565b60006020601f8301049050919050565b600082821b905092915050565b6000600883026128237fffffffffffffffffffffffffffffffffffffffffffffffffffffffffffffffff826127e6565b61282d86836127e6565b95508019841693508086168417925050509392505050565b600061286061285b61285684611e53565b6121ff565b611e53565b9050919050565b6000819050919050565b61287a83612845565b61288e61288682612867565b8484546127f3565b825550505050565b600090565b6128a3612896565b6128ae818484612871565b505050565b5b818110156128d2576128c760008261289b565b6001810190506128b4565b5050565b601f821115612917576128e8816127c1565b6128f1846127d6565b81016020851015612900578190505b61291461290c856127d6565b8301826128b3565b50505b505050565b600082821c905092915050565b600061293a6000198460080261291c565b1980831691505092915050565b60006129538383612929565b9150826002028217905092915050565b61296c82611d2f565b67ffffffffffffffff8111156129855761298461202f565b5b61298f825461238e565b61299a8282856128d6565b600060209050601f8311600181146129cd57600084156129bb578287015190505b6129c58582612947565b865550612a2d565b601f1984166129db866127c1565b60005b82811015612a03578489015182556001820191506020850194506020810190506129de565b86831015612a205784890151612a1c601f891682612929565b8355505b6001600288020188555050505b505050505050565b60006040820190508181036000830152612a4f8185611d86565b90508181036020830152612a638184611d86565b90509392505050565b600069ffffffffffffffffffff82169050919050565b612a8b81612a6c565b8114612a9657600080fd5b50565b600081519050612aa881612a82565b92915050565b6000819050919050565b612ac181612aae565b8114612acc57600080fd5b50565b600081519050612ade81612ab8565b92915050565b600081519050612af381611e5d565b92915050565b600080600080600060a08688031215612b1557612b14611deb565b5b6000612b2388828901612a99565b9550506020612b3488828901612acf565b9450506040612b4588828901612ae4565b9350506060612b5688828901612ae4565b9250506080612b6788828901612a99565b9150509295509295909350565b7f496e76616c696420707269636500000000000000000000000000000000000000600082015250565b6000612baa600d83611d3a565b9150612bb582612b74565b602082019050919050565b60006020820190508181036000830152612bd981612b9d565b9050919050565b7f4d757374206465706f736974206174206c656173742031206361726400000000600082015250565b6000612c16601c83611d3a565b9150612c2182612be0565b602082019050919050565b60006020820190508181036000830152612c4581612c09565b9050919050565b7f496e73756666696369656e74204554482073656e740000000000000000000000600082015250565b6000612c82601583611d3a565b9150612c8d82612c4c565b602082019050919050565b60006020820190508181036000830152612cb181612c75565b9050919050565b6000612cc382611e53565b9150612cce83611e53565b9250828201905080821115612ce657612ce5612451565b5b92915050565b7f496e76616c69642057726170506f6f6c20616464726573730000000000000000600082015250565b6000612d22601883611d3a565b9150612d2d82612cec565b602082019050919050565b60006020820190508181036000830152612d5181612d15565b9050919050565b7f45524332303a20617070726f76652066726f6d20746865207a65726f2061646460008201527f7265737300000000000000000000000000000000000000000000000000000000602082015250565b6000612db4602483611d3a565b9150612dbf82612d58565b604082019050919050565b60006020820190508181036000830152612de381612da7565b9050919050565b7f45524332303a20617070726f766520746f20746865207a65726f20616464726560008201527f7373000000000000000000000000000000000000000000000000000000000000602082015250565b6000612e46602283611d3a565b9150612e5182612dea565b604082019050919050565b60006020820190508181036000830152612e7581612e39565b9050919050565b7f45524332303a207472616e736665722066726f6d20746865207a65726f20616460008201527f6472657373000000000000000000000000000000000000000000000000000000602082015250565b6000612ed8602583611d3a565b9150612ee382612e7c565b604082019050919050565b60006020820190508181036000830152612f0781612ecb565b9050919050565b7f45524332303a207472616e7366657220746f20746865207a65726f206164647260008201527f6573730000000000000000000000000000000000000000000000000000000000602082015250565b6000612f6a602383611d3a565b9150612f7582612f0e565b604082019050919050565b60006020820190508181036000830152612f9981612f5d565b9050919050565b7f45524332303a207472616e7366657220616d6f756e742065786365656473206260008201527f616c616e63650000000000000000000000000000000000000000000000000000602082015250565b6000612ffc602683611d3a565b915061300782612fa0565b604082019050919050565b6000602082019050818103600083015261302b81612fef565b905091905056fea2646970667358221220681cdf58e802ae5a01322feadad31d40672dae6eb2580aba092aad9ea1b41dbc64736f6c634300081c0033",
  "linkReferences": {},
  "deployedLinkReferences": {}
}